{"abi":[{"type":"function","name":"verify","inputs":[{"name":"msgHash","type":"bytes32","internalType":"bytes32"},{"name":"signature","type":"bytes","internalType":"bytes"},{"name":"signer","type":"address","internalType":"address"}],"outputs":[{"name":"","type":"bool","internalType":"bool"}],"stateMutability":"pure"}],"bytecode":{"object":"0x61031d61003a600b82828239805160001a60731461002d57634e487b7160e01b600052600060045260246000fd5b30600052607381538281f3fe73000000000000000000000000000000000000000030146080604052600436106100355760003560e01c8063823ac3731461003a575b600080fd5b61004d6100483660046101db565b610061565b604051901515815260200160405180910390f35b600082516041146100b85760405162461bcd60e51b815260206004820152601860248201527f696e76616c6964207369676e6174757265206c656e6774680000000000000000604482015260640160405180910390fd5b602083810151604080860151606087015182518084018452601c81527f19457468657265756d205369676e6564204d6573736167653a0a33320000000081870152925193949193600091821a93926101149184918c91016102a6565b60408051601f1981840301815282825280516020918201206000845290830180835281905260ff861691830191909152606082018790526080820186905291506001600160a01b0388169060019060a0016020604051602081039080840390855afa158015610187573d6000803e3d6000fd5b505050602060405103516001600160a01b031614955050505050509392505050565b634e487b7160e01b600052604160045260246000fd5b80356001600160a01b03811681146101d657600080fd5b919050565b6000806000606084860312156101f057600080fd5b83359250602084013567ffffffffffffffff8082111561020f57600080fd5b818601915086601f83011261022357600080fd5b813581811115610235576102356101a9565b604051601f8201601f19908116603f0116810190838211818310171561025d5761025d6101a9565b8160405282815289602084870101111561027657600080fd5b82602086016020830137600060208483010152809650505050505061029d604085016101bf565b90509250925092565b6000835160005b818110156102c757602081870181015185830152016102ad565b818111156102d6576000828501525b50919091019182525060200191905056fea2646970667358221220137c88245aec825d7c853ae2ab6bdad56768d7c7b2bca8515c263d4550327cb664736f6c634300080d0033","linkReferences":{}},"methodIdentifiers":{"verify(bytes32,bytes,address)":"823ac373"},"id":31}