{"abi":[{"type":"constructor","inputs":[{"name":"ownerAddress","type":"address","internalType":"address"},{"name":"delegatedAddress","type":"address","internalType":"address"},{"name":"treasuryAddress_","type":"address","internalType":"address"}],"stateMutability":"nonpayable"},{"type":"function","name":"MAX_FIGHTERS_ALLOWED","inputs":[],"outputs":[{"name":"","type":"uint8","internalType":"uint8"}],"stateMutability":"view"},{"type":"function","name":"addStaker","inputs":[{"name":"newStaker","type":"address","internalType":"address"}],"outputs":[],"stateMutability":"nonpayable"},{"type":"function","name":"approve","inputs":[{"name":"to","type":"address","internalType":"address"},{"name":"tokenId","type":"uint256","internalType":"uint256"}],"outputs":[],"stateMutability":"nonpayable"},{"type":"function","name":"balanceOf","inputs":[{"name":"owner","type":"address","internalType":"address"}],"outputs":[{"name":"","type":"uint256","internalType":"uint256"}],"stateMutability":"view"},{"type":"function","name":"claimFighters","inputs":[{"name":"numToMint","type":"uint8[2]","internalType":"uint8[2]"},{"name":"signature","type":"bytes","internalType":"bytes"},{"name":"modelHashes","type":"string[]","internalType":"string[]"},{"name":"modelTypes","type":"string[]","internalType":"string[]"}],"outputs":[],"stateMutability":"nonpayable"},{"type":"function","name":"contractURI","inputs":[],"outputs":[{"name":"","type":"string","internalType":"string"}],"stateMutability":"pure"},{"type":"function","name":"doesTokenExist","inputs":[{"name":"tokenId","type":"uint256","internalType":"uint256"}],"outputs":[{"name":"","type":"bool","internalType":"bool"}],"stateMutability":"view"},{"type":"function","name":"fighterStaked","inputs":[{"name":"","type":"uint256","internalType":"uint256"}],"outputs":[{"name":"","type":"bool","internalType":"bool"}],"stateMutability":"view"},{"type":"function","name":"fighters","inputs":[{"name":"","type":"uint256","internalType":"uint256"}],"outputs":[{"name":"weight","type":"uint256","internalType":"uint256"},{"name":"element","type":"uint256","internalType":"uint256"},{"name":"physicalAttributes","type":"tuple","internalType":"struct FighterOps.FighterPhysicalAttributes","components":[{"name":"head","type":"uint256","internalType":"uint256"},{"name":"eyes","type":"uint256","internalType":"uint256"},{"name":"mouth","type":"uint256","internalType":"uint256"},{"name":"body","type":"uint256","internalType":"uint256"},{"name":"hands","type":"uint256","internalType":"uint256"},{"name":"feet","type":"uint256","internalType":"uint256"}]},{"name":"id","type":"uint256","internalType":"uint256"},{"name":"modelHash","type":"string","internalType":"string"},{"name":"modelType","type":"string","internalType":"string"},{"name":"generation","type":"uint8","internalType":"uint8"},{"name":"iconsType","type":"uint8","internalType":"uint8"},{"name":"dendroidBool","type":"bool","internalType":"bool"}],"stateMutability":"view"},{"type":"function","name":"generation","inputs":[{"name":"","type":"uint256","internalType":"uint256"}],"outputs":[{"name":"","type":"uint8","internalType":"uint8"}],"stateMutability":"view"},{"type":"function","name":"getAllFighterInfo","inputs":[{"name":"tokenId","type":"uint256","internalType":"uint256"}],"outputs":[{"name":"","type":"address","internalType":"address"},{"name":"","type":"uint256[6]","internalType":"uint256[6]"},{"name":"","type":"uint256","internalType":"uint256"},{"name":"","type":"uint256","internalType":"uint256"},{"name":"","type":"string","internalType":"string"},{"name":"","type":"string","internalType":"string"},{"name":"","type":"uint16","internalType":"uint16"}],"stateMutability":"view"},{"type":"function","name":"getApproved","inputs":[{"name":"tokenId","type":"uint256","internalType":"uint256"}],"outputs":[{"name":"","type":"address","internalType":"address"}],"stateMutability":"view"},{"type":"function","name":"hasStakerRole","inputs":[{"name":"","type":"address","internalType":"address"}],"outputs":[{"name":"","type":"bool","internalType":"bool"}],"stateMutability":"view"},{"type":"function","name":"incrementGeneration","inputs":[{"name":"fighterType","type":"uint8","internalType":"uint8"}],"outputs":[{"name":"","type":"uint8","internalType":"uint8"}],"stateMutability":"nonpayable"},{"type":"function","name":"instantiateAIArenaHelperContract","inputs":[{"name":"aiArenaHelperAddress","type":"address","internalType":"address"}],"outputs":[],"stateMutability":"nonpayable"},{"type":"function","name":"instantiateMintpassContract","inputs":[{"name":"mintpassAddress","type":"address","internalType":"address"}],"outputs":[],"stateMutability":"nonpayable"},{"type":"function","name":"instantiateNeuronContract","inputs":[{"name":"neuronAddress","type":"address","internalType":"address"}],"outputs":[],"stateMutability":"nonpayable"},{"type":"function","name":"isApprovedForAll","inputs":[{"name":"owner","type":"address","internalType":"address"},{"name":"operator","type":"address","internalType":"address"}],"outputs":[{"name":"","type":"bool","internalType":"bool"}],"stateMutability":"view"},{"type":"function","name":"maxRerollsAllowed","inputs":[{"name":"","type":"uint256","internalType":"uint256"}],"outputs":[{"name":"","type":"uint8","internalType":"uint8"}],"stateMutability":"view"},{"type":"function","name":"mintFromMergingPool","inputs":[{"name":"to","type":"address","internalType":"address"},{"name":"modelHash","type":"string","internalType":"string"},{"name":"modelType","type":"string","internalType":"string"},{"name":"customAttributes","type":"uint256[2]","internalType":"uint256[2]"}],"outputs":[],"stateMutability":"nonpayable"},{"type":"function","name":"name","inputs":[],"outputs":[{"name":"","type":"string","internalType":"string"}],"stateMutability":"view"},{"type":"function","name":"nftsClaimed","inputs":[{"name":"","type":"address","internalType":"address"},{"name":"","type":"uint8","internalType":"uint8"}],"outputs":[{"name":"","type":"uint8","internalType":"uint8"}],"stateMutability":"view"},{"type":"function","name":"numElements","inputs":[{"name":"","type":"uint8","internalType":"uint8"}],"outputs":[{"name":"","type":"uint8","internalType":"uint8"}],"stateMutability":"view"},{"type":"function","name":"numRerolls","inputs":[{"name":"","type":"uint256","internalType":"uint256"}],"outputs":[{"name":"","type":"uint8","internalType":"uint8"}],"stateMutability":"view"},{"type":"function","name":"numTrained","inputs":[{"name":"","type":"uint256","internalType":"uint256"}],"outputs":[{"name":"","type":"uint32","internalType":"uint32"}],"stateMutability":"view"},{"type":"function","name":"ownerOf","inputs":[{"name":"tokenId","type":"uint256","internalType":"uint256"}],"outputs":[{"name":"","type":"address","internalType":"address"}],"stateMutability":"view"},{"type":"function","name":"reRoll","inputs":[{"name":"tokenId","type":"uint8","internalType":"uint8"},{"name":"fighterType","type":"uint8","internalType":"uint8"}],"outputs":[],"stateMutability":"nonpayable"},{"type":"function","name":"redeemMintPass","inputs":[{"name":"mintpassIdsToBurn","type":"uint256[]","internalType":"uint256[]"},{"name":"fighterTypes","type":"uint8[]","internalType":"uint8[]"},{"name":"iconsTypes","type":"uint8[]","internalType":"uint8[]"},{"name":"mintPassDnas","type":"string[]","internalType":"string[]"},{"name":"modelHashes","type":"string[]","internalType":"string[]"},{"name":"modelTypes","type":"string[]","internalType":"string[]"}],"outputs":[],"stateMutability":"nonpayable"},{"type":"function","name":"rerollCost","inputs":[],"outputs":[{"name":"","type":"uint256","internalType":"uint256"}],"stateMutability":"view"},{"type":"function","name":"safeTransferFrom","inputs":[{"name":"from","type":"address","internalType":"address"},{"name":"to","type":"address","internalType":"address"},{"name":"tokenId","type":"uint256","internalType":"uint256"}],"outputs":[],"stateMutability":"nonpayable"},{"type":"function","name":"safeTransferFrom","inputs":[{"name":"from","type":"address","internalType":"address"},{"name":"to","type":"address","internalType":"address"},{"name":"tokenId","type":"uint256","internalType":"uint256"},{"name":"data","type":"bytes","internalType":"bytes"}],"outputs":[],"stateMutability":"nonpayable"},{"type":"function","name":"setApprovalForAll","inputs":[{"name":"operator","type":"address","internalType":"address"},{"name":"approved","type":"bool","internalType":"bool"}],"outputs":[],"stateMutability":"nonpayable"},{"type":"function","name":"setMergingPoolAddress","inputs":[{"name":"mergingPoolAddress","type":"address","internalType":"address"}],"outputs":[],"stateMutability":"nonpayable"},{"type":"function","name":"setTokenURI","inputs":[{"name":"tokenId","type":"uint256","internalType":"uint256"},{"name":"newTokenURI","type":"string","internalType":"string"}],"outputs":[],"stateMutability":"nonpayable"},{"type":"function","name":"supportsInterface","inputs":[{"name":"_interfaceId","type":"bytes4","internalType":"bytes4"}],"outputs":[{"name":"","type":"bool","internalType":"bool"}],"stateMutability":"view"},{"type":"function","name":"symbol","inputs":[],"outputs":[{"name":"","type":"string","internalType":"string"}],"stateMutability":"view"},{"type":"function","name":"tokenByIndex","inputs":[{"name":"index","type":"uint256","internalType":"uint256"}],"outputs":[{"name":"","type":"uint256","internalType":"uint256"}],"stateMutability":"view"},{"type":"function","name":"tokenOfOwnerByIndex","inputs":[{"name":"owner","type":"address","internalType":"address"},{"name":"index","type":"uint256","internalType":"uint256"}],"outputs":[{"name":"","type":"uint256","internalType":"uint256"}],"stateMutability":"view"},{"type":"function","name":"tokenURI","inputs":[{"name":"tokenId","type":"uint256","internalType":"uint256"}],"outputs":[{"name":"","type":"string","internalType":"string"}],"stateMutability":"view"},{"type":"function","name":"totalNumTrained","inputs":[],"outputs":[{"name":"","type":"uint32","internalType":"uint32"}],"stateMutability":"view"},{"type":"function","name":"totalSupply","inputs":[],"outputs":[{"name":"","type":"uint256","internalType":"uint256"}],"stateMutability":"view"},{"type":"function","name":"transferFrom","inputs":[{"name":"from","type":"address","internalType":"address"},{"name":"to","type":"address","internalType":"address"},{"name":"tokenId","type":"uint256","internalType":"uint256"}],"outputs":[],"stateMutability":"nonpayable"},{"type":"function","name":"transferOwnership","inputs":[{"name":"newOwnerAddress","type":"address","internalType":"address"}],"outputs":[],"stateMutability":"nonpayable"},{"type":"function","name":"treasuryAddress","inputs":[],"outputs":[{"name":"","type":"address","internalType":"address"}],"stateMutability":"view"},{"type":"function","name":"updateFighterStaking","inputs":[{"name":"tokenId","type":"uint256","internalType":"uint256"},{"name":"stakingStatus","type":"bool","internalType":"bool"}],"outputs":[],"stateMutability":"nonpayable"},{"type":"function","name":"updateModel","inputs":[{"name":"tokenId","type":"uint256","internalType":"uint256"},{"name":"modelHash","type":"string","internalType":"string"},{"name":"modelType","type":"string","internalType":"string"}],"outputs":[],"stateMutability":"nonpayable"},{"type":"event","name":"Approval","inputs":[{"name":"owner","type":"address","indexed":true,"internalType":"address"},{"name":"approved","type":"address","indexed":true,"internalType":"address"},{"name":"tokenId","type":"uint256","indexed":true,"internalType":"uint256"}],"anonymous":false},{"type":"event","name":"ApprovalForAll","inputs":[{"name":"owner","type":"address","indexed":true,"internalType":"address"},{"name":"operator","type":"address","indexed":true,"internalType":"address"},{"name":"approved","type":"bool","indexed":false,"internalType":"bool"}],"anonymous":false},{"type":"event","name":"Locked","inputs":[{"name":"tokenId","type":"uint256","indexed":false,"internalType":"uint256"}],"anonymous":false},{"type":"event","name":"Transfer","inputs":[{"name":"from","type":"address","indexed":true,"internalType":"address"},{"name":"to","type":"address","indexed":true,"internalType":"address"},{"name":"tokenId","type":"uint256","indexed":true,"internalType":"uint256"}],"anonymous":false},{"type":"event","name":"Unlocked","inputs":[{"name":"tokenId","type":"uint256","indexed":false,"internalType":"uint256"}],"anonymous":false}],"bytecode":{"object":"0x60c06040526003608081815260a0919091526200002190600a9060026200017e565b50683635c9adc5dea00000600b5560408051808201909152600080825260208201526200005390600c9060026200017e565b503480156200006157600080fd5b5060405162003ff638038062003ff68339810160408190526200008491620002c9565b604080518082018252601081526f20a49020b932b730902334b3b43a32b960811b602080830191825283518085019094526003845262232a2960e91b908401528151919291620000d79160009162000218565b508051620000ed90600190602084019062000218565b5050600e80546001600160a01b039586166001600160a01b031991821617909155600f80549486169490911693909317909255600d80549190931664010000000002600160201b600160c01b031990911617909155506000805260186020527f999d26de3473317ead3eeaf34ca78057f1439db67b6953469c3c96ce9caf6bd7805460ff191660031790556200034f565b600183019183908215620002065791602002820160005b83821115620001d557835183826101000a81548160ff021916908360ff160217905550926020019260010160208160000104928301926001030262000195565b8015620002045782816101000a81549060ff0219169055600101602081600001049283019260010302620001d5565b505b506200021492915062000295565b5090565b828054620002269062000313565b90600052602060002090601f0160209004810192826200024a576000855562000206565b82601f106200026557805160ff191683800117855562000206565b8280016001018555821562000206579182015b828111156200020657825182559160200191906001019062000278565b5b8082111562000214576000815560010162000296565b80516001600160a01b0381168114620002c457600080fd5b919050565b600080600060608486031215620002df57600080fd5b620002ea84620002ac565b9250620002fa60208501620002ac565b91506200030a60408501620002ac565b90509250925092565b600181811c908216806200032857607f821691505b6020821081036200034957634e487b7160e01b600052602260045260246000fd5b50919050565b613c97806200035f6000396000f3fe608060405234801561001057600080fd5b506004361061028a5760003560e01c806361e6ce3b1161015c578063a0e75a1f116100ce578063c87b56dd11610087578063c87b56dd14610650578063c9a2a5cc14610663578063cf106fe71461066c578063e8a3d48514610692578063e985e9c51461069a578063f2fde38b146106d657600080fd5b8063a0e75a1f146105d9578063a22cb465146105e9578063b2ffc22d146105fc578063b88d4fde1461060f578063c3738f3f14610622578063c5f956af1461063557600080fd5b80637a1bc46f116101205780637a1bc46f146105625780637d71dc3514610585578063860b5bda1461059857806395298971146105ab57806395d89b41146105be5780639d3ba615146105c657600080fd5b806361e6ce3b146104f35780636352211e14610516578063709538b81461052957806370a082311461053c57806375464d7e1461054f57600080fd5b80632466696e116102005780632f745c59116101b95780632f745c591461044957806336f4104d1461045c5780633f041e221461046f57806340de1fb1146104aa57806342842e0e146104cd5780634f6ccce7146104e057600080fd5b80632466696e146103b257806324c7f5db146103c557806325b9eefc146103f3578063282221a6146104065780632d453d671461040e5780632e6b221d1461042157600080fd5b8063115822fe11610252578063115822fe14610331578063162094c41461034457806318160ddd146103575780632141119714610369578063231d90ca1461038c57806323b872dd1461039f57600080fd5b806301ffc9a71461028f57806306fdde03146102b7578063081812fc146102cc578063095ea7b3146102f75780630c534f4c1461030c575b600080fd5b6102a261029d366004612ee5565b6106e9565b60405190151581526020015b60405180910390f35b6102bf6106fa565b6040516102ae9190612f5a565b6102df6102da366004612f6d565b61078c565b6040516001600160a01b0390911681526020016102ae565b61030a610305366004612f9b565b6107b3565b005b61031f61031a366004612fdd565b6108cd565b60405160ff90911681526020016102ae565b61030a61033f366004613051565b6109bf565b61030a6103523660046130e3565b610aa3565b6008545b6040519081526020016102ae565b61031f610377366004612fdd565b60186020526000908152604090205460ff1681565b61030a61039a36600461312e565b610ad9565b61030a6103ad36600461314b565b610b12565b61030a6103c036600461312e565b610b30565b61031f6103d336600461318c565b601960209081526000928352604080842090915290825290205460ff1681565b61030a61040136600461312e565b610b6b565b61031f600a81565b61030a61041c3660046131c1565b610ba4565b61043461042f366004612f6d565b611088565b6040516102ae999897969594939291906131dd565b61035b610457366004612f9b565b611246565b61030a61046a366004613295565b6112dc565b61049561047d366004612f6d565b601a6020526000908152604090205463ffffffff1681565b60405163ffffffff90911681526020016102ae565b61031f6104b8366004612f6d565b60166020526000908152604090205460ff1681565b61030a6104db36600461314b565b611387565b61035b6104ee366004612f6d565b6113b5565b6102a261050136600461312e565b60176020526000908152604090205460ff1681565b6102df610524366004612f6d565b611448565b61030a610537366004613309565b6114a8565b61035b61054a36600461312e565b6117be565b61030a61055d366004613446565b611844565b6102a2610570366004612f6d565b60156020526000908152604090205460ff1681565b61031f610593366004612f6d565b611bfa565b61030a6105a636600461312e565b611c24565b61030a6105b93660046134f1565b611c5d565b6102bf611d75565b61030a6105d436600461312e565b611d84565b600d546104959063ffffffff1681565b61030a6105f736600461356a565b611dbd565b61031f61060a366004612f6d565b611dc8565b61030a61061d36600461362d565b611dd8565b6102a2610630366004612f6d565b611e51565b600d546102df9064010000000090046001600160a01b031681565b6102bf61065e366004612f6d565b611e70565b61035b600b5481565b61067f61067a366004612f6d565b611f12565b6040516102ae97969594939291906136db565b6102bf611ff1565b6102a26106a8366004613764565b6001600160a01b03918216600090815260056020908152604080832093909416825291909152205460ff1690565b61030a6106e436600461312e565b612011565b60006106f48261204a565b92915050565b60606000805461070990613792565b80601f016020809104026020016040519081016040528092919081815260200182805461073590613792565b80156107825780601f1061075757610100808354040283529160200191610782565b820191906000526020600020905b81548152906001019060200180831161076557829003601f168201915b5050505050905090565b60006107978261206f565b506000908152600460205260409020546001600160a01b031690565b60006107be82611448565b9050806001600160a01b0316836001600160a01b0316036108305760405162461bcd60e51b815260206004820152602160248201527f4552433732313a20617070726f76616c20746f2063757272656e74206f776e656044820152603960f91b60648201526084015b60405180910390fd5b336001600160a01b038216148061084c575061084c81336106a8565b6108be5760405162461bcd60e51b815260206004820152603e60248201527f4552433732313a20617070726f76652063616c6c6572206973206e6f7420746f60448201527f6b656e206f776e6572206e6f7220617070726f76656420666f7220616c6c00006064820152608401610827565b6108c883836120d1565b505050565b600e546000906001600160a01b031633146108e757600080fd5b6001600c8360ff16600281106108ff576108ff6137cc565b602091828204019190068282829054906101000a900460ff1661092291906137f8565b92506101000a81548160ff021916908360ff1602179055506001600a8360ff1660028110610952576109526137cc565b602091828204019190068282829054906101000a900460ff1661097591906137f8565b92506101000a81548160ff021916908360ff160217905550600c8260ff16600281106109a3576109a36137cc565b602081049091015460ff601f9092166101000a90041692915050565b6010546001600160a01b031633146109d657600080fd5b6014546040805133602082015290810191909152610a9b90879060600160408051601f198184030181528282528051602091820120601f8a01829004820284018201909252888352909190899089908190840183828082843760009201919091525050604080516020601f8b01819004810282018101909252898152925089915088908190840183828082843760009201829052506040805180820182529194508493509091508990600290839083908082843760009201919091525061213f915050565b505050505050565b600f546001600160a01b03163314610aba57600080fd5b6000838152601b60205260409020610ad3908383612da4565b50505050565b600e546001600160a01b03163314610af057600080fd5b601080546001600160a01b0319166001600160a01b0392909216919091179055565b610b1c8183612468565b610b2557600080fd5b6108c88383836124aa565b600e546001600160a01b03163314610b4757600080fd5b6001600160a01b03166000908152601760205260409020805460ff19166001179055565b600e546001600160a01b03163314610b8257600080fd5b601280546001600160a01b0319166001600160a01b0392909216919091179055565b610bb08260ff16611448565b6001600160a01b0316336001600160a01b031614610bcd57600080fd5b600a8160ff1660028110610be357610be36137cc565b60208082049092015460ff85811660009081526016909452604090932054601f9092166101000a90048216911610610c1a57600080fd5b600b546013546040516370a0823160e01b81523360048201526001600160a01b03909116906370a0823190602401602060405180830381865afa158015610c65573d6000803e3d6000fd5b505050506040513d601f19601f82011682018060405250810190610c89919061381d565b1015610cd75760405162461bcd60e51b815260206004820152601960248201527f4e6f7420656e6f756768204e524e20666f72207265726f6c6c000000000000006044820152606401610827565b601354600b5460405163080d7c4d60e01b815233600482015260248101919091526001600160a01b039091169063080d7c4d90604401600060405180830381600087803b158015610d2757600080fd5b505af1158015610d3b573d6000803e3d6000fd5b5050601354600d54600b546040516323b872dd60e01b81523360048201526001600160a01b0364010000000090930483166024820152604481019190915260009450911691506323b872dd906064016020604051808303816000875af1158015610da9573d6000803e3d6000fd5b505050506040513d601f19601f82011682018060405250810190610dcd9190613836565b905080156108c85760ff80841660009081526016602052604081208054600193919291610dfc918591166137f8565b82546101009290920a60ff81810219909316918316021790915584811660008181526016602090815260408083205481513393810193909352908201939093529190921660608201529091506080016040516020818303038152906040528051906020012060001c90506000806000610e758487612651565b9250925092508260148860ff1681548110610e9257610e926137cc565b90600052602060002090600c0201600101819055508160148860ff1681548110610ebe57610ebe6137cc565b60009182526020909120600c91820201919091556011546001600160a01b031690632299374590839060ff8a1660028110610efb57610efb6137cc565b602091828204019190069054906101000a900460ff1660148b60ff1681548110610f2757610f276137cc565b90600052602060002090600c0201600b0160019054906101000a900460ff1660148c60ff1681548110610f5c57610f5c6137cc565b60009182526020909120600b600c9092020101546040516001600160e01b031960e087901b168152600481019490945260ff92831660248501529082166044840152620100009004161515606482015260840160c060405180830381865afa158015610fcc573d6000803e3d6000fd5b505050506040513d601f19601f82011682018060405250810190610ff09190613853565b60148860ff1681548110611006576110066137cc565b6000918252602080832084516002600c909402909101928301558381015160038301556040808501516004840155606085015160058401556080850151600684015560a090940151600790920191909155825180820180855283825260ff8c168452601b90925292909120915161107e929190612e28565b5050505050505050565b6014818154811061109857600080fd5b90600052602060002090600c0201600091509050806000015490806001015490806002016040518060c001604052908160008201548152602001600182015481526020016002820154815260200160038201548152602001600482015481526020016005820154815250509080600801549080600901805461111990613792565b80601f016020809104026020016040519081016040528092919081815260200182805461114590613792565b80156111925780601f1061116757610100808354040283529160200191611192565b820191906000526020600020905b81548152906001019060200180831161117557829003601f168201915b50505050509080600a0180546111a790613792565b80601f01602080910402602001604051908101604052809291908181526020018280546111d390613792565b80156112205780601f106111f557610100808354040283529160200191611220565b820191906000526020600020905b81548152906001019060200180831161120357829003601f168201915b505050600b909301549192505060ff808216916101008104821691620100009091041689565b6000611251836117be565b82106112b35760405162461bcd60e51b815260206004820152602b60248201527f455243373231456e756d657261626c653a206f776e657220696e646578206f7560448201526a74206f6620626f756e647360a81b6064820152608401610827565b506001600160a01b03919091166000908152600660209081526040808320938352929052205490565b3360009081526017602052604090205460ff166112f857600080fd5b6000828152601560205260409020805460ff19168215801591909117909155611353576040518281527f032bc66be43dbccb7487781d168eb7bda224628a3b2c3388bdf69b532a3a1611906020015b60405180910390a15050565b6040518281527ff27b6ce5b2f5e68ddb2fd95a8a909d4ecf1daaac270935fff052feacb24f184290602001611347565b5050565b6113918183612468565b61139a57600080fd5b6108c8838383604051806020016040528060008152506126e5565b60006113c060085490565b82106114235760405162461bcd60e51b815260206004820152602c60248201527f455243373231456e756d657261626c653a20676c6f62616c20696e646578206f60448201526b7574206f6620626f756e647360a01b6064820152608401610827565b60088281548110611436576114366137cc565b90600052602060002001549050919050565b6000818152600260205260408120546001600160a01b0316806106f45760405162461bcd60e51b8152602060048201526018602482015277115490cdcc8c4e881a5b9d985b1a59081d1bdad95b88125160421b6044820152606401610827565b8a851480156114b657508489145b80156114c157508883145b80156114cc57508281145b6114d557600080fd5b60005b61ffff81168c11156117af576012546001600160a01b0316636352211e8e8e61ffff851681811061150b5761150b6137cc565b905060200201356040518263ffffffff1660e01b815260040161153091815260200190565b602060405180830381865afa15801561154d573d6000803e3d6000fd5b505050506040513d601f19601f8201168201806040525081019061157191906138ad565b6001600160a01b0316336001600160a01b03161461158e57600080fd5b6012546001600160a01b03166342966c688e8e61ffff85168181106115b5576115b56137cc565b905060200201356040518263ffffffff1660e01b81526004016115da91815260200190565b600060405180830381600087803b1580156115f457600080fd5b505af1158015611608573d6000803e3d6000fd5b5050505061179d3388888461ffff16818110611626576116266137cc565b905060200281019061163891906138ca565b604051602001611649929190613939565b6040516020818303038152906040528051906020012060001c87878561ffff16818110611678576116786137cc565b905060200281019061168a91906138ca565b8080601f0160208091040260200160405190810160405280939291908181526020018383808284376000920191909152508992508891505061ffff87168181106116d6576116d66137cc565b90506020028101906116e891906138ca565b8080601f016020809104026020016040519081016040528093929190818152602001838380828437600081840152601f19601f820116905080830192505050505050508f8f8761ffff16818110611741576117416137cc565b90506020020160208101906117569190612fdd565b8e8e8861ffff1681811061176c5761176c6137cc565b90506020020160208101906117819190612fdd565b604051806040016040528060648152602001606481525061213f565b806117a78161394d565b9150506114d8565b50505050505050505050505050565b60006001600160a01b0382166118285760405162461bcd60e51b815260206004820152602960248201527f4552433732313a2061646472657373207a65726f206973206e6f7420612076616044820152683634b21037bbb732b960b91b6064820152608401610827565b506001600160a01b031660009081526003602052604090205490565b60003361185460208a018a612fdd565b61186460408b0160208c01612fdd565b33600090815260196020908152604080832083805282528083205460018452928190205481516001600160a01b039097169287019290925260ff948516908601529183166060850152821660808401521660a082015260c00160408051601f19818403018152908290528051602090910120600f5463823ac37360e01b835290925073__$814b009df1eea0617c5279b3ba0333b56a$__9163823ac3739161191e9185918c918c916001600160a01b03169060040161396e565b602060405180830381865af415801561193b573d6000803e3d6000fd5b505050506040513d601f19601f8201168201806040525081019061195f9190613836565b61196857600080fd5b600061197a60408a0160208b01612fdd565b61198760208b018b612fdd565b61199191906137f8565b60ff16905084811480156119a8575061ffff811683145b6119b157600080fd5b6119be60208a018a612fdd565b336000908152601960209081526040808320838052909152812080549091906119eb90849060ff166137f8565b92506101000a81548160ff021916908360ff16021790555088600160028110611a1657611a166137cc565b602002016020810190611a299190612fdd565b3360009081526019602090815260408083206001845290915281208054909190611a5790849060ff166137f8565b92506101000a81548160ff021916908360ff16021790555060005b8161ffff168161ffff161015611bee5760145460408051336020820181905291810192909252611bdc916060016040516020818303038152906040528051906020012060001c89898561ffff16818110611ace57611ace6137cc565b9050602002810190611ae091906138ca565b8080601f0160208091040260200160405190810160405280939291908181526020018383808284376000920191909152508b92508a91505061ffff8716818110611b2c57611b2c6137cc565b9050602002810190611b3e91906138ca565b8080601f016020809104026020016040519081016040528093929190818152602001838380828437600081840152601f19601f820116905080830192505050505050508e600060028110611b9457611b946137cc565b602002016020810190611ba79190612fdd565b60ff168661ffff1610611bbb576001611bbe565b60005b6000604051806040016040528060648152602001606481525061213f565b80611be68161394d565b915050611a72565b50505050505050505050565b600c8160028110611c0a57600080fd5b60209182820401919006915054906101000a900460ff1681565b600e546001600160a01b03163314611c3b57600080fd5b601180546001600160a01b0319166001600160a01b0392909216919091179055565b611c6685611448565b6001600160a01b0316336001600160a01b031614611c8357600080fd5b838360148781548110611c9857611c986137cc565b90600052602060002090600c02016009019190611cb6929190612da4565b50818160148781548110611ccc57611ccc6137cc565b90600052602060002090600c0201600a019190611cea929190612da4565b506000858152601a60205260408120805460019290611d1090849063ffffffff166139a1565b92506101000a81548163ffffffff021916908363ffffffff1602179055506001600d60008282829054906101000a900463ffffffff16611d5091906139a1565b92506101000a81548163ffffffff021916908363ffffffff1602179055505050505050565b60606001805461070990613792565b600e546001600160a01b03163314611d9b57600080fd5b601380546001600160a01b0319166001600160a01b0392909216919091179055565b611383338383612718565b600a8160028110611c0a57600080fd5b611de233836127e6565b611e455760405162461bcd60e51b815260206004820152602e60248201527f4552433732313a2063616c6c6572206973206e6f7420746f6b656e206f776e6560448201526d1c881b9bdc88185c1c1c9bdd995960921b6064820152608401610827565b610ad3848484846126e5565b6000818152600260205260408120546001600160a01b031615156106f4565b6000818152601b60205260409020805460609190611e8d90613792565b80601f0160208091040260200160405190810160405280929190818152602001828054611eb990613792565b8015611f065780601f10611edb57610100808354040283529160200191611f06565b820191906000526020600020905b815481529060010190602001808311611ee957829003601f168201915b50505050509050919050565b6000611f1c612e9c565b600080606080600073__$e3f25991b6fd475e3688a1604a06d4e866$__636ddc5dfa60148a81548110611f5157611f516137cc565b90600052602060002090600c0201611f688b611448565b6040516001600160e01b031960e085901b16815260048101929092526001600160a01b03166024820152604401600060405180830381865af4158015611fb2573d6000803e3d6000fd5b505050506040513d6000823e601f3d908101601f19168201604052611fda9190810190613a20565b959e949d50929b5090995097509550909350915050565b6060604051806080016040528060428152602001613c2060429139905090565b600e546001600160a01b0316331461202857600080fd5b600e80546001600160a01b0319166001600160a01b0392909216919091179055565b60006001600160e01b0319821663780e9d6360e01b14806106f457506106f482612865565b6000818152600260205260409020546001600160a01b03166120ce5760405162461bcd60e51b8152602060048201526018602482015277115490cdcc8c4e881a5b9d985b1a59081d1bdad95b88125160421b6044820152606401610827565b50565b600081815260046020526040902080546001600160a01b0319166001600160a01b038416908117909155819061210682611448565b6001600160a01b03167f8c5be1e5ebec7d5bd14f71427d1e84f3dd0314c0f7b2291e5b200ac8c7c3b92560405160405180910390a45050565b600a61214a886117be565b1061215457600080fd5b80516000908190819060640361217a5761216e8987612651565b91945092509050612188565b505081516020830151909150875b60145460115460ff881660018114916000916001600160a01b03909116906322993745908690600c90600281106121c1576121c16137cc565b60208104909101546040516001600160e01b031960e086901b168152600481019390935260ff601f9092166101000a9004811660248301528b166044820152841515606482015260840160c060405180830381865afa158015612228573d6000803e3d6000fd5b505050506040513d601f19601f8201168201806040525081019061224c9190613853565b905060146040518061012001604052808781526020018881526020018381526020018581526020018d81526020018c8152602001600c8c60ff1660028110612296576122966137cc565b60208082049092015460ff601f9092166101000a9004811683528c16828201528515156040928301528354600181810186556000958652948290208451600c90920201908155838201519481019490945582820151805160028601558082015160038601559182015160048501556060808301516005860155608080840151600687015560a090930151600786015583015160088501559082015180519293926123469260098501920190612e28565b5060a0820151805161236291600a840191602090910190612e28565b5060c0820151600b909101805460e0840151610100948501511515620100000262ff00001960ff92831690960261ffff19909316919094161717929092161790556123ad8d846128b5565b73__$e3f25991b6fd475e3688a1604a06d4e866$__63d8d02d30848789600c8e60ff16600281106123e0576123e06137cc565b60208104919091015460405160e087901b6001600160e01b0319168152600481019590955260248501939093526044840191909152601f166101000a900460ff16606482015260840160006040518083038186803b15801561244157600080fd5b505af4158015612455573d6000803e3d6000fd5b5050505050505050505050505050505050565b600061247433846127e6565b80156124885750600a612486836117be565b105b80156124a3575060008381526015602052604090205460ff16155b9392505050565b826001600160a01b03166124bd82611448565b6001600160a01b0316146125215760405162461bcd60e51b815260206004820152602560248201527f4552433732313a207472616e736665722066726f6d20696e636f72726563742060448201526437bbb732b960d91b6064820152608401610827565b6001600160a01b0382166125835760405162461bcd60e51b8152602060048201526024808201527f4552433732313a207472616e7366657220746f20746865207a65726f206164646044820152637265737360e01b6064820152608401610827565b61258e8383836128cf565b6125996000826120d1565b6001600160a01b03831660009081526003602052604081208054600192906125c2908490613b0c565b90915550506001600160a01b03821660009081526003602052604081208054600192906125f0908490613b23565b909155505060008181526002602052604080822080546001600160a01b0319166001600160a01b0386811691821790925591518493918716917fddf252ad1be2c89b69c2b068fc378daa952ba7f163c4a11628f55a4df523b3ef91a4505050565b60008060008060186000600c8760ff1660028110612671576126716137cc565b60208082049092015460ff601f9092166101000a90048116835290820192909252604001600020546126a4911687613b3b565b905060006126b3601f88613b3b565b6126be906041613b23565b9050600060ff8716156126d4578660ff166126d6565b875b92989197509195509350505050565b6126f08484846124aa565b6126fc848484846128da565b610ad35760405162461bcd60e51b815260040161082790613b5d565b816001600160a01b0316836001600160a01b0316036127795760405162461bcd60e51b815260206004820152601960248201527f4552433732313a20617070726f766520746f2063616c6c6572000000000000006044820152606401610827565b6001600160a01b03838116600081815260056020908152604080832094871680845294825291829020805460ff191686151590811790915591519182527f17307eab39ab6107e8899845ad3d59bd9653f200f220920489ca2b5937696c31910160405180910390a3505050565b6000806127f283611448565b9050806001600160a01b0316846001600160a01b0316148061283957506001600160a01b0380821660009081526005602090815260408083209388168352929052205460ff165b8061285d5750836001600160a01b03166128528461078c565b6001600160a01b0316145b949350505050565b60006001600160e01b031982166380ac58cd60e01b148061289657506001600160e01b03198216635b5e139f60e01b145b806106f457506301ffc9a760e01b6001600160e01b03198316146106f4565b6113838282604051806020016040528060008152506129db565b6108c8838383612a0e565b60006001600160a01b0384163b156129d057604051630a85bd0160e11b81526001600160a01b0385169063150b7a029061291e903390899088908890600401613baf565b6020604051808303816000875af1925050508015612959575060408051601f3d908101601f1916820190925261295691810190613bec565b60015b6129b6573d808015612987576040519150601f19603f3d011682016040523d82523d6000602084013e61298c565b606091505b5080516000036129ae5760405162461bcd60e51b815260040161082790613b5d565b805181602001fd5b6001600160e01b031916630a85bd0160e11b14905061285d565b506001949350505050565b6129e58383612ac6565b6129f260008484846128da565b6108c85760405162461bcd60e51b815260040161082790613b5d565b6001600160a01b038316612a6957612a6481600880546000838152600960205260408120829055600182018355919091527ff3f7a9fe364faab93b216da50a3214154f22a0a2b415b23a84c8169e8b636ee30155565b612a8c565b816001600160a01b0316836001600160a01b031614612a8c57612a8c8382612c14565b6001600160a01b038216612aa3576108c881612cb1565b826001600160a01b0316826001600160a01b0316146108c8576108c88282612d60565b6001600160a01b038216612b1c5760405162461bcd60e51b815260206004820181905260248201527f4552433732313a206d696e7420746f20746865207a65726f20616464726573736044820152606401610827565b6000818152600260205260409020546001600160a01b031615612b815760405162461bcd60e51b815260206004820152601c60248201527f4552433732313a20746f6b656e20616c7265616479206d696e746564000000006044820152606401610827565b612b8d600083836128cf565b6001600160a01b0382166000908152600360205260408120805460019290612bb6908490613b23565b909155505060008181526002602052604080822080546001600160a01b0319166001600160a01b03861690811790915590518392907fddf252ad1be2c89b69c2b068fc378daa952ba7f163c4a11628f55a4df523b3ef908290a45050565b60006001612c21846117be565b612c2b9190613b0c565b600083815260076020526040902054909150808214612c7e576001600160a01b03841660009081526006602090815260408083208584528252808320548484528184208190558352600790915290208190555b5060009182526007602090815260408084208490556001600160a01b039094168352600681528383209183525290812055565b600854600090612cc390600190613b0c565b60008381526009602052604081205460088054939450909284908110612ceb57612ceb6137cc565b906000526020600020015490508060088381548110612d0c57612d0c6137cc565b6000918252602080832090910192909255828152600990915260408082208490558582528120556008805480612d4457612d44613c09565b6001900381819060005260206000200160009055905550505050565b6000612d6b836117be565b6001600160a01b039093166000908152600660209081526040808320868452825280832085905593825260079052919091209190915550565b828054612db090613792565b90600052602060002090601f016020900481019282612dd25760008555612e18565b82601f10612deb5782800160ff19823516178555612e18565b82800160010185558215612e18579182015b82811115612e18578235825591602001919060010190612dfd565b50612e24929150612eba565b5090565b828054612e3490613792565b90600052602060002090601f016020900481019282612e565760008555612e18565b82601f10612e6f57805160ff1916838001178555612e18565b82800160010185558215612e18579182015b82811115612e18578251825591602001919060010190612e81565b6040518060c001604052806006906020820280368337509192915050565b5b80821115612e245760008155600101612ebb565b6001600160e01b0319811681146120ce57600080fd5b600060208284031215612ef757600080fd5b81356124a381612ecf565b60005b83811015612f1d578181015183820152602001612f05565b83811115610ad35750506000910152565b60008151808452612f46816020860160208601612f02565b601f01601f19169290920160200192915050565b6020815260006124a36020830184612f2e565b600060208284031215612f7f57600080fd5b5035919050565b6001600160a01b03811681146120ce57600080fd5b60008060408385031215612fae57600080fd5b8235612fb981612f86565b946020939093013593505050565b803560ff81168114612fd857600080fd5b919050565b600060208284031215612fef57600080fd5b6124a382612fc7565b60008083601f84011261300a57600080fd5b5081356001600160401b0381111561302157600080fd5b60208301915083602082850101111561303957600080fd5b9250929050565b80604081018310156106f457600080fd5b60008060008060008060a0878903121561306a57600080fd5b863561307581612f86565b955060208701356001600160401b038082111561309157600080fd5b61309d8a838b01612ff8565b909750955060408901359150808211156130b657600080fd5b506130c389828a01612ff8565b90945092506130d790508860608901613040565b90509295509295509295565b6000806000604084860312156130f857600080fd5b8335925060208401356001600160401b0381111561311557600080fd5b61312186828701612ff8565b9497909650939450505050565b60006020828403121561314057600080fd5b81356124a381612f86565b60008060006060848603121561316057600080fd5b833561316b81612f86565b9250602084013561317b81612f86565b929592945050506040919091013590565b6000806040838503121561319f57600080fd5b82356131aa81612f86565b91506131b860208401612fc7565b90509250929050565b600080604083850312156131d457600080fd5b6131aa83612fc7565b60006101c08b83528a60208401528951604084015260208a0151606084015260408a0151608084015260608a015160a084015260808a015160c084015260a08a015160e0840152886101008401528061012084015261323e81840189612f2e565b90508281036101408401526132538188612f2e565b91505061326661016083018660ff169052565b60ff84166101808301528215156101a08301529a9950505050505050505050565b80151581146120ce57600080fd5b600080604083850312156132a857600080fd5b8235915060208301356132ba81613287565b809150509250929050565b60008083601f8401126132d757600080fd5b5081356001600160401b038111156132ee57600080fd5b6020830191508360208260051b850101111561303957600080fd5b60008060008060008060008060008060008060c08d8f03121561332b57600080fd5b6001600160401b038d35111561334057600080fd5b61334d8e8e358f016132c5565b909c509a506001600160401b0360208e0135111561336a57600080fd5b61337a8e60208f01358f016132c5565b909a5098506001600160401b0360408e0135111561339757600080fd5b6133a78e60408f01358f016132c5565b90985096506001600160401b0360608e013511156133c457600080fd5b6133d48e60608f01358f016132c5565b90965094506001600160401b0360808e013511156133f157600080fd5b6134018e60808f01358f016132c5565b90945092506001600160401b0360a08e0135111561341e57600080fd5b61342e8e60a08f01358f016132c5565b81935080925050509295989b509295989b509295989b565b600080600080600080600060a0888a03121561346157600080fd5b61346b8989613040565b965060408801356001600160401b038082111561348757600080fd5b6134938b838c01612ff8565b909850965060608a01359150808211156134ac57600080fd5b6134b88b838c016132c5565b909650945060808a01359150808211156134d157600080fd5b506134de8a828b016132c5565b989b979a50959850939692959293505050565b60008060008060006060868803121561350957600080fd5b8535945060208601356001600160401b038082111561352757600080fd5b61353389838a01612ff8565b9096509450604088013591508082111561354c57600080fd5b5061355988828901612ff8565b969995985093965092949392505050565b6000806040838503121561357d57600080fd5b823561358881612f86565b915060208301356132ba81613287565b634e487b7160e01b600052604160045260246000fd5b60405160c081016001600160401b03811182821017156135d0576135d0613598565b60405290565b604051601f8201601f191681016001600160401b03811182821017156135fe576135fe613598565b604052919050565b60006001600160401b0382111561361f5761361f613598565b50601f01601f191660200190565b6000806000806080858703121561364357600080fd5b843561364e81612f86565b9350602085013561365e81612f86565b92506040850135915060608501356001600160401b0381111561368057600080fd5b8501601f8101871361369157600080fd5b80356136a461369f82613606565b6135d6565b8181528860208385010111156136b957600080fd5b8160208401602083013760006020838301015280935050505092959194509250565b6001600160a01b0388168152600061018060208084018a845b6006811015613711578151835291830191908301906001016136f4565b505050508760e0840152866101008401528061012084015261373581840187612f2e565b905082810361014084015261374a8186612f2e565b91505061ffff831661016083015298975050505050505050565b6000806040838503121561377757600080fd5b823561378281612f86565b915060208301356132ba81612f86565b600181811c908216806137a657607f821691505b6020821081036137c657634e487b7160e01b600052602260045260246000fd5b50919050565b634e487b7160e01b600052603260045260246000fd5b634e487b7160e01b600052601160045260246000fd5b600060ff821660ff84168060ff03821115613815576138156137e2565b019392505050565b60006020828403121561382f57600080fd5b5051919050565b60006020828403121561384857600080fd5b81516124a381613287565b600060c0828403121561386557600080fd5b61386d6135ae565b825181526020830151602082015260408301516040820152606083015160608201526080830151608082015260a083015160a08201528091505092915050565b6000602082840312156138bf57600080fd5b81516124a381612f86565b6000808335601e198436030181126138e157600080fd5b8301803591506001600160401b038211156138fb57600080fd5b60200191503681900382131561303957600080fd5b81835281816020850137506000828201602090810191909152601f909101601f19169091010190565b60208152600061285d602083018486613910565b600061ffff808316818103613964576139646137e2565b6001019392505050565b848152606060208201526000613988606083018587613910565b905060018060a01b038316604083015295945050505050565b600063ffffffff8083168185168083038211156139c0576139c06137e2565b01949350505050565b600082601f8301126139da57600080fd5b81516139e861369f82613606565b8181528460208386010111156139fd57600080fd5b61285d826020830160208701612f02565b805161ffff81168114612fd857600080fd5b6000806000806000806000610180888a031215613a3c57600080fd5b8751613a4781612f86565b96506020603f89018a13613a5a57600080fd5b613a626135ae565b8060e08b018c811115613a7457600080fd5b838c015b81811015613a8f5780518452928401928401613a78565b50819950805198505050505061010088015193506101208801516001600160401b0380821115613abe57600080fd5b613aca8b838c016139c9565b94506101408a0151915080821115613ae157600080fd5b50613aee8a828b016139c9565b925050613afe6101608901613a0e565b905092959891949750929550565b600082821015613b1e57613b1e6137e2565b500390565b60008219821115613b3657613b366137e2565b500190565b600082613b5857634e487b7160e01b600052601260045260246000fd5b500690565b60208082526032908201527f4552433732313a207472616e7366657220746f206e6f6e20455243373231526560408201527131b2b4bb32b91034b6b83632b6b2b73a32b960711b606082015260800190565b6001600160a01b0385811682528416602082015260408101839052608060608201819052600090613be290830184612f2e565b9695505050505050565b600060208284031215613bfe57600080fd5b81516124a381612ecf565b634e487b7160e01b600052603160045260246000fdfe697066733a2f2f62616679626569667a746a73347975776871693762767a68773275666b73796e6b6f697778737332676e7469366a347632356c3769777a37793434a26469706673582212207a95bda13206d57f78f2f3d9e5b872c36e9d4a3a14abac2aff5a23fa583e2ff964736f6c634300080d0033","linkReferences":{"src/FighterOps.sol":{"FighterOps":[{"start":8837,"length":20},{"start":9998,"length":20}]},"src/Verification.sol":{"Verification":[{"start":7239,"length":20}]}}},"methodIdentifiers":{"MAX_FIGHTERS_ALLOWED()":"282221a6","addStaker(address)":"2466696e","approve(address,uint256)":"095ea7b3","balanceOf(address)":"70a08231","claimFighters(uint8[2],bytes,string[],string[])":"75464d7e","contractURI()":"e8a3d485","doesTokenExist(uint256)":"c3738f3f","fighterStaked(uint256)":"7a1bc46f","fighters(uint256)":"2e6b221d","generation(uint256)":"7d71dc35","getAllFighterInfo(uint256)":"cf106fe7","getApproved(uint256)":"081812fc","hasStakerRole(address)":"61e6ce3b","incrementGeneration(uint8)":"0c534f4c","instantiateAIArenaHelperContract(address)":"860b5bda","instantiateMintpassContract(address)":"25b9eefc","instantiateNeuronContract(address)":"9d3ba615","isApprovedForAll(address,address)":"e985e9c5","maxRerollsAllowed(uint256)":"b2ffc22d","mintFromMergingPool(address,string,string,uint256[2])":"115822fe","name()":"06fdde03","nftsClaimed(address,uint8)":"24c7f5db","numElements(uint8)":"21411197","numRerolls(uint256)":"40de1fb1","numTrained(uint256)":"3f041e22","ownerOf(uint256)":"6352211e","reRoll(uint8,uint8)":"2d453d67","redeemMintPass(uint256[],uint8[],uint8[],string[],string[],string[])":"709538b8","rerollCost()":"c9a2a5cc","safeTransferFrom(address,address,uint256)":"42842e0e","safeTransferFrom(address,address,uint256,bytes)":"b88d4fde","setApprovalForAll(address,bool)":"a22cb465","setMergingPoolAddress(address)":"231d90ca","setTokenURI(uint256,string)":"162094c4","supportsInterface(bytes4)":"01ffc9a7","symbol()":"95d89b41","tokenByIndex(uint256)":"4f6ccce7","tokenOfOwnerByIndex(address,uint256)":"2f745c59","tokenURI(uint256)":"c87b56dd","totalNumTrained()":"a0e75a1f","totalSupply()":"18160ddd","transferFrom(address,address,uint256)":"23b872dd","transferOwnership(address)":"f2fde38b","treasuryAddress()":"c5f956af","updateFighterStaking(uint256,bool)":"36f4104d","updateModel(uint256,string,string)":"95298971"},"id":23}