{"abi":[{"type":"constructor","inputs":[{"name":"ownerAddress","type":"address","internalType":"address"},{"name":"gameItemsContractAddress","type":"address","internalType":"address"}],"stateMutability":"nonpayable"},{"type":"function","name":"adjustAdminAccess","inputs":[{"name":"adminAddress","type":"address","internalType":"address"},{"name":"access","type":"bool","internalType":"bool"}],"outputs":[],"stateMutability":"nonpayable"},{"type":"function","name":"adjustAllowedVoltageSpenders","inputs":[{"name":"allowedVoltageSpender","type":"address","internalType":"address"},{"name":"allowed","type":"bool","internalType":"bool"}],"outputs":[],"stateMutability":"nonpayable"},{"type":"function","name":"allowedVoltageSpenders","inputs":[{"name":"","type":"address","internalType":"address"}],"outputs":[{"name":"","type":"bool","internalType":"bool"}],"stateMutability":"view"},{"type":"function","name":"isAdmin","inputs":[{"name":"","type":"address","internalType":"address"}],"outputs":[{"name":"","type":"bool","internalType":"bool"}],"stateMutability":"view"},{"type":"function","name":"ownerVoltage","inputs":[{"name":"","type":"address","internalType":"address"}],"outputs":[{"name":"","type":"uint8","internalType":"uint8"}],"stateMutability":"view"},{"type":"function","name":"ownerVoltageReplenishTime","inputs":[{"name":"","type":"address","internalType":"address"}],"outputs":[{"name":"","type":"uint32","internalType":"uint32"}],"stateMutability":"view"},{"type":"function","name":"spendVoltage","inputs":[{"name":"spender","type":"address","internalType":"address"},{"name":"voltageSpent","type":"uint8","internalType":"uint8"}],"outputs":[],"stateMutability":"nonpayable"},{"type":"function","name":"transferOwnership","inputs":[{"name":"newOwnerAddress","type":"address","internalType":"address"}],"outputs":[],"stateMutability":"nonpayable"},{"type":"function","name":"useVoltageBattery","inputs":[],"outputs":[],"stateMutability":"nonpayable"},{"type":"event","name":"VoltageRemaining","inputs":[{"name":"spender","type":"address","indexed":false,"internalType":"address"},{"name":"voltage","type":"uint8","indexed":false,"internalType":"uint8"}],"anonymous":false}],"bytecode":{"object":"0x608060405234801561001057600080fd5b5060405161076438038061076483398101604081905261002f91610098565b600080546001600160a01b039384166001600160a01b031991821681178355600180549490951693909116929092178355908152600560205260409020805460ff191690911790556100cb565b80516001600160a01b038116811461009357600080fd5b919050565b600080604083850312156100ab57600080fd5b6100b48361007c565b91506100c26020840161007c565b90509250929050565b61068a806100da6000396000f3fe608060405234801561001057600080fd5b50600436106100935760003560e01c80635dc98d9b116100665780635dc98d9b1461013d57806378c9edc814610145578063bfedc6ca14610158578063e82f0c971461016b578063f2fde38b146101a657600080fd5b806324d7806c1461009857806347c5471a146100d057806355f2b04e14610105578063590742fb14610128575b600080fd5b6100bb6100a636600461055a565b60056020526000908152604090205460ff1681565b60405190151581526020015b60405180910390f35b6100f36100de36600461055a565b60046020526000908152604090205460ff1681565b60405160ff90911681526020016100c7565b6100bb61011336600461055a565b60026020526000908152604090205460ff1681565b61013b61013636600461057c565b6101b9565b005b61013b610200565b61013b6101533660046105b8565b610360565b61013b61016636600461057c565b610460565b61019161017936600461055a565b60036020526000908152604090205463ffffffff1681565b60405163ffffffff90911681526020016100c7565b61013b6101b436600461055a565b6104a2565b3360009081526005602052604090205460ff166101d557600080fd5b6001600160a01b03919091166000908152600260205260409020805460ff1916911515919091179055565b33600090815260046020526040902054606460ff9091161061022157600080fd5b600154604051627eeac760e11b8152336004820152600060248201819052916001600160a01b03169062fdd58e90604401602060405180830381865afa15801561026f573d6000803e3d6000fd5b505050506040513d601f19601f8201168201806040525081019061029391906105ea565b1161029d57600080fd5b60018054604051637a94c56560e11b81523360048201526000602482015260448101929092526001600160a01b03169063f5298aca90606401600060405180830381600087803b1580156102f057600080fd5b505af1158015610304573d6000803e3d6000fd5b505033600081815260046020908152604091829020805460ff191660649081179091558251938452908301527f7645479c14bed5a5501bdbf7ba775fcd557834f2db2948ecc264449de8d5495a935001905060405180910390a1565b6001600160a01b03821633148061038657503360009081526002602052604090205460ff165b61038f57600080fd5b6001600160a01b0382166000908152600360205260409020544263ffffffff909116116103bf576103bf826104db565b6001600160a01b038216600090815260046020526040812080548392906103ea90849060ff16610619565b82546101009290920a60ff8181021990931691831602179091556001600160a01b038416600081815260046020908152604091829020548251938452909316928201929092527f7645479c14bed5a5501bdbf7ba775fcd557834f2db2948ecc264449de8d5495a92500160405180910390a15050565b6000546001600160a01b0316331461047757600080fd5b6001600160a01b03919091166000908152600560205260409020805460ff1916911515919091179055565b6000546001600160a01b031633146104b957600080fd5b600080546001600160a01b0319166001600160a01b0392909216919091179055565b6001600160a01b0381166000908152600460205260409020805460ff1916606417905561050b426201518061063c565b6001600160a01b03919091166000908152600360205260409020805463ffffffff191663ffffffff909216919091179055565b80356001600160a01b038116811461055557600080fd5b919050565b60006020828403121561056c57600080fd5b6105758261053e565b9392505050565b6000806040838503121561058f57600080fd5b6105988361053e565b9150602083013580151581146105ad57600080fd5b809150509250929050565b600080604083850312156105cb57600080fd5b6105d48361053e565b9150602083013560ff811681146105ad57600080fd5b6000602082840312156105fc57600080fd5b5051919050565b634e487b7160e01b600052601160045260246000fd5b600060ff821660ff84168082101561063357610633610603565b90039392505050565b6000821982111561064f5761064f610603565b50019056fea26469706673582212207b009e1effa12c996c325b6ee7012b931df0b4646bb21bbea607a829b7a3feaf64736f6c634300080d0033","linkReferences":{}},"methodIdentifiers":{"adjustAdminAccess(address,bool)":"bfedc6ca","adjustAllowedVoltageSpenders(address,bool)":"590742fb","allowedVoltageSpenders(address)":"55f2b04e","isAdmin(address)":"24d7806c","ownerVoltage(address)":"47c5471a","ownerVoltageReplenishTime(address)":"e82f0c97","spendVoltage(address,uint8)":"78c9edc8","transferOwnership(address)":"f2fde38b","useVoltageBattery()":"5dc98d9b"},"id":32}