{"abi":[{"type":"constructor","inputs":[{"name":"ownerAddress","type":"address","internalType":"address"},{"name":"treasuryAddress_","type":"address","internalType":"address"},{"name":"contributorAddress","type":"address","internalType":"address"}],"stateMutability":"nonpayable"},{"type":"function","name":"DEFAULT_ADMIN_ROLE","inputs":[],"outputs":[{"name":"","type":"bytes32","internalType":"bytes32"}],"stateMutability":"view"},{"type":"function","name":"INITIAL_CONTRIBUTOR_MINT","inputs":[],"outputs":[{"name":"","type":"uint256","internalType":"uint256"}],"stateMutability":"view"},{"type":"function","name":"INITIAL_TREASURY_MINT","inputs":[],"outputs":[{"name":"","type":"uint256","internalType":"uint256"}],"stateMutability":"view"},{"type":"function","name":"MAX_SUPPLY","inputs":[],"outputs":[{"name":"","type":"uint256","internalType":"uint256"}],"stateMutability":"view"},{"type":"function","name":"MINTER_ROLE","inputs":[],"outputs":[{"name":"","type":"bytes32","internalType":"bytes32"}],"stateMutability":"view"},{"type":"function","name":"SPENDER_ROLE","inputs":[],"outputs":[{"name":"","type":"bytes32","internalType":"bytes32"}],"stateMutability":"view"},{"type":"function","name":"STAKER_ROLE","inputs":[],"outputs":[{"name":"","type":"bytes32","internalType":"bytes32"}],"stateMutability":"view"},{"type":"function","name":"addMinter","inputs":[{"name":"newMinterAddress","type":"address","internalType":"address"}],"outputs":[],"stateMutability":"nonpayable"},{"type":"function","name":"addSpender","inputs":[{"name":"newSpenderAddress","type":"address","internalType":"address"}],"outputs":[],"stateMutability":"nonpayable"},{"type":"function","name":"addStaker","inputs":[{"name":"newStakerAddress","type":"address","internalType":"address"}],"outputs":[],"stateMutability":"nonpayable"},{"type":"function","name":"adjustAdminAccess","inputs":[{"name":"adminAddress","type":"address","internalType":"address"},{"name":"access","type":"bool","internalType":"bool"}],"outputs":[],"stateMutability":"nonpayable"},{"type":"function","name":"allowance","inputs":[{"name":"owner","type":"address","internalType":"address"},{"name":"spender","type":"address","internalType":"address"}],"outputs":[{"name":"","type":"uint256","internalType":"uint256"}],"stateMutability":"view"},{"type":"function","name":"approve","inputs":[{"name":"spender","type":"address","internalType":"address"},{"name":"amount","type":"uint256","internalType":"uint256"}],"outputs":[{"name":"","type":"bool","internalType":"bool"}],"stateMutability":"nonpayable"},{"type":"function","name":"approveSpender","inputs":[{"name":"account","type":"address","internalType":"address"},{"name":"amount","type":"uint256","internalType":"uint256"}],"outputs":[],"stateMutability":"nonpayable"},{"type":"function","name":"approveStaker","inputs":[{"name":"owner","type":"address","internalType":"address"},{"name":"spender","type":"address","internalType":"address"},{"name":"amount","type":"uint256","internalType":"uint256"}],"outputs":[],"stateMutability":"nonpayable"},{"type":"function","name":"balanceOf","inputs":[{"name":"account","type":"address","internalType":"address"}],"outputs":[{"name":"","type":"uint256","internalType":"uint256"}],"stateMutability":"view"},{"type":"function","name":"burn","inputs":[{"name":"amount","type":"uint256","internalType":"uint256"}],"outputs":[],"stateMutability":"nonpayable"},{"type":"function","name":"burnFrom","inputs":[{"name":"account","type":"address","internalType":"address"},{"name":"amount","type":"uint256","internalType":"uint256"}],"outputs":[],"stateMutability":"nonpayable"},{"type":"function","name":"claim","inputs":[{"name":"amount","type":"uint256","internalType":"uint256"}],"outputs":[],"stateMutability":"nonpayable"},{"type":"function","name":"decimals","inputs":[],"outputs":[{"name":"","type":"uint8","internalType":"uint8"}],"stateMutability":"view"},{"type":"function","name":"decreaseAllowance","inputs":[{"name":"spender","type":"address","internalType":"address"},{"name":"subtractedValue","type":"uint256","internalType":"uint256"}],"outputs":[{"name":"","type":"bool","internalType":"bool"}],"stateMutability":"nonpayable"},{"type":"function","name":"getRoleAdmin","inputs":[{"name":"role","type":"bytes32","internalType":"bytes32"}],"outputs":[{"name":"","type":"bytes32","internalType":"bytes32"}],"stateMutability":"view"},{"type":"function","name":"grantRole","inputs":[{"name":"role","type":"bytes32","internalType":"bytes32"},{"name":"account","type":"address","internalType":"address"}],"outputs":[],"stateMutability":"nonpayable"},{"type":"function","name":"hasRole","inputs":[{"name":"role","type":"bytes32","internalType":"bytes32"},{"name":"account","type":"address","internalType":"address"}],"outputs":[{"name":"","type":"bool","internalType":"bool"}],"stateMutability":"view"},{"type":"function","name":"increaseAllowance","inputs":[{"name":"spender","type":"address","internalType":"address"},{"name":"addedValue","type":"uint256","internalType":"uint256"}],"outputs":[{"name":"","type":"bool","internalType":"bool"}],"stateMutability":"nonpayable"},{"type":"function","name":"isAdmin","inputs":[{"name":"","type":"address","internalType":"address"}],"outputs":[{"name":"","type":"bool","internalType":"bool"}],"stateMutability":"view"},{"type":"function","name":"mint","inputs":[{"name":"to","type":"address","internalType":"address"},{"name":"amount","type":"uint256","internalType":"uint256"}],"outputs":[],"stateMutability":"nonpayable"},{"type":"function","name":"name","inputs":[],"outputs":[{"name":"","type":"string","internalType":"string"}],"stateMutability":"view"},{"type":"function","name":"renounceRole","inputs":[{"name":"role","type":"bytes32","internalType":"bytes32"},{"name":"account","type":"address","internalType":"address"}],"outputs":[],"stateMutability":"nonpayable"},{"type":"function","name":"revokeRole","inputs":[{"name":"role","type":"bytes32","internalType":"bytes32"},{"name":"account","type":"address","internalType":"address"}],"outputs":[],"stateMutability":"nonpayable"},{"type":"function","name":"setupAirdrop","inputs":[{"name":"recipients","type":"address[]","internalType":"address[]"},{"name":"amounts","type":"uint256[]","internalType":"uint256[]"}],"outputs":[],"stateMutability":"nonpayable"},{"type":"function","name":"supportsInterface","inputs":[{"name":"interfaceId","type":"bytes4","internalType":"bytes4"}],"outputs":[{"name":"","type":"bool","internalType":"bool"}],"stateMutability":"view"},{"type":"function","name":"symbol","inputs":[],"outputs":[{"name":"","type":"string","internalType":"string"}],"stateMutability":"view"},{"type":"function","name":"totalSupply","inputs":[],"outputs":[{"name":"","type":"uint256","internalType":"uint256"}],"stateMutability":"view"},{"type":"function","name":"transfer","inputs":[{"name":"to","type":"address","internalType":"address"},{"name":"amount","type":"uint256","internalType":"uint256"}],"outputs":[{"name":"","type":"bool","internalType":"bool"}],"stateMutability":"nonpayable"},{"type":"function","name":"transferFrom","inputs":[{"name":"from","type":"address","internalType":"address"},{"name":"to","type":"address","internalType":"address"},{"name":"amount","type":"uint256","internalType":"uint256"}],"outputs":[{"name":"","type":"bool","internalType":"bool"}],"stateMutability":"nonpayable"},{"type":"function","name":"transferOwnership","inputs":[{"name":"newOwnerAddress","type":"address","internalType":"address"}],"outputs":[],"stateMutability":"nonpayable"},{"type":"function","name":"treasuryAddress","inputs":[],"outputs":[{"name":"","type":"address","internalType":"address"}],"stateMutability":"view"},{"type":"event","name":"Approval","inputs":[{"name":"owner","type":"address","indexed":true,"internalType":"address"},{"name":"spender","type":"address","indexed":true,"internalType":"address"},{"name":"value","type":"uint256","indexed":false,"internalType":"uint256"}],"anonymous":false},{"type":"event","name":"RoleAdminChanged","inputs":[{"name":"role","type":"bytes32","indexed":true,"internalType":"bytes32"},{"name":"previousAdminRole","type":"bytes32","indexed":true,"internalType":"bytes32"},{"name":"newAdminRole","type":"bytes32","indexed":true,"internalType":"bytes32"}],"anonymous":false},{"type":"event","name":"RoleGranted","inputs":[{"name":"role","type":"bytes32","indexed":true,"internalType":"bytes32"},{"name":"account","type":"address","indexed":true,"internalType":"address"},{"name":"sender","type":"address","indexed":true,"internalType":"address"}],"anonymous":false},{"type":"event","name":"RoleRevoked","inputs":[{"name":"role","type":"bytes32","indexed":true,"internalType":"bytes32"},{"name":"account","type":"address","indexed":true,"internalType":"address"},{"name":"sender","type":"address","indexed":true,"internalType":"address"}],"anonymous":false},{"type":"event","name":"TokensClaimed","inputs":[{"name":"user","type":"address","indexed":false,"internalType":"address"},{"name":"amount","type":"uint256","indexed":false,"internalType":"uint256"}],"anonymous":false},{"type":"event","name":"TokensMinted","inputs":[{"name":"user","type":"address","indexed":false,"internalType":"address"},{"name":"amount","type":"uint256","indexed":false,"internalType":"uint256"}],"anonymous":false},{"type":"event","name":"Transfer","inputs":[{"name":"from","type":"address","indexed":true,"internalType":"address"},{"name":"to","type":"address","indexed":true,"internalType":"address"},{"name":"value","type":"uint256","indexed":false,"internalType":"uint256"}],"anonymous":false}],"bytecode":{"object":"0x60806040523480156200001157600080fd5b5060405162001e7238038062001e728339810160408190526200003491620002cc565b604051806040016040528060068152602001652732bab937b760d11b8152506040518060400160405280600381526020016227292760e91b81525081600390805190602001906200008792919062000209565b5080516200009d90600490602084019062000209565b5050600780546001600160a01b03199081166001600160a01b03878116918217909355600680549092168684161782556000908152600860205260409020805460ff1916600117905554620001009250166aa56fa5b99019a5c800000062000121565b62000118816b019d971e4fe8401e7400000062000121565b50505062000379565b6001600160a01b0382166200017c5760405162461bcd60e51b815260206004820152601f60248201527f45524332303a206d696e7420746f20746865207a65726f206164647265737300604482015260640160405180910390fd5b806002600082825462000190919062000316565b90915550506001600160a01b03821660009081526020819052604081208054839290620001bf90849062000316565b90915550506040518181526001600160a01b038316906000907fddf252ad1be2c89b69c2b068fc378daa952ba7f163c4a11628f55a4df523b3ef9060200160405180910390a35050565b82805462000217906200033d565b90600052602060002090601f0160209004810192826200023b576000855562000286565b82601f106200025657805160ff191683800117855562000286565b8280016001018555821562000286579182015b828111156200028657825182559160200191906001019062000269565b506200029492915062000298565b5090565b5b8082111562000294576000815560010162000299565b80516001600160a01b0381168114620002c757600080fd5b919050565b600080600060608486031215620002e257600080fd5b620002ed84620002af565b9250620002fd60208501620002af565b91506200030d60408501620002af565b90509250925092565b600082198211156200033857634e487b7160e01b600052601160045260246000fd5b500190565b600181811c908216806200035257607f821691505b6020821081036200037357634e487b7160e01b600052602260045260246000fd5b50919050565b611ae980620003896000396000f3fe608060405234801561001057600080fd5b50600436106102325760003560e01c806370a0823111610130578063a457c2d7116100b8578063d53913931161007c578063d53913931461051d578063d547741f14610544578063dd62ed3e14610557578063e7e31e7a1461056a578063f2fde38b1461057d57600080fd5b8063a457c2d7146104a6578063a9059cbb146104b9578063ae02dacb146104cc578063bfedc6ca146104df578063c5f956af146104f257600080fd5b80638d9f368b116100ff5780638d9f368b1461045d57806391d148541461047057806395d89b4114610483578063983b2d561461048b578063a217fddf1461049e57600080fd5b806370a08231146103e857806372c16a241461041157806379cc6790146104385780638c7123d61461044b57600080fd5b80632b884621116101be5780633780b3ed116101825780633780b3ed14610375578063379607f51461039c57806339509351146103af57806340c10f19146103c257806342966c68146103d557600080fd5b80632b8846211461031a5780632f2ff15d1461032d578063313ce5671461034057806332cb6b0c1461034f57806336568abe1461036257600080fd5b806318160ddd1161020557806318160ddd1461029c57806323b872dd146102ae5780632466696e146102c1578063248a9ca3146102d457806324d7806c146102f757600080fd5b806301ffc9a71461023757806306fdde031461025f578063080d7c4d14610274578063095ea7b314610289575b600080fd5b61024a6102453660046116b1565b610590565b60405190151581526020015b60405180910390f35b6102676105c7565b6040516102569190611707565b610287610282366004611756565b610659565b005b61024a610297366004611756565b6106fd565b6002545b604051908152602001610256565b61024a6102bc366004611780565b610715565b6102876102cf3660046117bc565b610739565b6102a06102e23660046117d7565b60009081526005602052604090206001015490565b61024a6103053660046117bc565b60086020526000908152604090205460ff1681565b61028761032836600461183c565b61077d565b61028761033b3660046118a8565b610832565b60405160128152602001610256565b6102a06b033b2e3c9fd0803ce800000081565b6102876103703660046118a8565b61085c565b6102a07fb9e206fa2af7ee1331b72ce58b6d938ac810ce9b5cdb65d35ab723fd67badf9e81565b6102876103aa3660046117d7565b6108d6565b61024a6103bd366004611756565b61099e565b6102876103d0366004611756565b6109c0565b6102876103e33660046117d7565b610aca565b6102a06103f63660046117bc565b6001600160a01b031660009081526020819052604090205490565b6102a07f7434c6f201a551bfd17336985361933e0c4935b520dac8a49d937b325f7d5c0a81565b610287610446366004611756565b610ad4565b6102a06aa56fa5b99019a5c800000081565b61028761046b366004611780565b610b67565b61024a61047e3660046118a8565b610c00565b610267610c2b565b6102876104993660046117bc565b610c3a565b6102a0600081565b61024a6104b4366004611756565b610c7b565b61024a6104c7366004611756565b610cf6565b6102a06b019d971e4fe8401e7400000081565b6102876104ed3660046118d4565b610d04565b600654610505906001600160a01b031681565b6040516001600160a01b039091168152602001610256565b6102a07f9f2df0fed2c77648de5860a4cc508cd0818c85b8b8a1ab4ceeef8d981c8956a681565b6102876105523660046118a8565b610d46565b6102a0610565366004611910565b610d6b565b6102876105783660046117bc565b610d96565b61028761058b3660046117bc565b610dd7565b60006001600160e01b03198216637965db0b60e01b14806105c157506301ffc9a760e01b6001600160e01b03198316145b92915050565b6060600380546105d69061193a565b80601f01602080910402602001604051908101604052809291908181526020018280546106029061193a565b801561064f5780601f106106245761010080835404028352916020019161064f565b820191906000526020600020905b81548152906001019060200180831161063257829003601f168201915b5050505050905090565b6106837f7434c6f201a551bfd17336985361933e0c4935b520dac8a49d937b325f7d5c0a33610c00565b6106ee5760405162461bcd60e51b815260206004820152603160248201527f45524332303a206d7573742068617665207370656e64657220726f6c6520746f60448201527020617070726f7665207370656e64696e6760781b60648201526084015b60405180910390fd5b6106f9823383610e10565b5050565b60003361070b818585610e10565b5060019392505050565b600033610723858285610f34565b61072e858585610fae565b506001949350505050565b6007546001600160a01b0316331461075057600080fd5b61077a7fb9e206fa2af7ee1331b72ce58b6d938ac810ce9b5cdb65d35ab723fd67badf9e8261117c565b50565b3360009081526008602052604090205460ff1661079957600080fd5b8281146107a557600080fd5b8260005b818163ffffffff16101561082a57600654610818906001600160a01b0316878763ffffffff85168181106107df576107df611974565b90506020020160208101906107f491906117bc565b86868563ffffffff1681811061080c5761080c611974565b90506020020135610e10565b80610822816119a0565b9150506107a9565b505050505050565b60008281526005602052604090206001015461084d81611186565b6108578383611190565b505050565b6001600160a01b03811633146108cc5760405162461bcd60e51b815260206004820152602f60248201527f416363657373436f6e74726f6c3a2063616e206f6e6c792072656e6f756e636560448201526e103937b632b9903337b91039b2b63360891b60648201526084016106e5565b6106f98282611216565b60065481906108ee906001600160a01b031633610d6b565b101561094a5760405162461bcd60e51b815260206004820152602560248201527f45524332303a20636c61696d20616d6f756e74206578636565647320616c6c6f60448201526477616e636560d81b60648201526084016106e5565b600654610961906001600160a01b03163383610715565b5060408051338152602081018390527f896e034966eaaf1adc54acc0f257056febbd300c9e47182cf761982cf1f5e430910160405180910390a150565b60003361070b8185856109b18383610d6b565b6109bb91906119c3565b610e10565b6b033b2e3c9fd0803ce8000000816109d760025490565b6109e191906119c3565b10610a3e5760405162461bcd60e51b815260206004820152602760248201527f547279696e6720746f206d696e74206d6f7265207468616e20746865206d617860448201526620737570706c7960c81b60648201526084016106e5565b610a687f9f2df0fed2c77648de5860a4cc508cd0818c85b8b8a1ab4ceeef8d981c8956a633610c00565b610ac05760405162461bcd60e51b8152602060048201526024808201527f45524332303a206d7573742068617665206d696e74657220726f6c6520746f206044820152631b5a5b9d60e21b60648201526084016106e5565b6106f9828261127d565b61077a338261135c565b80610adf8333610d6b565b1015610b395760405162461bcd60e51b8152602060048201526024808201527f45524332303a206275726e20616d6f756e74206578636565647320616c6c6f77604482015263616e636560e01b60648201526084016106e5565b600081610b468433610d6b565b610b5091906119db565b9050610b5c838361135c565b610857833383610e10565b610b917fb9e206fa2af7ee1331b72ce58b6d938ac810ce9b5cdb65d35ab723fd67badf9e33610c00565b610bf55760405162461bcd60e51b815260206004820152602f60248201527f45524332303a206d7573742068617665207374616b657220726f6c6520746f2060448201526e617070726f7665207374616b696e6760881b60648201526084016106e5565b610857838383610e10565b60009182526005602090815260408084206001600160a01b0393909316845291905290205460ff1690565b6060600480546105d69061193a565b6007546001600160a01b03163314610c5157600080fd5b61077a7f9f2df0fed2c77648de5860a4cc508cd0818c85b8b8a1ab4ceeef8d981c8956a68261117c565b60003381610c898286610d6b565b905083811015610ce95760405162461bcd60e51b815260206004820152602560248201527f45524332303a2064656372656173656420616c6c6f77616e63652062656c6f77604482015264207a65726f60d81b60648201526084016106e5565b61072e8286868403610e10565b60003361070b818585610fae565b6007546001600160a01b03163314610d1b57600080fd5b6001600160a01b03919091166000908152600860205260409020805460ff1916911515919091179055565b600082815260056020526040902060010154610d6181611186565b6108578383611216565b6001600160a01b03918216600090815260016020908152604080832093909416825291909152205490565b6007546001600160a01b03163314610dad57600080fd5b61077a7f7434c6f201a551bfd17336985361933e0c4935b520dac8a49d937b325f7d5c0a8261117c565b6007546001600160a01b03163314610dee57600080fd5b600780546001600160a01b0319166001600160a01b0392909216919091179055565b6001600160a01b038316610e725760405162461bcd60e51b8152602060048201526024808201527f45524332303a20617070726f76652066726f6d20746865207a65726f206164646044820152637265737360e01b60648201526084016106e5565b6001600160a01b038216610ed35760405162461bcd60e51b815260206004820152602260248201527f45524332303a20617070726f766520746f20746865207a65726f206164647265604482015261737360f01b60648201526084016106e5565b6001600160a01b0383811660008181526001602090815260408083209487168084529482529182902085905590518481527f8c5be1e5ebec7d5bd14f71427d1e84f3dd0314c0f7b2291e5b200ac8c7c3b925910160405180910390a3505050565b6000610f408484610d6b565b90506000198114610fa85781811015610f9b5760405162461bcd60e51b815260206004820152601d60248201527f45524332303a20696e73756666696369656e7420616c6c6f77616e636500000060448201526064016106e5565b610fa88484848403610e10565b50505050565b6001600160a01b0383166110125760405162461bcd60e51b815260206004820152602560248201527f45524332303a207472616e736665722066726f6d20746865207a65726f206164604482015264647265737360d81b60648201526084016106e5565b6001600160a01b0382166110745760405162461bcd60e51b815260206004820152602360248201527f45524332303a207472616e7366657220746f20746865207a65726f206164647260448201526265737360e81b60648201526084016106e5565b6001600160a01b038316600090815260208190526040902054818110156110ec5760405162461bcd60e51b815260206004820152602660248201527f45524332303a207472616e7366657220616d6f756e7420657863656564732062604482015265616c616e636560d01b60648201526084016106e5565b6001600160a01b038085166000908152602081905260408082208585039055918516815290812080548492906111239084906119c3565b92505081905550826001600160a01b0316846001600160a01b03167fddf252ad1be2c89b69c2b068fc378daa952ba7f163c4a11628f55a4df523b3ef8460405161116f91815260200190565b60405180910390a3610fa8565b6106f98282611190565b61077a81336114aa565b61119a8282610c00565b6106f95760008281526005602090815260408083206001600160a01b03851684529091529020805460ff191660011790556111d23390565b6001600160a01b0316816001600160a01b0316837f2f8788117e7eff1d82e926ec794901d17c78024a50270940304540a733656f0d60405160405180910390a45050565b6112208282610c00565b156106f95760008281526005602090815260408083206001600160a01b0385168085529252808320805460ff1916905551339285917ff6391f5c32d9c69d2a47ea670b442974b53935d1edc7fd64eb21e047a839171b9190a45050565b6001600160a01b0382166112d35760405162461bcd60e51b815260206004820152601f60248201527f45524332303a206d696e7420746f20746865207a65726f20616464726573730060448201526064016106e5565b80600260008282546112e591906119c3565b90915550506001600160a01b038216600090815260208190526040812080548392906113129084906119c3565b90915550506040518181526001600160a01b038316906000907fddf252ad1be2c89b69c2b068fc378daa952ba7f163c4a11628f55a4df523b3ef9060200160405180910390a35050565b6001600160a01b0382166113bc5760405162461bcd60e51b815260206004820152602160248201527f45524332303a206275726e2066726f6d20746865207a65726f206164647265736044820152607360f81b60648201526084016106e5565b6001600160a01b038216600090815260208190526040902054818110156114305760405162461bcd60e51b815260206004820152602260248201527f45524332303a206275726e20616d6f756e7420657863656564732062616c616e604482015261636560f01b60648201526084016106e5565b6001600160a01b038316600090815260208190526040812083830390556002805484929061145f9084906119db565b90915550506040518281526000906001600160a01b038516907fddf252ad1be2c89b69c2b068fc378daa952ba7f163c4a11628f55a4df523b3ef9060200160405180910390a3505050565b6114b48282610c00565b6106f9576114cc816001600160a01b0316601461150e565b6114d783602061150e565b6040516020016114e89291906119f2565b60408051601f198184030181529082905262461bcd60e51b82526106e591600401611707565b6060600061151d836002611a67565b6115289060026119c3565b67ffffffffffffffff81111561154057611540611a86565b6040519080825280601f01601f19166020018201604052801561156a576020820181803683370190505b509050600360fc1b8160008151811061158557611585611974565b60200101906001600160f81b031916908160001a905350600f60fb1b816001815181106115b4576115b4611974565b60200101906001600160f81b031916908160001a90535060006115d8846002611a67565b6115e39060016119c3565b90505b600181111561165b576f181899199a1a9b1b9c1cb0b131b232b360811b85600f166010811061161757611617611974565b1a60f81b82828151811061162d5761162d611974565b60200101906001600160f81b031916908160001a90535060049490941c9361165481611a9c565b90506115e6565b5083156116aa5760405162461bcd60e51b815260206004820181905260248201527f537472696e67733a20686578206c656e67746820696e73756666696369656e7460448201526064016106e5565b9392505050565b6000602082840312156116c357600080fd5b81356001600160e01b0319811681146116aa57600080fd5b60005b838110156116f65781810151838201526020016116de565b83811115610fa85750506000910152565b60208152600082518060208401526117268160408501602087016116db565b601f01601f19169190910160400192915050565b80356001600160a01b038116811461175157600080fd5b919050565b6000806040838503121561176957600080fd5b6117728361173a565b946020939093013593505050565b60008060006060848603121561179557600080fd5b61179e8461173a565b92506117ac6020850161173a565b9150604084013590509250925092565b6000602082840312156117ce57600080fd5b6116aa8261173a565b6000602082840312156117e957600080fd5b5035919050565b60008083601f84011261180257600080fd5b50813567ffffffffffffffff81111561181a57600080fd5b6020830191508360208260051b850101111561183557600080fd5b9250929050565b6000806000806040858703121561185257600080fd5b843567ffffffffffffffff8082111561186a57600080fd5b611876888389016117f0565b9096509450602087013591508082111561188f57600080fd5b5061189c878288016117f0565b95989497509550505050565b600080604083850312156118bb57600080fd5b823591506118cb6020840161173a565b90509250929050565b600080604083850312156118e757600080fd5b6118f08361173a565b91506020830135801515811461190557600080fd5b809150509250929050565b6000806040838503121561192357600080fd5b61192c8361173a565b91506118cb6020840161173a565b600181811c9082168061194e57607f821691505b60208210810361196e57634e487b7160e01b600052602260045260246000fd5b50919050565b634e487b7160e01b600052603260045260246000fd5b634e487b7160e01b600052601160045260246000fd5b600063ffffffff8083168181036119b9576119b961198a565b6001019392505050565b600082198211156119d6576119d661198a565b500190565b6000828210156119ed576119ed61198a565b500390565b7f416363657373436f6e74726f6c3a206163636f756e7420000000000000000000815260008351611a2a8160178501602088016116db565b7001034b99036b4b9b9b4b733903937b6329607d1b6017918401918201528351611a5b8160288401602088016116db565b01602801949350505050565b6000816000190483118215151615611a8157611a8161198a565b500290565b634e487b7160e01b600052604160045260246000fd5b600081611aab57611aab61198a565b50600019019056fea2646970667358221220b1063f08a6edd88bde94e650645d9d730424f30ceaaf7a9904bd0e4f5ab41ee164736f6c634300080d0033","linkReferences":{}},"methodIdentifiers":{"DEFAULT_ADMIN_ROLE()":"a217fddf","INITIAL_CONTRIBUTOR_MINT()":"ae02dacb","INITIAL_TREASURY_MINT()":"8c7123d6","MAX_SUPPLY()":"32cb6b0c","MINTER_ROLE()":"d5391393","SPENDER_ROLE()":"72c16a24","STAKER_ROLE()":"3780b3ed","addMinter(address)":"983b2d56","addSpender(address)":"e7e31e7a","addStaker(address)":"2466696e","adjustAdminAccess(address,bool)":"bfedc6ca","allowance(address,address)":"dd62ed3e","approve(address,uint256)":"095ea7b3","approveSpender(address,uint256)":"080d7c4d","approveStaker(address,address,uint256)":"8d9f368b","balanceOf(address)":"70a08231","burn(uint256)":"42966c68","burnFrom(address,uint256)":"79cc6790","claim(uint256)":"379607f5","decimals()":"313ce567","decreaseAllowance(address,uint256)":"a457c2d7","getRoleAdmin(bytes32)":"248a9ca3","grantRole(bytes32,address)":"2f2ff15d","hasRole(bytes32,address)":"91d14854","increaseAllowance(address,uint256)":"39509351","isAdmin(address)":"24d7806c","mint(address,uint256)":"40c10f19","name()":"06fdde03","renounceRole(bytes32,address)":"36568abe","revokeRole(bytes32,address)":"d547741f","setupAirdrop(address[],uint256[])":"2b884621","supportsInterface(bytes4)":"01ffc9a7","symbol()":"95d89b41","totalSupply()":"18160ddd","transfer(address,uint256)":"a9059cbb","transferFrom(address,address,uint256)":"23b872dd","transferOwnership(address)":"f2fde38b","treasuryAddress()":"c5f956af"},"id":28}