{"abi":[{"type":"constructor","inputs":[{"name":"ownerAddress","type":"address","internalType":"address"},{"name":"treasuryAddress_","type":"address","internalType":"address"}],"stateMutability":"nonpayable"},{"type":"function","name":"adjustAdminAccess","inputs":[{"name":"adminAddress","type":"address","internalType":"address"},{"name":"access","type":"bool","internalType":"bool"}],"outputs":[],"stateMutability":"nonpayable"},{"type":"function","name":"adjustTransferability","inputs":[{"name":"tokenId","type":"uint256","internalType":"uint256"},{"name":"transferable","type":"bool","internalType":"bool"}],"outputs":[],"stateMutability":"nonpayable"},{"type":"function","name":"allGameItemAttributes","inputs":[{"name":"","type":"uint256","internalType":"uint256"}],"outputs":[{"name":"name","type":"string","internalType":"string"},{"name":"finiteSupply","type":"bool","internalType":"bool"},{"name":"transferable","type":"bool","internalType":"bool"},{"name":"itemsRemaining","type":"uint256","internalType":"uint256"},{"name":"itemPrice","type":"uint256","internalType":"uint256"},{"name":"dailyAllowance","type":"uint256","internalType":"uint256"}],"stateMutability":"view"},{"type":"function","name":"allowanceRemaining","inputs":[{"name":"","type":"address","internalType":"address"},{"name":"","type":"uint256","internalType":"uint256"}],"outputs":[{"name":"","type":"uint256","internalType":"uint256"}],"stateMutability":"view"},{"type":"function","name":"allowedBurningAddresses","inputs":[{"name":"","type":"address","internalType":"address"}],"outputs":[{"name":"","type":"bool","internalType":"bool"}],"stateMutability":"view"},{"type":"function","name":"balanceOf","inputs":[{"name":"account","type":"address","internalType":"address"},{"name":"id","type":"uint256","internalType":"uint256"}],"outputs":[{"name":"","type":"uint256","internalType":"uint256"}],"stateMutability":"view"},{"type":"function","name":"balanceOfBatch","inputs":[{"name":"accounts","type":"address[]","internalType":"address[]"},{"name":"ids","type":"uint256[]","internalType":"uint256[]"}],"outputs":[{"name":"","type":"uint256[]","internalType":"uint256[]"}],"stateMutability":"view"},{"type":"function","name":"burn","inputs":[{"name":"account","type":"address","internalType":"address"},{"name":"tokenId","type":"uint256","internalType":"uint256"},{"name":"amount","type":"uint256","internalType":"uint256"}],"outputs":[],"stateMutability":"nonpayable"},{"type":"function","name":"contractURI","inputs":[],"outputs":[{"name":"","type":"string","internalType":"string"}],"stateMutability":"pure"},{"type":"function","name":"createGameItem","inputs":[{"name":"name_","type":"string","internalType":"string"},{"name":"tokenURI","type":"string","internalType":"string"},{"name":"finiteSupply","type":"bool","internalType":"bool"},{"name":"transferable","type":"bool","internalType":"bool"},{"name":"itemsRemaining","type":"uint256","internalType":"uint256"},{"name":"itemPrice","type":"uint256","internalType":"uint256"},{"name":"dailyAllowance","type":"uint16","internalType":"uint16"}],"outputs":[],"stateMutability":"nonpayable"},{"type":"function","name":"dailyAllowanceReplenishTime","inputs":[{"name":"","type":"address","internalType":"address"},{"name":"","type":"uint256","internalType":"uint256"}],"outputs":[{"name":"","type":"uint256","internalType":"uint256"}],"stateMutability":"view"},{"type":"function","name":"getAllowanceRemaining","inputs":[{"name":"owner","type":"address","internalType":"address"},{"name":"tokenId","type":"uint256","internalType":"uint256"}],"outputs":[{"name":"","type":"uint256","internalType":"uint256"}],"stateMutability":"view"},{"type":"function","name":"instantiateNeuronContract","inputs":[{"name":"nrnAddress","type":"address","internalType":"address"}],"outputs":[],"stateMutability":"nonpayable"},{"type":"function","name":"isAdmin","inputs":[{"name":"","type":"address","internalType":"address"}],"outputs":[{"name":"","type":"bool","internalType":"bool"}],"stateMutability":"view"},{"type":"function","name":"isApprovedForAll","inputs":[{"name":"account","type":"address","internalType":"address"},{"name":"operator","type":"address","internalType":"address"}],"outputs":[{"name":"","type":"bool","internalType":"bool"}],"stateMutability":"view"},{"type":"function","name":"mint","inputs":[{"name":"tokenId","type":"uint256","internalType":"uint256"},{"name":"quantity","type":"uint256","internalType":"uint256"}],"outputs":[],"stateMutability":"nonpayable"},{"type":"function","name":"name","inputs":[],"outputs":[{"name":"","type":"string","internalType":"string"}],"stateMutability":"view"},{"type":"function","name":"remainingSupply","inputs":[{"name":"tokenId","type":"uint256","internalType":"uint256"}],"outputs":[{"name":"","type":"uint256","internalType":"uint256"}],"stateMutability":"view"},{"type":"function","name":"safeBatchTransferFrom","inputs":[{"name":"from","type":"address","internalType":"address"},{"name":"to","type":"address","internalType":"address"},{"name":"ids","type":"uint256[]","internalType":"uint256[]"},{"name":"amounts","type":"uint256[]","internalType":"uint256[]"},{"name":"data","type":"bytes","internalType":"bytes"}],"outputs":[],"stateMutability":"nonpayable"},{"type":"function","name":"safeTransferFrom","inputs":[{"name":"from","type":"address","internalType":"address"},{"name":"to","type":"address","internalType":"address"},{"name":"tokenId","type":"uint256","internalType":"uint256"},{"name":"amount","type":"uint256","internalType":"uint256"},{"name":"data","type":"bytes","internalType":"bytes"}],"outputs":[],"stateMutability":"nonpayable"},{"type":"function","name":"setAllowedBurningAddresses","inputs":[{"name":"newBurningAddress","type":"address","internalType":"address"}],"outputs":[],"stateMutability":"nonpayable"},{"type":"function","name":"setApprovalForAll","inputs":[{"name":"operator","type":"address","internalType":"address"},{"name":"approved","type":"bool","internalType":"bool"}],"outputs":[],"stateMutability":"nonpayable"},{"type":"function","name":"setTokenURI","inputs":[{"name":"tokenId","type":"uint256","internalType":"uint256"},{"name":"_tokenURI","type":"string","internalType":"string"}],"outputs":[],"stateMutability":"nonpayable"},{"type":"function","name":"supportsInterface","inputs":[{"name":"interfaceId","type":"bytes4","internalType":"bytes4"}],"outputs":[{"name":"","type":"bool","internalType":"bool"}],"stateMutability":"view"},{"type":"function","name":"symbol","inputs":[],"outputs":[{"name":"","type":"string","internalType":"string"}],"stateMutability":"view"},{"type":"function","name":"transferOwnership","inputs":[{"name":"newOwnerAddress","type":"address","internalType":"address"}],"outputs":[],"stateMutability":"nonpayable"},{"type":"function","name":"treasuryAddress","inputs":[],"outputs":[{"name":"","type":"address","internalType":"address"}],"stateMutability":"view"},{"type":"function","name":"uniqueTokensOutstanding","inputs":[],"outputs":[{"name":"","type":"uint256","internalType":"uint256"}],"stateMutability":"view"},{"type":"function","name":"uri","inputs":[{"name":"tokenId","type":"uint256","internalType":"uint256"}],"outputs":[{"name":"","type":"string","internalType":"string"}],"stateMutability":"view"},{"type":"event","name":"ApprovalForAll","inputs":[{"name":"account","type":"address","indexed":true,"internalType":"address"},{"name":"operator","type":"address","indexed":true,"internalType":"address"},{"name":"approved","type":"bool","indexed":false,"internalType":"bool"}],"anonymous":false},{"type":"event","name":"BoughtItem","inputs":[{"name":"buyer","type":"address","indexed":false,"internalType":"address"},{"name":"tokenId","type":"uint256","indexed":false,"internalType":"uint256"},{"name":"quantity","type":"uint256","indexed":false,"internalType":"uint256"}],"anonymous":false},{"type":"event","name":"Locked","inputs":[{"name":"tokenId","type":"uint256","indexed":false,"internalType":"uint256"}],"anonymous":false},{"type":"event","name":"TransferBatch","inputs":[{"name":"operator","type":"address","indexed":true,"internalType":"address"},{"name":"from","type":"address","indexed":true,"internalType":"address"},{"name":"to","type":"address","indexed":true,"internalType":"address"},{"name":"ids","type":"uint256[]","indexed":false,"internalType":"uint256[]"},{"name":"values","type":"uint256[]","indexed":false,"internalType":"uint256[]"}],"anonymous":false},{"type":"event","name":"TransferSingle","inputs":[{"name":"operator","type":"address","indexed":true,"internalType":"address"},{"name":"from","type":"address","indexed":true,"internalType":"address"},{"name":"to","type":"address","indexed":true,"internalType":"address"},{"name":"id","type":"uint256","indexed":false,"internalType":"uint256"},{"name":"value","type":"uint256","indexed":false,"internalType":"uint256"}],"anonymous":false},{"type":"event","name":"URI","inputs":[{"name":"value","type":"string","indexed":false,"internalType":"string"},{"name":"id","type":"uint256","indexed":true,"internalType":"uint256"}],"anonymous":false},{"type":"event","name":"Unlocked","inputs":[{"name":"tokenId","type":"uint256","indexed":false,"internalType":"uint256"}],"anonymous":false}],"bytecode":{"object":"0x60c0604052601360808190527f4149204172656e612047616d65204974656d730000000000000000000000000060a09081526200004091600391906200014c565b506040805180820190915260038082526241474960e81b60209092019182526200006d916004916200014c565b5060006008553480156200008057600080fd5b5060405162002a0238038062002a02833981016040819052620000a3916200020f565b60408051808201909152601581527f68747470733a2f2f697066732e696f2f697066732f00000000000000000000006020820152620000e28162000133565b50600780546001600160a01b039384166001600160a01b0319918216811790925560068054939094169216919091179091556000908152600d60205260409020805460ff1916600117905562000283565b8051620001489060029060208401906200014c565b5050565b8280546200015a9062000247565b90600052602060002090601f0160209004810192826200017e5760008555620001c9565b82601f106200019957805160ff1916838001178555620001c9565b82800160010185558215620001c9579182015b82811115620001c9578251825591602001919060010190620001ac565b50620001d7929150620001db565b5090565b5b80821115620001d75760008155600101620001dc565b80516001600160a01b03811681146200020a57600080fd5b919050565b600080604083850312156200022357600080fd5b6200022e83620001f2565b91506200023e60208401620001f2565b90509250929050565b600181811c908216806200025c57607f821691505b6020821081036200027d57634e487b7160e01b600052602260045260246000fd5b50919050565b61276f80620002936000396000f3fe608060405234801561001057600080fd5b50600436106101ce5760003560e01c806395d89b4111610104578063d2837b00116100a2578063ec57ef5d11610071578063ec57ef5d14610464578063f242432a14610477578063f2fde38b1461048a578063f5298aca1461049d57600080fd5b8063d2837b00146103ea578063da3f05111461040d578063e8a3d48514610420578063e985e9c51461042857600080fd5b8063a7d03dd4116100de578063a7d03dd414610379578063b5f799e6146103a4578063bfedc6ca146103ac578063c5f956af146103bf57600080fd5b806395d89b411461034b5780639d3ba61514610353578063a22cb4651461036657600080fd5b80631b2ef1ca1161017157806347fda41a1161014b57806347fda41a146102e05780634e1273f4146102f35780635c93195f146103135780639456b3971461033857600080fd5b80631b2ef1ca1461029757806324d7806c146102aa5780632eb2c2d6146102cd57600080fd5b8063082f0713116101ad578063082f0713146102315780630e89341c1461024657806312bc66c014610259578063162094c41461028457600080fd5b8062fdd58e146101d357806301ffc9a7146101f957806306fdde031461021c575b600080fd5b6101e66101e1366004611caf565b6104b0565b6040519081526020015b60405180910390f35b61020c610207366004611cf2565b610546565b60405190151581526020016101f0565b610224610598565b6040516101f09190611d5c565b61024461023f366004611d7d565b610626565b005b610224610254366004611dad565b6106eb565b6101e6610267366004611caf565b600a60209081526000928352604080842090915290825290205481565b610244610292366004611e7d565b6107a9565b6102446102a5366004611ec4565b6107e9565b61020c6102b8366004611ee6565b600d6020526000908152604090205460ff1681565b6102446102db366004611f96565b610bef565b6101e66102ee366004611dad565b610c3b565b610306610301366004612040565b610c69565b6040516101f0919061213c565b610326610321366004611dad565b610d93565b6040516101f09695949392919061214f565b6101e6610346366004611caf565b610e6e565b610224610edc565b610244610361366004611ee6565b610ee9565b61024461037436600461218b565b610f22565b6101e6610387366004611caf565b600b60209081526000928352604080842090915290825290205481565b6005546101e6565b6102446103ba36600461218b565b610f2d565b6006546103d2906001600160a01b031681565b6040516001600160a01b0390911681526020016101f0565b61020c6103f8366004611ee6565b600c6020526000908152604090205460ff1681565b61024461041b3660046121b7565b610f6f565b6102246110cd565b61020c61043636600461226f565b6001600160a01b03918216600090815260016020908152604080832093909416825291909152205460ff1690565b610244610472366004611ee6565b6110ed565b6102446104853660046122a2565b61112d565b610244610498366004611ee6565b611175565b6102446104ab366004612307565b6111ae565b60006001600160a01b0383166105205760405162461bcd60e51b815260206004820152602a60248201527f455243313135353a2061646472657373207a65726f206973206e6f742061207660448201526930b634b21037bbb732b960b11b60648201526084015b60405180910390fd5b506000908152602081815260408083206001600160a01b03949094168352929052205490565b60006001600160e01b03198216636cdb3d1360e11b148061057757506001600160e01b031982166303a24d0760e21b145b8061059257506301ffc9a760e01b6001600160e01b03198316145b92915050565b600380546105a59061233a565b80601f01602080910402602001604051908101604052809291908181526020018280546105d19061233a565b801561061e5780601f106105f35761010080835404028352916020019161061e565b820191906000526020600020905b81548152906001019060200180831161060157829003601f168201915b505050505081565b6007546001600160a01b0316331461063d57600080fd5b806005838154811061065157610651612374565b906000526020600020906005020160010160016101000a81548160ff02191690831515021790555080156106b7576040518281527ff27b6ce5b2f5e68ddb2fd95a8a909d4ecf1daaac270935fff052feacb24f1842906020015b60405180910390a15050565b6040518281527f032bc66be43dbccb7487781d168eb7bda224628a3b2c3388bdf69b532a3a1611906020016106ab565b5050565b6000818152600e60205260408120805460609291906107099061233a565b80601f01602080910402602001604051908101604052809291908181526020018280546107359061233a565b80156107825780601f1061075757610100808354040283529160200191610782565b820191906000526020600020905b81548152906001019060200180831161076557829003601f168201915b505050505090506000815111156107995792915050565b6107a2836111d5565b9392505050565b336000908152600d602052604090205460ff166107c557600080fd5b6000828152600e6020908152604090912082516107e492840190611bfa565b505050565b60085482106107f757600080fd5b6000816005848154811061080d5761080d612374565b90600052602060002090600502016003015461082991906123a0565b6009546040516370a0823160e01b815233600482015291925082916001600160a01b03909116906370a0823190602401602060405180830381865afa158015610876573d6000803e3d6000fd5b505050506040513d601f19601f8201168201806040525081019061089a91906123bf565b10156108e85760405162461bcd60e51b815260206004820152601b60248201527f4e6f7420656e6f756768204e524e20666f7220707572636861736500000000006044820152606401610517565b600583815481106108fb576108fb612374565b600091825260209091206001600590920201015460ff16158061097757506005838154811061092c5761092c612374565b60009182526020909120600160059092020181015460ff16151514801561097757506005838154811061096157610961612374565b9060005260206000209060050201600201548211155b61098057600080fd5b336000908152600b60209081526040808320868452909152902054421015806109c35750336000908152600a602090815260408083208684529091529020548211155b6109cc57600080fd5b60095460405163080d7c4d60e01b8152336004820152602481018390526001600160a01b039091169063080d7c4d90604401600060405180830381600087803b158015610a1857600080fd5b505af1158015610a2c573d6000803e3d6000fd5b50506009546006546040516323b872dd60e01b81523360048201526001600160a01b0391821660248201526044810186905260009450911691506323b872dd906064016020604051808303816000875af1158015610a8e573d6000803e3d6000fd5b505050506040513d601f19601f82011682018060405250810190610ab291906123d8565b90508015610be957336000908152600b602090815260408083208784529091529020544210610ae457610ae484611269565b336000908152600a6020908152604080832087845290915281208054859290610b0e9084906123f5565b90915550506005805485908110610b2757610b27612374565b600091825260209091206001600590920201015460ff1615610b7d578260058581548110610b5757610b57612374565b90600052602060002090600502016002016000828254610b7791906123f5565b90915550505b610ba73385856040518060400160405280600681526020016572616e646f6d60d01b8152506112dd565b60408051338152602081018690529081018490527f22f9e84321781e9e771e2b044bbb076fdc86530519fc65b2f6da2a08705f15849060600160405180910390a15b50505050565b6001600160a01b038516331480610c0b5750610c0b8533610436565b610c275760405162461bcd60e51b81526004016105179061240c565b610c3485858585856113f1565b5050505050565b600060058281548110610c5057610c50612374565b9060005260206000209060050201600201549050919050565b60608151835114610cce5760405162461bcd60e51b815260206004820152602960248201527f455243313135353a206163636f756e747320616e6420696473206c656e677468604482015268040dad2e6dac2e8c6d60bb1b6064820152608401610517565b6000835167ffffffffffffffff811115610cea57610cea611dc6565b604051908082528060200260200182016040528015610d13578160200160208202803683370190505b50905060005b8451811015610d8b57610d5e858281518110610d3757610d37612374565b6020026020010151858381518110610d5157610d51612374565b60200260200101516104b0565b828281518110610d7057610d70612374565b6020908102919091010152610d848161245b565b9050610d19565b509392505050565b60058181548110610da357600080fd5b9060005260206000209060050201600091509050806000018054610dc69061233a565b80601f0160208091040260200160405190810160405280929190818152602001828054610df29061233a565b8015610e3f5780601f10610e1457610100808354040283529160200191610e3f565b820191906000526020600020905b815481529060010190602001808311610e2257829003601f168201915b50505050600183015460028401546003850154600490950154939460ff80841695610100909404169350909186565b6001600160a01b0382166000818152600a60209081526040808320858452825280832054938352600b825280832085845290915281205490919042106107a25760058381548110610ec157610ec1612374565b90600052602060002090600502016004015490509392505050565b600480546105a59061233a565b6007546001600160a01b03163314610f0057600080fd5b600980546001600160a01b0319166001600160a01b0392909216919091179055565b6106e73383836115ce565b6007546001600160a01b03163314610f4457600080fd5b6001600160a01b03919091166000908152600d60205260409020805460ff1916911515919091179055565b336000908152600d602052604090205460ff16610f8b57600080fd5b6040805160c08101825288815286151560208083019190915286151592820192909252606081018590526080810184905261ffff831660a0820152600580546001810182556000829052825180519394919092027f036b6384b5eca791c62761152d0c79bb0604c104a5fb6f4eb0703f3154bb3db0019261100f9284920190611bfa565b506020820151600182018054604085015115156101000261ff00199315159390931661ffff1990911617919091179055606082015160028201556080820151600382015560a090910151600490910155836110a0577f032bc66be43dbccb7487781d168eb7bda224628a3b2c3388bdf69b532a3a161160085460405161109791815260200190565b60405180910390a15b6110ac600854876107a9565b6001600860008282546110bf9190612474565b909155505050505050505050565b60606040518060800160405280604281526020016126f860429139905090565b336000908152600d602052604090205460ff1661110957600080fd5b6001600160a01b03166000908152600c60205260409020805460ff19166001179055565b6005838154811061114057611140612374565b906000526020600020906005020160010160019054906101000a900460ff1661116857600080fd5b610c3485858585856116ae565b6007546001600160a01b0316331461118c57600080fd5b600780546001600160a01b0319166001600160a01b0392909216919091179055565b336000908152600c602052604090205460ff166111ca57600080fd5b6107e48383836116f3565b6060600280546111e49061233a565b80601f01602080910402602001604051908101604052809291908181526020018280546112109061233a565b801561125d5780601f106112325761010080835404028352916020019161125d565b820191906000526020600020905b81548152906001019060200180831161124057829003601f168201915b50505050509050919050565b6005818154811061127c5761127c612374565b6000918252602080832060046005909302019190910154338352600a825260408084208585529092529120556112b54262015180612474565b336000908152600b602090815260408083209483529390529190912063ffffffff9091169055565b6001600160a01b03841661133d5760405162461bcd60e51b815260206004820152602160248201527f455243313135353a206d696e7420746f20746865207a65726f206164647265736044820152607360f81b6064820152608401610517565b3360006113498561186f565b905060006113568561186f565b90506000868152602081815260408083206001600160a01b038b16845290915281208054879290611388908490612474565b909155505060408051878152602081018790526001600160a01b03808a1692600092918716917fc3d58168c5ae7397731d063d5bbf3d657854427343f4c083240f7aacaa2d0f62910160405180910390a46113e8836000898989896118ba565b50505050505050565b81518351146114535760405162461bcd60e51b815260206004820152602860248201527f455243313135353a2069647320616e6420616d6f756e7473206c656e677468206044820152670dad2e6dac2e8c6d60c31b6064820152608401610517565b6001600160a01b0384166114795760405162461bcd60e51b81526004016105179061248c565b3360005b845181101561156057600085828151811061149a5761149a612374565b6020026020010151905060008583815181106114b8576114b8612374565b602090810291909101810151600084815280835260408082206001600160a01b038e1683529093529190912054909150818110156115085760405162461bcd60e51b8152600401610517906124d1565b6000838152602081815260408083206001600160a01b038e8116855292528083208585039055908b16825281208054849290611545908490612474565b92505081905550505050806115599061245b565b905061147d565b50846001600160a01b0316866001600160a01b0316826001600160a01b03167f4a39dc06d4c0dbc64b70af90fd698a233a518aa5d07e595d983b8c0526c8f7fb87876040516115b092919061251b565b60405180910390a46115c6818787878787611a15565b505050505050565b816001600160a01b0316836001600160a01b0316036116415760405162461bcd60e51b815260206004820152602960248201527f455243313135353a2073657474696e6720617070726f76616c20737461747573604482015268103337b91039b2b63360b91b6064820152608401610517565b6001600160a01b03838116600081815260016020908152604080832094871680845294825291829020805460ff191686151590811790915591519182527f17307eab39ab6107e8899845ad3d59bd9653f200f220920489ca2b5937696c31910160405180910390a3505050565b6001600160a01b0385163314806116ca57506116ca8533610436565b6116e65760405162461bcd60e51b81526004016105179061240c565b610c348585858585611ad0565b6001600160a01b0383166117555760405162461bcd60e51b815260206004820152602360248201527f455243313135353a206275726e2066726f6d20746865207a65726f206164647260448201526265737360e81b6064820152608401610517565b3360006117618461186f565b9050600061176e8461186f565b60408051602080820183526000918290528882528181528282206001600160a01b038b16835290522054909150848110156117f75760405162461bcd60e51b8152602060048201526024808201527f455243313135353a206275726e20616d6f756e7420657863656564732062616c604482015263616e636560e01b6064820152608401610517565b6000868152602081815260408083206001600160a01b038b81168086529184528285208a8703905582518b81529384018a90529092908816917fc3d58168c5ae7397731d063d5bbf3d657854427343f4c083240f7aacaa2d0f62910160405180910390a46040805160208101909152600090526113e8565b604080516001808252818301909252606091600091906020808301908036833701905050905082816000815181106118a9576118a9612374565b602090810291909101015292915050565b6001600160a01b0384163b156115c65760405163f23a6e6160e01b81526001600160a01b0385169063f23a6e61906118fe9089908990889088908890600401612549565b6020604051808303816000875af1925050508015611939575060408051601f3d908101601f191682019092526119369181019061258e565b60015b6119e5576119456125ab565b806308c379a00361197e57506119596125c7565b806119645750611980565b8060405162461bcd60e51b81526004016105179190611d5c565b505b60405162461bcd60e51b815260206004820152603460248201527f455243313135353a207472616e7366657220746f206e6f6e20455243313135356044820152732932b1b2b4bb32b91034b6b83632b6b2b73a32b960611b6064820152608401610517565b6001600160e01b0319811663f23a6e6160e01b146113e85760405162461bcd60e51b815260040161051790612651565b6001600160a01b0384163b156115c65760405163bc197c8160e01b81526001600160a01b0385169063bc197c8190611a599089908990889088908890600401612699565b6020604051808303816000875af1925050508015611a94575060408051601f3d908101601f19168201909252611a919181019061258e565b60015b611aa0576119456125ab565b6001600160e01b0319811663bc197c8160e01b146113e85760405162461bcd60e51b815260040161051790612651565b6001600160a01b038416611af65760405162461bcd60e51b81526004016105179061248c565b336000611b028561186f565b90506000611b0f8561186f565b90506000868152602081815260408083206001600160a01b038c16845290915290205485811015611b525760405162461bcd60e51b8152600401610517906124d1565b6000878152602081815260408083206001600160a01b038d8116855292528083208985039055908a16825281208054889290611b8f908490612474565b909155505060408051888152602081018890526001600160a01b03808b16928c821692918816917fc3d58168c5ae7397731d063d5bbf3d657854427343f4c083240f7aacaa2d0f62910160405180910390a4611bef848a8a8a8a8a6118ba565b505050505050505050565b828054611c069061233a565b90600052602060002090601f016020900481019282611c285760008555611c6e565b82601f10611c4157805160ff1916838001178555611c6e565b82800160010185558215611c6e579182015b82811115611c6e578251825591602001919060010190611c53565b50611c7a929150611c7e565b5090565b5b80821115611c7a5760008155600101611c7f565b80356001600160a01b0381168114611caa57600080fd5b919050565b60008060408385031215611cc257600080fd5b611ccb83611c93565b946020939093013593505050565b6001600160e01b031981168114611cef57600080fd5b50565b600060208284031215611d0457600080fd5b81356107a281611cd9565b6000815180845260005b81811015611d3557602081850181015186830182015201611d19565b81811115611d47576000602083870101525b50601f01601f19169290920160200192915050565b6020815260006107a26020830184611d0f565b8015158114611cef57600080fd5b60008060408385031215611d9057600080fd5b823591506020830135611da281611d6f565b809150509250929050565b600060208284031215611dbf57600080fd5b5035919050565b634e487b7160e01b600052604160045260246000fd5b601f8201601f1916810167ffffffffffffffff81118282101715611e0257611e02611dc6565b6040525050565b600082601f830112611e1a57600080fd5b813567ffffffffffffffff811115611e3457611e34611dc6565b604051611e4b601f8301601f191660200182611ddc565b818152846020838601011115611e6057600080fd5b816020850160208301376000918101602001919091529392505050565b60008060408385031215611e9057600080fd5b82359150602083013567ffffffffffffffff811115611eae57600080fd5b611eba85828601611e09565b9150509250929050565b60008060408385031215611ed757600080fd5b50508035926020909101359150565b600060208284031215611ef857600080fd5b6107a282611c93565b600067ffffffffffffffff821115611f1b57611f1b611dc6565b5060051b60200190565b600082601f830112611f3657600080fd5b81356020611f4382611f01565b604051611f508282611ddc565b83815260059390931b8501820192828101915086841115611f7057600080fd5b8286015b84811015611f8b5780358352918301918301611f74565b509695505050505050565b600080600080600060a08688031215611fae57600080fd5b611fb786611c93565b9450611fc560208701611c93565b9350604086013567ffffffffffffffff80821115611fe257600080fd5b611fee89838a01611f25565b9450606088013591508082111561200457600080fd5b61201089838a01611f25565b9350608088013591508082111561202657600080fd5b5061203388828901611e09565b9150509295509295909350565b6000806040838503121561205357600080fd5b823567ffffffffffffffff8082111561206b57600080fd5b818501915085601f83011261207f57600080fd5b8135602061208c82611f01565b6040516120998282611ddc565b83815260059390931b85018201928281019150898411156120b957600080fd5b948201945b838610156120de576120cf86611c93565b825294820194908201906120be565b965050860135925050808211156120f457600080fd5b50611eba85828601611f25565b600081518084526020808501945080840160005b8381101561213157815187529582019590820190600101612115565b509495945050505050565b6020815260006107a26020830184612101565b60c08152600061216260c0830189611d0f565b96151560208301525093151560408501526060840192909252608083015260a090910152919050565b6000806040838503121561219e57600080fd5b6121a783611c93565b91506020830135611da281611d6f565b600080600080600080600060e0888a0312156121d257600080fd5b873567ffffffffffffffff808211156121ea57600080fd5b6121f68b838c01611e09565b985060208a013591508082111561220c57600080fd5b506122198a828b01611e09565b965050604088013561222a81611d6f565b9450606088013561223a81611d6f565b93506080880135925060a0880135915060c088013561ffff8116811461225f57600080fd5b8091505092959891949750929550565b6000806040838503121561228257600080fd5b61228b83611c93565b915061229960208401611c93565b90509250929050565b600080600080600060a086880312156122ba57600080fd5b6122c386611c93565b94506122d160208701611c93565b93506040860135925060608601359150608086013567ffffffffffffffff8111156122fb57600080fd5b61203388828901611e09565b60008060006060848603121561231c57600080fd5b61232584611c93565b95602085013595506040909401359392505050565b600181811c9082168061234e57607f821691505b60208210810361236e57634e487b7160e01b600052602260045260246000fd5b50919050565b634e487b7160e01b600052603260045260246000fd5b634e487b7160e01b600052601160045260246000fd5b60008160001904831182151516156123ba576123ba61238a565b500290565b6000602082840312156123d157600080fd5b5051919050565b6000602082840312156123ea57600080fd5b81516107a281611d6f565b6000828210156124075761240761238a565b500390565b6020808252602f908201527f455243313135353a2063616c6c6572206973206e6f7420746f6b656e206f776e60408201526e195c881b9bdc88185c1c1c9bdd9959608a1b606082015260800190565b60006001820161246d5761246d61238a565b5060010190565b600082198211156124875761248761238a565b500190565b60208082526025908201527f455243313135353a207472616e7366657220746f20746865207a65726f206164604082015264647265737360d81b606082015260800190565b6020808252602a908201527f455243313135353a20696e73756666696369656e742062616c616e636520666f60408201526939103a3930b739b332b960b11b606082015260800190565b60408152600061252e6040830185612101565b82810360208401526125408185612101565b95945050505050565b6001600160a01b03868116825285166020820152604081018490526060810183905260a06080820181905260009061258390830184611d0f565b979650505050505050565b6000602082840312156125a057600080fd5b81516107a281611cd9565b600060033d11156125c45760046000803e5060005160e01c5b90565b600060443d10156125d55790565b6040516003193d81016004833e81513d67ffffffffffffffff816024840111818411171561260557505050505090565b828501915081518181111561261d5750505050505090565b843d87010160208285010111156126375750505050505090565b61264660208286010187611ddc565b509095945050505050565b60208082526028908201527f455243313135353a204552433131353552656365697665722072656a656374656040820152676420746f6b656e7360c01b606082015260800190565b6001600160a01b0386811682528516602082015260a0604082018190526000906126c590830186612101565b82810360608401526126d78186612101565b905082810360808401526126eb8185611d0f565b9897505050505050505056fe697066733a2f2f62616679626569683377697473636d6d6c3370616466347178626561356a6834726c327870363761796471767173786d79757a69707774706e6969a264697066735822122026a6a254b2b772da6a8171d174c7f9ec6d9fa09f109b11187f6a1a518185055364736f6c634300080d0033","linkReferences":{}},"methodIdentifiers":{"adjustAdminAccess(address,bool)":"bfedc6ca","adjustTransferability(uint256,bool)":"082f0713","allGameItemAttributes(uint256)":"5c93195f","allowanceRemaining(address,uint256)":"12bc66c0","allowedBurningAddresses(address)":"d2837b00","balanceOf(address,uint256)":"00fdd58e","balanceOfBatch(address[],uint256[])":"4e1273f4","burn(address,uint256,uint256)":"f5298aca","contractURI()":"e8a3d485","createGameItem(string,string,bool,bool,uint256,uint256,uint16)":"da3f0511","dailyAllowanceReplenishTime(address,uint256)":"a7d03dd4","getAllowanceRemaining(address,uint256)":"9456b397","instantiateNeuronContract(address)":"9d3ba615","isAdmin(address)":"24d7806c","isApprovedForAll(address,address)":"e985e9c5","mint(uint256,uint256)":"1b2ef1ca","name()":"06fdde03","remainingSupply(uint256)":"47fda41a","safeBatchTransferFrom(address,address,uint256[],uint256[],bytes)":"2eb2c2d6","safeTransferFrom(address,address,uint256,uint256,bytes)":"f242432a","setAllowedBurningAddresses(address)":"ec57ef5d","setApprovalForAll(address,bool)":"a22cb465","setTokenURI(uint256,string)":"162094c4","supportsInterface(bytes4)":"01ffc9a7","symbol()":"95d89b41","transferOwnership(address)":"f2fde38b","treasuryAddress()":"c5f956af","uniqueTokensOutstanding()":"b5f799e6","uri(uint256)":"0e89341c"},"id":26}