{"abi":[{"type":"constructor","inputs":[{"name":"_founderAddress","type":"address","internalType":"address"},{"name":"_delegatedAddress","type":"address","internalType":"address"}],"stateMutability":"nonpayable"},{"type":"function","name":"addAdmin","inputs":[{"name":"_newAdmin","type":"address","internalType":"address"}],"outputs":[],"stateMutability":"nonpayable"},{"type":"function","name":"approve","inputs":[{"name":"to","type":"address","internalType":"address"},{"name":"tokenId","type":"uint256","internalType":"uint256"}],"outputs":[],"stateMutability":"nonpayable"},{"type":"function","name":"balanceOf","inputs":[{"name":"owner","type":"address","internalType":"address"}],"outputs":[{"name":"","type":"uint256","internalType":"uint256"}],"stateMutability":"view"},{"type":"function","name":"burn","inputs":[{"name":"_tokenId","type":"uint256","internalType":"uint256"}],"outputs":[],"stateMutability":"nonpayable"},{"type":"function","name":"claimMintPass","inputs":[{"name":"numToMint","type":"uint8[2]","internalType":"uint8[2]"},{"name":"signature","type":"bytes","internalType":"bytes"},{"name":"_tokenURIs","type":"string[]","internalType":"string[]"}],"outputs":[],"stateMutability":"nonpayable"},{"type":"function","name":"contractURI","inputs":[],"outputs":[{"name":"","type":"string","internalType":"string"}],"stateMutability":"pure"},{"type":"function","name":"delegatedAddress","inputs":[],"outputs":[{"name":"","type":"address","internalType":"address"}],"stateMutability":"view"},{"type":"function","name":"fighterFarmContractAddress","inputs":[],"outputs":[{"name":"","type":"address","internalType":"address"}],"stateMutability":"view"},{"type":"function","name":"founderAddress","inputs":[],"outputs":[{"name":"","type":"address","internalType":"address"}],"stateMutability":"view"},{"type":"function","name":"getApproved","inputs":[{"name":"tokenId","type":"uint256","internalType":"uint256"}],"outputs":[{"name":"","type":"address","internalType":"address"}],"stateMutability":"view"},{"type":"function","name":"isAdmin","inputs":[{"name":"","type":"address","internalType":"address"}],"outputs":[{"name":"","type":"bool","internalType":"bool"}],"stateMutability":"view"},{"type":"function","name":"isApprovedForAll","inputs":[{"name":"owner","type":"address","internalType":"address"},{"name":"operator","type":"address","internalType":"address"}],"outputs":[{"name":"","type":"bool","internalType":"bool"}],"stateMutability":"view"},{"type":"function","name":"mintingPaused","inputs":[],"outputs":[{"name":"","type":"bool","internalType":"bool"}],"stateMutability":"view"},{"type":"function","name":"name","inputs":[],"outputs":[{"name":"","type":"string","internalType":"string"}],"stateMutability":"view"},{"type":"function","name":"numTokensBurned","inputs":[],"outputs":[{"name":"","type":"uint256","internalType":"uint256"}],"stateMutability":"view"},{"type":"function","name":"numTokensOutstanding","inputs":[],"outputs":[{"name":"","type":"uint256","internalType":"uint256"}],"stateMutability":"view"},{"type":"function","name":"ownerOf","inputs":[{"name":"tokenId","type":"uint256","internalType":"uint256"}],"outputs":[{"name":"","type":"address","internalType":"address"}],"stateMutability":"view"},{"type":"function","name":"passesClaimed","inputs":[{"name":"","type":"address","internalType":"address"},{"name":"","type":"uint8","internalType":"uint8"}],"outputs":[{"name":"","type":"uint8","internalType":"uint8"}],"stateMutability":"view"},{"type":"function","name":"removeAdmin","inputs":[{"name":"adminAddress","type":"address","internalType":"address"}],"outputs":[],"stateMutability":"nonpayable"},{"type":"function","name":"safeTransferFrom","inputs":[{"name":"from","type":"address","internalType":"address"},{"name":"to","type":"address","internalType":"address"},{"name":"tokenId","type":"uint256","internalType":"uint256"}],"outputs":[],"stateMutability":"nonpayable"},{"type":"function","name":"safeTransferFrom","inputs":[{"name":"from","type":"address","internalType":"address"},{"name":"to","type":"address","internalType":"address"},{"name":"tokenId","type":"uint256","internalType":"uint256"},{"name":"data","type":"bytes","internalType":"bytes"}],"outputs":[],"stateMutability":"nonpayable"},{"type":"function","name":"setApprovalForAll","inputs":[{"name":"operator","type":"address","internalType":"address"},{"name":"approved","type":"bool","internalType":"bool"}],"outputs":[],"stateMutability":"nonpayable"},{"type":"function","name":"setDelegatedAddress","inputs":[{"name":"_delegatedAddress","type":"address","internalType":"address"}],"outputs":[],"stateMutability":"nonpayable"},{"type":"function","name":"setFighterFarmAddress","inputs":[{"name":"_fighterFarmAddress","type":"address","internalType":"address"}],"outputs":[],"stateMutability":"nonpayable"},{"type":"function","name":"setPaused","inputs":[{"name":"_state","type":"bool","internalType":"bool"}],"outputs":[],"stateMutability":"nonpayable"},{"type":"function","name":"supportsInterface","inputs":[{"name":"interfaceId","type":"bytes4","internalType":"bytes4"}],"outputs":[{"name":"","type":"bool","internalType":"bool"}],"stateMutability":"view"},{"type":"function","name":"symbol","inputs":[],"outputs":[{"name":"","type":"string","internalType":"string"}],"stateMutability":"view"},{"type":"function","name":"tokenURI","inputs":[{"name":"_tokenId","type":"uint256","internalType":"uint256"}],"outputs":[{"name":"","type":"string","internalType":"string"}],"stateMutability":"view"},{"type":"function","name":"totalSupply","inputs":[],"outputs":[{"name":"","type":"uint256","internalType":"uint256"}],"stateMutability":"view"},{"type":"function","name":"transferFrom","inputs":[{"name":"from","type":"address","internalType":"address"},{"name":"to","type":"address","internalType":"address"},{"name":"tokenId","type":"uint256","internalType":"uint256"}],"outputs":[],"stateMutability":"nonpayable"},{"type":"function","name":"transferOwnership","inputs":[{"name":"_newFounderAddress","type":"address","internalType":"address"}],"outputs":[],"stateMutability":"nonpayable"},{"type":"event","name":"Approval","inputs":[{"name":"owner","type":"address","indexed":true,"internalType":"address"},{"name":"approved","type":"address","indexed":true,"internalType":"address"},{"name":"tokenId","type":"uint256","indexed":true,"internalType":"uint256"}],"anonymous":false},{"type":"event","name":"ApprovalForAll","inputs":[{"name":"owner","type":"address","indexed":true,"internalType":"address"},{"name":"operator","type":"address","indexed":true,"internalType":"address"},{"name":"approved","type":"bool","indexed":false,"internalType":"bool"}],"anonymous":false},{"type":"event","name":"Transfer","inputs":[{"name":"from","type":"address","indexed":true,"internalType":"address"},{"name":"to","type":"address","indexed":true,"internalType":"address"},{"name":"tokenId","type":"uint256","indexed":true,"internalType":"uint256"}],"anonymous":false}],"bytecode":{"object":"0x6080604052600c805460ff191660011790556000600d819055600e553480156200002857600080fd5b506040516200209e3803806200209e8339810160408190526200004b91620001ca565b60408051808201825260128152714149204172656e61204d696e74205061737360701b602080830191825283518085019094526004845263041414d560e41b908401528151919291620000a19160009162000107565b508051620000b790600190602084019062000107565b5050600880546001600160a01b039384166001600160a01b031991821617909155600680549490931693168317909155506000908152600960205260409020805460ff191660011790556200023e565b828054620001159062000202565b90600052602060002090601f01602090048101928262000139576000855562000184565b82601f106200015457805160ff191683800117855562000184565b8280016001018555821562000184579182015b828111156200018457825182559160200191906001019062000167565b506200019292915062000196565b5090565b5b8082111562000192576000815560010162000197565b80516001600160a01b0381168114620001c557600080fd5b919050565b60008060408385031215620001de57600080fd5b620001e983620001ad565b9150620001f960208401620001ad565b90509250929050565b600181811c908216806200021757607f821691505b6020821081036200023857634e487b7160e01b600052602260045260246000fd5b50919050565b611e50806200024e6000396000f3fe608060405234801561001057600080fd5b50600436106101e55760003560e01c80636aea4c381161010f578063c87b56dd116100a2578063e985e9c511610071578063e985e9c51461042c578063eaee5ba314610468578063f2fde38b1461047b578063ffc325e31461048e57600080fd5b8063c87b56dd146103f1578063dd0f1dc914610404578063e1a283d614610417578063e8a3d4851461042457600080fd5b80637b51715d116100de5780637b51715d146103ba57806395d89b41146103c3578063a22cb465146103cb578063b88d4fde146103de57600080fd5b80636aea4c3814610341578063704802751461035457806370a0823114610367578063744f056f1461037a57600080fd5b806318160ddd1161018757806342842e0e1161015657806342842e0e146102f557806342966c681461030857806346bb28331461031b5780636352211e1461032e57600080fd5b806318160ddd146102a45780631f9810ab146102ac57806323b872dd146102bf57806324d7806c146102d257600080fd5b8063081812fc116101c3578063081812fc1461023e578063095ea7b31461026957806316c38b3c1461027e5780631785f53c1461029157600080fd5b806301ca1c18146101ea57806301ffc9a71461020657806306fdde0314610229575b600080fd5b6101f3600d5481565b6040519081526020015b60405180910390f35b610219610214366004611625565b6104a1565b60405190151581526020016101fd565b6102316104f3565b6040516101fd9190611696565b61025161024c3660046116a9565b610585565b6040516001600160a01b0390911681526020016101fd565b61027c6102773660046116de565b6105ac565b005b61027c61028c366004611716565b6106c6565b61027c61029f366004611733565b6106f5565b600d546101f3565b61027c6102ba366004611733565b61072d565b61027c6102cd36600461174e565b610766565b6102196102e0366004611733565b60096020526000908152604090205460ff1681565b61027c61030336600461174e565b610798565b61027c6103163660046116a9565b6107b3565b600654610251906001600160a01b031681565b61025161033c3660046116a9565b610824565b600754610251906001600160a01b031681565b61027c610362366004611733565b610884565b6101f3610375366004611733565b6108bf565b6103a861038836600461179b565b600b60209081526000928352604080842090915290825290205460ff1681565b60405160ff90911681526020016101fd565b6101f3600e5481565b610231610945565b61027c6103d93660046117ce565b610954565b61027c6103ec36600461181b565b610963565b6102316103ff3660046116a9565b61099b565b61027c610412366004611943565b610ab8565b600c546102199060ff1681565b610231610d2b565b61021961043a3660046119f7565b6001600160a01b03918216600090815260056020908152604080832093909416825291909152205460ff1690565b61027c610476366004611733565b610d4b565b61027c610489366004611733565b610d84565b600854610251906001600160a01b031681565b60006001600160e01b031982166380ac58cd60e01b14806104d257506001600160e01b03198216635b5e139f60e01b145b806104ed57506301ffc9a760e01b6001600160e01b03198316145b92915050565b60606000805461050290611a21565b80601f016020809104026020016040519081016040528092919081815260200182805461052e90611a21565b801561057b5780601f106105505761010080835404028352916020019161057b565b820191906000526020600020905b81548152906001019060200180831161055e57829003601f168201915b5050505050905090565b600061059082610deb565b506000908152600460205260409020546001600160a01b031690565b60006105b782610824565b9050806001600160a01b0316836001600160a01b0316036106295760405162461bcd60e51b815260206004820152602160248201527f4552433732313a20617070726f76616c20746f2063757272656e74206f776e656044820152603960f91b60648201526084015b60405180910390fd5b336001600160a01b03821614806106455750610645813361043a565b6106b75760405162461bcd60e51b815260206004820152603e60248201527f4552433732313a20617070726f76652063616c6c6572206973206e6f7420746f60448201527f6b656e206f776e6572206e6f7220617070726f76656420666f7220616c6c00006064820152608401610620565b6106c18383610e4a565b505050565b3360009081526009602052604090205460ff166106e257600080fd5b600c805460ff1916911515919091179055565b6006546001600160a01b0316331461070c57600080fd5b6001600160a01b03166000908152600960205260409020805460ff19169055565b6006546001600160a01b0316331461074457600080fd5b600780546001600160a01b0319166001600160a01b0392909216919091179055565b610771335b82610eb8565b61078d5760405162461bcd60e51b815260040161062090611a5b565b6106c1838383610f37565b6106c183838360405180602001604052806000815250610963565b6007546001600160a01b03163314806107e557506107d081610824565b6001600160a01b0316336001600160a01b0316145b6107ee57600080fd5b600e80549060006107fe83611abf565b9091555050600d805490600061081383611ad8565b9190505550610821816110d3565b50565b6000818152600260205260408120546001600160a01b0316806104ed5760405162461bcd60e51b8152602060048201526018602482015277115490cdcc8c4e881a5b9d985b1a59081d1bdad95b88125160421b6044820152606401610620565b6006546001600160a01b0316331461089b57600080fd5b6001600160a01b03166000908152600960205260409020805460ff19166001179055565b60006001600160a01b0382166109295760405162461bcd60e51b815260206004820152602960248201527f4552433732313a2061646472657373207a65726f206973206e6f7420612076616044820152683634b21037bbb732b960b91b6064820152608401610620565b506001600160a01b031660009081526003602052604090205490565b60606001805461050290611a21565b61095f338383611101565b5050565b61096d3383610eb8565b6109895760405162461bcd60e51b815260040161062090611a5b565b610995848484846111cf565b50505050565b6000818152600260205260409020546060906001600160a01b0316610a1a5760405162461bcd60e51b815260206004820152602f60248201527f4552433732314d657461646174613a2055524920717565727920666f72206e6f60448201526e3732bc34b9ba32b73a103a37b5b2b760891b6064820152608401610620565b6000828152600a602052604090208054610a3390611a21565b80601f0160208091040260200160405190810160405280929190818152602001828054610a5f90611a21565b8015610aac5780601f10610a8157610100808354040283529160200191610aac565b820191906000526020600020905b815481529060010190602001808311610a8f57829003601f168201915b50505050509050919050565b600c5460ff1615610ac857600080fd5b600033610ad86020880188611b05565b610ae86040890160208a01611b05565b336000908152600b602090815260408083208380528252808320546001845292819020549051610b289695949360ff908116939216918a918a9101611b49565b60408051601f1981840301815290829052805160209091012060085463823ac37360e01b835290925073__$814b009df1eea0617c5279b3ba0333b56a$__9163823ac37391610b899185918a918a916001600160a01b031690600401611c20565b602060405180830381865af4158015610ba6573d6000803e3d6000fd5b505050506040513d601f19601f82011682018060405250810190610bca9190611c53565b610bd357600080fd5b6000610be56040880160208901611b05565b610bf26020890189611b05565b610bfc9190611c70565b60ff169050828114610c0d57600080fd5b610c1a6020880188611b05565b336000908152600b6020908152604080832083805290915281208054909190610c4790849060ff16611c70565b92506101000a81548160ff021916908360ff16021790555086600160028110610c7257610c72611aef565b602002016020810190610c859190611b05565b336000908152600b602090815260408083206001845290915281208054909190610cb390849060ff16611c70565b92506101000a81548160ff021916908360ff16021790555060005b8161ffff168161ffff161015610d2157610d0f3386868461ffff16818110610cf857610cf8611aef565b9050602002810190610d0a9190611c95565b611202565b80610d1981611cdc565b915050610cce565b5050505050505050565b6060604051806080016040528060428152602001611dd960429139905090565b6006546001600160a01b03163314610d6257600080fd5b600880546001600160a01b0319166001600160a01b0392909216919091179055565b6006546001600160a01b03163314610d9b57600080fd5b600680546001600160a01b03908116600090815260096020526040808220805460ff1990811690915584546001600160a01b03191695909316948517909355928352912080549091166001179055565b6000818152600260205260409020546001600160a01b03166108215760405162461bcd60e51b8152602060048201526018602482015277115490cdcc8c4e881a5b9d985b1a59081d1bdad95b88125160421b6044820152606401610620565b600081815260046020526040902080546001600160a01b0319166001600160a01b0384169081179091558190610e7f82610824565b6001600160a01b03167f8c5be1e5ebec7d5bd14f71427d1e84f3dd0314c0f7b2291e5b200ac8c7c3b92560405160405180910390a45050565b600080610ec483610824565b9050806001600160a01b0316846001600160a01b03161480610f0b57506001600160a01b0380821660009081526005602090815260408083209388168352929052205460ff165b80610f2f5750836001600160a01b0316610f2484610585565b6001600160a01b0316145b949350505050565b826001600160a01b0316610f4a82610824565b6001600160a01b031614610fae5760405162461bcd60e51b815260206004820152602560248201527f4552433732313a207472616e736665722066726f6d20696e636f72726563742060448201526437bbb732b960d91b6064820152608401610620565b6001600160a01b0382166110105760405162461bcd60e51b8152602060048201526024808201527f4552433732313a207472616e7366657220746f20746865207a65726f206164646044820152637265737360e01b6064820152608401610620565b61101b600082610e4a565b6001600160a01b0383166000908152600360205260408120805460019290611044908490611cfd565b90915550506001600160a01b0382166000908152600360205260408120805460019290611072908490611d14565b909155505060008181526002602052604080822080546001600160a01b0319166001600160a01b0386811691821790925591518493918716917fddf252ad1be2c89b69c2b068fc378daa952ba7f163c4a11628f55a4df523b3ef91a4505050565b6110dc3361076b565b6110f85760405162461bcd60e51b815260040161062090611a5b565b61082181611250565b816001600160a01b0316836001600160a01b0316036111625760405162461bcd60e51b815260206004820152601960248201527f4552433732313a20617070726f766520746f2063616c6c6572000000000000006044820152606401610620565b6001600160a01b03838116600081815260056020908152604080832094871680845294825291829020805460ff191686151590811790915591519182527f17307eab39ab6107e8899845ad3d59bd9653f200f220920489ca2b5937696c31910160405180910390a3505050565b6111da848484610f37565b6111e6848484846112eb565b6109955760405162461bcd60e51b815260040161062090611d2c565b600d805490600061121283611abf565b91905055506000600e54600d546112299190611d14565b6000818152600a60205260409020909150611245908484611576565b5061099584826113ec565b600061125b82610824565b9050611268600083610e4a565b6001600160a01b0381166000908152600360205260408120805460019290611291908490611cfd565b909155505060008281526002602052604080822080546001600160a01b0319169055518391906001600160a01b038416907fddf252ad1be2c89b69c2b068fc378daa952ba7f163c4a11628f55a4df523b3ef908390a45050565b60006001600160a01b0384163b156113e157604051630a85bd0160e11b81526001600160a01b0385169063150b7a029061132f903390899088908890600401611d7e565b6020604051808303816000875af192505050801561136a575060408051601f3d908101601f1916820190925261136791810190611dbb565b60015b6113c7573d808015611398576040519150601f19603f3d011682016040523d82523d6000602084013e61139d565b606091505b5080516000036113bf5760405162461bcd60e51b815260040161062090611d2c565b805181602001fd5b6001600160e01b031916630a85bd0160e11b149050610f2f565b506001949350505050565b61095f82826040518060200160405280600081525061140b8383611434565b61141860008484846112eb565b6106c15760405162461bcd60e51b815260040161062090611d2c565b6001600160a01b03821661148a5760405162461bcd60e51b815260206004820181905260248201527f4552433732313a206d696e7420746f20746865207a65726f20616464726573736044820152606401610620565b6000818152600260205260409020546001600160a01b0316156114ef5760405162461bcd60e51b815260206004820152601c60248201527f4552433732313a20746f6b656e20616c7265616479206d696e746564000000006044820152606401610620565b6001600160a01b0382166000908152600360205260408120805460019290611518908490611d14565b909155505060008181526002602052604080822080546001600160a01b0319166001600160a01b03861690811790915590518392907fddf252ad1be2c89b69c2b068fc378daa952ba7f163c4a11628f55a4df523b3ef908290a45050565b82805461158290611a21565b90600052602060002090601f0160209004810192826115a457600085556115ea565b82601f106115bd5782800160ff198235161785556115ea565b828001600101855582156115ea579182015b828111156115ea5782358255916020019190600101906115cf565b506115f69291506115fa565b5090565b5b808211156115f657600081556001016115fb565b6001600160e01b03198116811461082157600080fd5b60006020828403121561163757600080fd5b81356116428161160f565b9392505050565b6000815180845260005b8181101561166f57602081850181015186830182015201611653565b81811115611681576000602083870101525b50601f01601f19169290920160200192915050565b6020815260006116426020830184611649565b6000602082840312156116bb57600080fd5b5035919050565b80356001600160a01b03811681146116d957600080fd5b919050565b600080604083850312156116f157600080fd5b6116fa836116c2565b946020939093013593505050565b801515811461082157600080fd5b60006020828403121561172857600080fd5b813561164281611708565b60006020828403121561174557600080fd5b611642826116c2565b60008060006060848603121561176357600080fd5b61176c846116c2565b925061177a602085016116c2565b9150604084013590509250925092565b803560ff811681146116d957600080fd5b600080604083850312156117ae57600080fd5b6117b7836116c2565b91506117c56020840161178a565b90509250929050565b600080604083850312156117e157600080fd5b6117ea836116c2565b915060208301356117fa81611708565b809150509250929050565b634e487b7160e01b600052604160045260246000fd5b6000806000806080858703121561183157600080fd5b61183a856116c2565b9350611848602086016116c2565b925060408501359150606085013567ffffffffffffffff8082111561186c57600080fd5b818701915087601f83011261188057600080fd5b81358181111561189257611892611805565b604051601f8201601f19908116603f011681019083821181831017156118ba576118ba611805565b816040528281528a60208487010111156118d357600080fd5b82602086016020830137600060208483010152809550505050505092959194509250565b60008083601f84011261190957600080fd5b50813567ffffffffffffffff81111561192157600080fd5b6020830191508360208260051b850101111561193c57600080fd5b9250929050565b60008060008060006080868803121561195b57600080fd5b604086018781111561196c57600080fd5b8695503567ffffffffffffffff8082111561198657600080fd5b818801915088601f83011261199a57600080fd5b8135818111156119a957600080fd5b8960208285010111156119bb57600080fd5b6020830196508095505060608801359150808211156119d957600080fd5b506119e6888289016118f7565b969995985093965092949392505050565b60008060408385031215611a0a57600080fd5b611a13836116c2565b91506117c5602084016116c2565b600181811c90821680611a3557607f821691505b602082108103611a5557634e487b7160e01b600052602260045260246000fd5b50919050565b6020808252602e908201527f4552433732313a2063616c6c6572206973206e6f7420746f6b656e206f776e6560408201526d1c881b9bdc88185c1c1c9bdd995960921b606082015260800190565b634e487b7160e01b600052601160045260246000fd5b600060018201611ad157611ad1611aa9565b5060010190565b600081611ae757611ae7611aa9565b506000190190565b634e487b7160e01b600052603260045260246000fd5b600060208284031215611b1757600080fd5b6116428261178a565b81835281816020850137506000828201602090810191909152601f909101601f19169091010190565b600060c0820160018060a01b038a168352602060ff8a168185015260ff8916604085015260ff8816606085015260ff8716608085015260c060a08501528185835260e08501905060e08660051b86010192508660005b87811015611c0e5786850360df190183528135368a9003601e19018112611bc557600080fd5b8901803567ffffffffffffffff811115611bde57600080fd5b8036038b1315611bed57600080fd5b611bfa8782888501611b20565b965050509183019190830190600101611b9f565b50929c9b505050505050505050505050565b848152606060208201526000611c3a606083018587611b20565b905060018060a01b038316604083015295945050505050565b600060208284031215611c6557600080fd5b815161164281611708565b600060ff821660ff84168060ff03821115611c8d57611c8d611aa9565b019392505050565b6000808335601e19843603018112611cac57600080fd5b83018035915067ffffffffffffffff821115611cc757600080fd5b60200191503681900382131561193c57600080fd5b600061ffff808316818103611cf357611cf3611aa9565b6001019392505050565b600082821015611d0f57611d0f611aa9565b500390565b60008219821115611d2757611d27611aa9565b500190565b60208082526032908201527f4552433732313a207472616e7366657220746f206e6f6e20455243373231526560408201527131b2b4bb32b91034b6b83632b6b2b73a32b960711b606082015260800190565b6001600160a01b0385811682528416602082015260408101839052608060608201819052600090611db190830184611649565b9695505050505050565b600060208284031215611dcd57600080fd5b81516116428161160f56fe697066733a2f2f626166796265696664767a77736a7078726b62796871707a337935376a376e776d3365797963336665717070716767736c65613367356b6b336a71a26469706673582212206c0a520abe8c3a981646bcc38b39b2ffe61ecf77a9056b55b8b2806b32db9d0564736f6c634300080d0033","linkReferences":{"src/Verification.sol":{"Verification":[{"start":3489,"length":20}]}}},"methodIdentifiers":{"addAdmin(address)":"70480275","approve(address,uint256)":"095ea7b3","balanceOf(address)":"70a08231","burn(uint256)":"42966c68","claimMintPass(uint8[2],bytes,string[])":"dd0f1dc9","contractURI()":"e8a3d485","delegatedAddress()":"ffc325e3","fighterFarmContractAddress()":"6aea4c38","founderAddress()":"46bb2833","getApproved(uint256)":"081812fc","isAdmin(address)":"24d7806c","isApprovedForAll(address,address)":"e985e9c5","mintingPaused()":"e1a283d6","name()":"06fdde03","numTokensBurned()":"7b51715d","numTokensOutstanding()":"01ca1c18","ownerOf(uint256)":"6352211e","passesClaimed(address,uint8)":"744f056f","removeAdmin(address)":"1785f53c","safeTransferFrom(address,address,uint256)":"42842e0e","safeTransferFrom(address,address,uint256,bytes)":"b88d4fde","setApprovalForAll(address,bool)":"a22cb465","setDelegatedAddress(address)":"eaee5ba3","setFighterFarmAddress(address)":"1f9810ab","setPaused(bool)":"16c38b3c","supportsInterface(bytes4)":"01ffc9a7","symbol()":"95d89b41","tokenURI(uint256)":"c87b56dd","totalSupply()":"18160ddd","transferFrom(address,address,uint256)":"23b872dd","transferOwnership(address)":"f2fde38b"},"id":21}