{"abi":[{"type":"constructor","inputs":[{"name":"probabilities","type":"uint8[][]","internalType":"uint8[][]"}],"stateMutability":"nonpayable"},{"type":"function","name":"addAttributeDivisor","inputs":[{"name":"attributeDivisors","type":"uint8[]","internalType":"uint8[]"}],"outputs":[],"stateMutability":"nonpayable"},{"type":"function","name":"addAttributeProbabilities","inputs":[{"name":"generation","type":"uint256","internalType":"uint256"},{"name":"probabilities","type":"uint8[][]","internalType":"uint8[][]"}],"outputs":[],"stateMutability":"nonpayable"},{"type":"function","name":"attributeProbabilities","inputs":[{"name":"","type":"uint256","internalType":"uint256"},{"name":"","type":"string","internalType":"string"},{"name":"","type":"uint256","internalType":"uint256"}],"outputs":[{"name":"","type":"uint8","internalType":"uint8"}],"stateMutability":"view"},{"type":"function","name":"attributeToDnaDivisor","inputs":[{"name":"","type":"string","internalType":"string"}],"outputs":[{"name":"","type":"uint8","internalType":"uint8"}],"stateMutability":"view"},{"type":"function","name":"attributes","inputs":[{"name":"","type":"uint256","internalType":"uint256"}],"outputs":[{"name":"","type":"string","internalType":"string"}],"stateMutability":"view"},{"type":"function","name":"createPhysicalAttributes","inputs":[{"name":"dna","type":"uint256","internalType":"uint256"},{"name":"generation","type":"uint8","internalType":"uint8"},{"name":"iconsType","type":"uint8","internalType":"uint8"},{"name":"dendroidBool","type":"bool","internalType":"bool"}],"outputs":[{"name":"","type":"tuple","internalType":"struct FighterOps.FighterPhysicalAttributes","components":[{"name":"head","type":"uint256","internalType":"uint256"},{"name":"eyes","type":"uint256","internalType":"uint256"},{"name":"mouth","type":"uint256","internalType":"uint256"},{"name":"body","type":"uint256","internalType":"uint256"},{"name":"hands","type":"uint256","internalType":"uint256"},{"name":"feet","type":"uint256","internalType":"uint256"}]}],"stateMutability":"view"},{"type":"function","name":"defaultAttributeDivisor","inputs":[{"name":"","type":"uint256","internalType":"uint256"}],"outputs":[{"name":"","type":"uint8","internalType":"uint8"}],"stateMutability":"view"},{"type":"function","name":"deleteAttributeProbabilities","inputs":[{"name":"generation","type":"uint8","internalType":"uint8"}],"outputs":[],"stateMutability":"nonpayable"},{"type":"function","name":"dnaToIndex","inputs":[{"name":"generation","type":"uint256","internalType":"uint256"},{"name":"rarityRank","type":"uint256","internalType":"uint256"},{"name":"attribute","type":"string","internalType":"string"}],"outputs":[{"name":"attributeProbabilityIndex","type":"uint256","internalType":"uint256"}],"stateMutability":"view"},{"type":"function","name":"getAttributeProbabilities","inputs":[{"name":"generation","type":"uint256","internalType":"uint256"},{"name":"attribute","type":"string","internalType":"string"}],"outputs":[{"name":"","type":"uint8[]","internalType":"uint8[]"}],"stateMutability":"view"},{"type":"function","name":"transferOwnership","inputs":[{"name":"newOwnerAddress","type":"address","internalType":"address"}],"outputs":[],"stateMutability":"nonpayable"}],"bytecode":{"object":"0x6004610140818152631a19585960e21b610160526080908152610180828152636579657360e01b6101a05260a05260056101c0818152640dadeeae8d60db1b6101e05260c05261020083815263626f647960e01b6102205260e0526102409081526468616e647360d81b61026052610100526102c0604052610280918252631999595d60e21b6102a05261012091909152620000a0906000906006620003ac565b506040805160c081018252600281526003602082015260059181019190915260076060820152600b6080820152600d60a0820152620000e490600190600662000410565b50348015620000f257600080fd5b5060405162001abd38038062001abd83398101604081905262000115916200061f565b600280546001600160a01b03191633179055620001346000826200027d565b60008054905b818160ff1610156200027457828160ff16815181106200015e576200015e62000750565b60200260200101516003600080815260200190815260200160002060008360ff168154811062000192576200019262000750565b90600052602060002001604051620001ab9190620007a2565b90815260200160405180910390209080519060200190620001ce92919062000410565b5060018160ff1681548110620001e857620001e862000750565b90600052602060002090602091828204019190069054906101000a900460ff16600460008360ff168154811062000223576200022362000750565b906000526020600020016040516200023c9190620007a2565b908152604051908190036020019020805460ff9290921660ff19909216919091179055806200026b8162000845565b9150506200013a565b50505062000873565b6002546001600160a01b031633146200029557600080fd5b8051600614620002f65760405162461bcd60e51b815260206004820152602260248201527f496e76616c6964206e756d626572206f66206174747269627574652061727261604482015261797360f01b606482015260840160405180910390fd5b60008054905b818160ff161015620003a657828160ff168151811062000320576200032062000750565b60200260200101516003600086815260200190815260200160002060008360ff168154811062000354576200035462000750565b906000526020600020016040516200036d9190620007a2565b908152602001604051809103902090805190602001906200039092919062000410565b50806200039d8162000845565b915050620002fc565b50505050565b828054828255906000526020600020908101928215620003fe579160200282015b82811115620003fe5782518051620003ed918491602090910190620004b9565b5091602001919060010190620003cd565b506200040c92915062000536565b5090565b82805482825590600052602060002090601f01602090048101928215620004ab5791602002820160005b838211156200047a57835183826101000a81548160ff021916908360ff16021790555092602001926001016020816000010492830192600103026200043a565b8015620004a95782816101000a81549060ff02191690556001016020816000010492830192600103026200047a565b505b506200040c92915062000557565b828054620004c79062000766565b90600052602060002090601f016020900481019282620004eb5760008555620004ab565b82601f106200050657805160ff1916838001178555620004ab565b82800160010185558215620004ab579182015b82811115620004ab57825182559160200191906001019062000519565b808211156200040c5760006200054d82826200056e565b5060010162000536565b5b808211156200040c576000815560010162000558565b5080546200057c9062000766565b6000825580601f106200058d575050565b601f016020900490600052602060002090810190620005ad919062000557565b50565b634e487b7160e01b600052604160045260246000fd5b604051601f8201601f191681016001600160401b0381118282101715620005f157620005f1620005b0565b604052919050565b60006001600160401b03821115620006155762000615620005b0565b5060051b60200190565b600060208083850312156200063357600080fd5b82516001600160401b03808211156200064b57600080fd5b818501915085601f8301126200066057600080fd5b8151620006776200067182620005f9565b620005c6565b818152600591821b84018501918582019190898411156200069757600080fd5b8686015b848110156200074157805186811115620006b55760008081fd5b8701603f81018c13620006c85760008081fd5b888101516040620006dd6200067183620005f9565b82815291851b83018101918b8101908f841115620006fb5760008081fd5b938201935b838510156200072f578451925060ff831683146200071e5760008081fd5b828252938c0193908c019062000700565b8852505050938801935087016200069b565b50909998505050505050505050565b634e487b7160e01b600052603260045260246000fd5b600181811c908216806200077b57607f821691505b6020821081036200079c57634e487b7160e01b600052602260045260246000fd5b50919050565b600080835481600182811c915080831680620007bf57607f831692505b60208084108203620007df57634e487b7160e01b86526022600452602486fd5b818015620007f65760018114620008085762000837565b60ff1986168952848901965062000837565b60008a81526020902060005b868110156200082f5781548b82015290850190830162000814565b505084890196505b509498975050505050505050565b600060ff821660ff81036200086a57634e487b7160e01b600052601160045260246000fd5b60010192915050565b61123a80620008836000396000f3fe608060405234801561001057600080fd5b50600436106100a95760003560e01c8063c477c30c11610071578063c477c30c1461017f578063c908c671146101a4578063c9c4116f146101b7578063d05dcc6a146101e5578063f2fde38b14610205578063f59c4ffd1461021857600080fd5b806301c2b97b146100ae5780631eb9a915146100d757806322993745146100ec5780633e9f735e1461014b578063991b7daa1461015e575b600080fd5b6100c16100bc366004610c35565b61022b565b6040516100ce9190610c7c565b60405180910390f35b6100ea6100e5366004610d6f565b6102cb565b005b6100ff6100fa366004610da4565b610388565b6040516100ce9190600060c082019050825182526020830151602083015260408301516040830152606083015160608301526080830151608083015260a083015160a083015292915050565b6100ea610159366004610df8565b6106f7565b61017161016c366004610eb5565b610816565b6040519081526020016100ce565b61019261018d366004610f05565b61089e565b60405160ff90911681526020016100ce565b6101926101b2366004610f1e565b6108d2565b6101926101c5366004610f6e565b805160208183018101805160048252928201919093012091525460ff1681565b6101f86101f3366004610f05565b610931565b6040516100ce9190610fcf565b6100ea610213366004611002565b6109dd565b6100ea610226366004611032565b610a16565b6060600360008481526020019081526020016000208260405161024e919061104d565b90815260408051918290036020908101832080548083028501830190935282845291908301828280156102be57602002820191906000526020600020906000905b825461010083900a900460ff1681526020600192830181810494850194909303909202910180841161028f5790505b5050505050905092915050565b6002546001600160a01b031633146102e257600080fd5b6000548151146102f157600080fd5b60008054905b818160ff16101561038357828160ff168151811061031757610317611069565b6020026020010151600460008360ff168154811061033757610337611069565b9060005260206000200160405161034e91906110b9565b908152604051908190036020019020805460ff9290921660ff199092169190911790558061037b8161116a565b9150506102f7565b505050565b6103c16040518060c001604052806000815260200160008152602001600081526020016000815260200160008152602001600081525090565b8115610401576040518060c001604052806063815260200160638152602001606381526020016063815260200160638152602001606381525090506106ef565b6000805467ffffffffffffffff81111561041d5761041d610b7e565b604051908082528060200260200182016040528015610446578160200160208202803683370190505b50600080549192505b818160ff1610156106205760ff811615801561046e57508560ff166002145b8061048a57508060ff16600114801561048a575060008660ff16115b806104a657508060ff1660041480156104a657508560ff166003145b156104d3576032838260ff16815181106104c2576104c2611069565b60200260200101818152505061060e565b60006064600460008460ff16815481106104ef576104ef611069565b9060005260206000200160405161050691906110b9565b908152604051908190036020019020546105239060ff168b61119f565b61052d91906111b3565b905060006105e78960ff168360008660ff168154811061054f5761054f611069565b9060005260206000200180546105649061107f565b80601f01602080910402602001604051908101604052809291908181526020018280546105909061107f565b80156105dd5780601f106105b2576101008083540402835291602001916105dd565b820191906000526020600020905b8154815290600101906020018083116105c057829003601f168201915b5050505050610816565b905080858460ff16815181106105ff576105ff611069565b60200260200101818152505050505b806106188161116a565b91505061044f565b506040518060c001604052808360008151811061063f5761063f611069565b602002602001015181526020018360018151811061065f5761065f611069565b602002602001015181526020018360028151811061067f5761067f611069565b602002602001015181526020018360038151811061069f5761069f611069565b60200260200101518152602001836004815181106106bf576106bf611069565b60200260200101518152602001836005815181106106df576106df611069565b6020026020010151815250925050505b949350505050565b6002546001600160a01b0316331461070e57600080fd5b805160061461076e5760405162461bcd60e51b815260206004820152602260248201527f496e76616c6964206e756d626572206f66206174747269627574652061727261604482015261797360f01b606482015260840160405180910390fd5b60008054905b818160ff16101561081057828160ff168151811061079457610794611069565b60200260200101516003600086815260200190815260200160002060008360ff16815481106107c5576107c5611069565b906000526020600020016040516107dc91906110b9565b908152602001604051809103902090805190602001906107fd929190610ac3565b50806108088161116a565b915050610774565b50505050565b600080610823858461022b565b8051909150600090815b818160ff16101561089357838160ff168151811061084d5761084d611069565b602002602001015160ff168361086391906111c7565b9250868310610881576108778160016111df565b60ff169450610893565b8061088b8161116a565b91505061082d565b505050509392505050565b600181815481106108ae57600080fd5b9060005260206000209060209182820401919006915054906101000a900460ff1681565b6003602090815260008481526040902083518085018301805192815290830192850192909220915280548290811061090957600080fd5b906000526020600020906020918282040191900692509250509054906101000a900460ff1681565b6000818154811061094157600080fd5b90600052602060002001600091509050805461095c9061107f565b80601f01602080910402602001604051908101604052809291908181526020018280546109889061107f565b80156109d55780601f106109aa576101008083540402835291602001916109d5565b820191906000526020600020905b8154815290600101906020018083116109b857829003601f168201915b505050505081565b6002546001600160a01b031633146109f457600080fd5b600280546001600160a01b0319166001600160a01b0392909216919091179055565b6002546001600160a01b03163314610a2d57600080fd5b60008054905b818160ff1610156103835760408051600080825260208201909252905060ff8085166000908152600360205260408120815490928516908110610a7857610a78611069565b90600052602060002001604051610a8f91906110b9565b90815260200160405180910390209080519060200190610ab0929190610ac3565b5080610abb8161116a565b915050610a33565b82805482825590600052602060002090601f01602090048101928215610b595791602002820160005b83821115610b2a57835183826101000a81548160ff021916908360ff1602179055509260200192600101602081600001049283019260010302610aec565b8015610b575782816101000a81549060ff0219169055600101602081600001049283019260010302610b2a565b505b50610b65929150610b69565b5090565b5b80821115610b655760008155600101610b6a565b634e487b7160e01b600052604160045260246000fd5b604051601f8201601f1916810167ffffffffffffffff81118282101715610bbd57610bbd610b7e565b604052919050565b600082601f830112610bd657600080fd5b813567ffffffffffffffff811115610bf057610bf0610b7e565b610c03601f8201601f1916602001610b94565b818152846020838601011115610c1857600080fd5b816020850160208301376000918101602001919091529392505050565b60008060408385031215610c4857600080fd5b82359150602083013567ffffffffffffffff811115610c6657600080fd5b610c7285828601610bc5565b9150509250929050565b6020808252825182820181905260009190848201906040850190845b81811015610cb757835160ff1683529284019291840191600101610c98565b50909695505050505050565b600067ffffffffffffffff821115610cdd57610cdd610b7e565b5060051b60200190565b803560ff81168114610cf857600080fd5b919050565b600082601f830112610d0e57600080fd5b81356020610d23610d1e83610cc3565b610b94565b82815260059290921b84018101918181019086841115610d4257600080fd5b8286015b84811015610d6457610d5781610ce7565b8352918301918301610d46565b509695505050505050565b600060208284031215610d8157600080fd5b813567ffffffffffffffff811115610d9857600080fd5b6106ef84828501610cfd565b60008060008060808587031215610dba57600080fd5b84359350610dca60208601610ce7565b9250610dd860408601610ce7565b915060608501358015158114610ded57600080fd5b939692955090935050565b60008060408385031215610e0b57600080fd5b8235915060208084013567ffffffffffffffff80821115610e2b57600080fd5b818601915086601f830112610e3f57600080fd5b8135610e4d610d1e82610cc3565b81815260059190911b83018401908481019089831115610e6c57600080fd5b8585015b83811015610ea457803585811115610e885760008081fd5b610e968c89838a0101610cfd565b845250918601918601610e70565b508096505050505050509250929050565b600080600060608486031215610eca57600080fd5b8335925060208401359150604084013567ffffffffffffffff811115610eef57600080fd5b610efb86828701610bc5565b9150509250925092565b600060208284031215610f1757600080fd5b5035919050565b600080600060608486031215610f3357600080fd5b83359250602084013567ffffffffffffffff811115610f5157600080fd5b610f5d86828701610bc5565b925050604084013590509250925092565b600060208284031215610f8057600080fd5b813567ffffffffffffffff811115610f9757600080fd5b6106ef84828501610bc5565b60005b83811015610fbe578181015183820152602001610fa6565b838111156108105750506000910152565b6020815260008251806020840152610fee816040850160208701610fa3565b601f01601f19169190910160400192915050565b60006020828403121561101457600080fd5b81356001600160a01b038116811461102b57600080fd5b9392505050565b60006020828403121561104457600080fd5b61102b82610ce7565b6000825161105f818460208701610fa3565b9190910192915050565b634e487b7160e01b600052603260045260246000fd5b600181811c9082168061109357607f821691505b6020821081036110b357634e487b7160e01b600052602260045260246000fd5b50919050565b600080835481600182811c9150808316806110d557607f831692505b602080841082036110f457634e487b7160e01b86526022600452602486fd5b818015611108576001811461111957611146565b60ff19861689528489019650611146565b60008a81526020902060005b8681101561113e5781548b820152908501908301611125565b505084890196505b509498975050505050505050565b634e487b7160e01b600052601160045260246000fd5b600060ff821660ff810361118057611180611154565b60010192915050565b634e487b7160e01b600052601260045260246000fd5b6000826111ae576111ae611189565b500490565b6000826111c2576111c2611189565b500690565b600082198211156111da576111da611154565b500190565b600060ff821660ff84168060ff038211156111fc576111fc611154565b01939250505056fea264697066735822122055920c488353855dab72853d14cb69d6b4c9a0dba0563cfb1c7f6b9abd1cb94264736f6c634300080d0033","linkReferences":{}},"methodIdentifiers":{"addAttributeDivisor(uint8[])":"1eb9a915","addAttributeProbabilities(uint256,uint8[][])":"3e9f735e","attributeProbabilities(uint256,string,uint256)":"c908c671","attributeToDnaDivisor(string)":"c9c4116f","attributes(uint256)":"d05dcc6a","createPhysicalAttributes(uint256,uint8,uint8,bool)":"22993745","defaultAttributeDivisor(uint256)":"c477c30c","deleteAttributeProbabilities(uint8)":"f59c4ffd","dnaToIndex(uint256,uint256,string)":"991b7daa","getAttributeProbabilities(uint256,string)":"01c2b97b","transferOwnership(address)":"f2fde38b"},"id":22}