{"abi":[{"type":"constructor","inputs":[{"name":"ownerAddress","type":"address","internalType":"address"},{"name":"gameServerAddress","type":"address","internalType":"address"},{"name":"fighterFarmAddress","type":"address","internalType":"address"},{"name":"voltageManagerAddress","type":"address","internalType":"address"}],"stateMutability":"nonpayable"},{"type":"function","name":"VOLTAGE_COST","inputs":[],"outputs":[{"name":"","type":"uint8","internalType":"uint8"}],"stateMutability":"view"},{"type":"function","name":"accumulatedPointsPerAddress","inputs":[{"name":"","type":"address","internalType":"address"},{"name":"","type":"uint256","internalType":"uint256"}],"outputs":[{"name":"","type":"uint256","internalType":"uint256"}],"stateMutability":"view"},{"type":"function","name":"accumulatedPointsPerFighter","inputs":[{"name":"","type":"uint256","internalType":"uint256"},{"name":"","type":"uint256","internalType":"uint256"}],"outputs":[{"name":"","type":"uint256","internalType":"uint256"}],"stateMutability":"view"},{"type":"function","name":"adjustAdminAccess","inputs":[{"name":"adminAddress","type":"address","internalType":"address"},{"name":"access","type":"bool","internalType":"bool"}],"outputs":[],"stateMutability":"nonpayable"},{"type":"function","name":"amountClaimed","inputs":[{"name":"","type":"address","internalType":"address"}],"outputs":[{"name":"","type":"uint256","internalType":"uint256"}],"stateMutability":"view"},{"type":"function","name":"amountStaked","inputs":[{"name":"","type":"uint256","internalType":"uint256"}],"outputs":[{"name":"","type":"uint256","internalType":"uint256"}],"stateMutability":"view"},{"type":"function","name":"bpsLostPerLoss","inputs":[],"outputs":[{"name":"","type":"uint256","internalType":"uint256"}],"stateMutability":"view"},{"type":"function","name":"claimNRN","inputs":[],"outputs":[],"stateMutability":"nonpayable"},{"type":"function","name":"fighterBattleRecord","inputs":[{"name":"","type":"uint256","internalType":"uint256"}],"outputs":[{"name":"wins","type":"uint32","internalType":"uint32"},{"name":"ties","type":"uint32","internalType":"uint32"},{"name":"loses","type":"uint32","internalType":"uint32"}],"stateMutability":"view"},{"type":"function","name":"getBattleRecord","inputs":[{"name":"tokenId","type":"uint256","internalType":"uint256"}],"outputs":[{"name":"","type":"uint32","internalType":"uint32"},{"name":"","type":"uint32","internalType":"uint32"},{"name":"","type":"uint32","internalType":"uint32"}],"stateMutability":"view"},{"type":"function","name":"getCurrentStakingData","inputs":[],"outputs":[{"name":"","type":"uint256","internalType":"uint256"},{"name":"","type":"uint256","internalType":"uint256"},{"name":"","type":"uint256","internalType":"uint256"}],"stateMutability":"view"},{"type":"function","name":"getNrnDistribution","inputs":[{"name":"roundId_","type":"uint256","internalType":"uint256"}],"outputs":[{"name":"","type":"uint256","internalType":"uint256"}],"stateMutability":"view"},{"type":"function","name":"getUnclaimedNRN","inputs":[{"name":"claimer","type":"address","internalType":"address"}],"outputs":[{"name":"","type":"uint256","internalType":"uint256"}],"stateMutability":"view"},{"type":"function","name":"globalStakedAmount","inputs":[],"outputs":[{"name":"","type":"uint256","internalType":"uint256"}],"stateMutability":"view"},{"type":"function","name":"hasUnstaked","inputs":[{"name":"","type":"uint256","internalType":"uint256"},{"name":"","type":"uint256","internalType":"uint256"}],"outputs":[{"name":"","type":"bool","internalType":"bool"}],"stateMutability":"view"},{"type":"function","name":"instantiateMergingPoolContract","inputs":[{"name":"mergingPoolAddress","type":"address","internalType":"address"}],"outputs":[],"stateMutability":"nonpayable"},{"type":"function","name":"instantiateNeuronContract","inputs":[{"name":"nrnAddress","type":"address","internalType":"address"}],"outputs":[],"stateMutability":"nonpayable"},{"type":"function","name":"isAdmin","inputs":[{"name":"","type":"address","internalType":"address"}],"outputs":[{"name":"","type":"bool","internalType":"bool"}],"stateMutability":"view"},{"type":"function","name":"numRoundsClaimed","inputs":[{"name":"","type":"address","internalType":"address"}],"outputs":[{"name":"","type":"uint32","internalType":"uint32"}],"stateMutability":"view"},{"type":"function","name":"rankedNrnDistribution","inputs":[{"name":"","type":"uint256","internalType":"uint256"}],"outputs":[{"name":"","type":"uint256","internalType":"uint256"}],"stateMutability":"view"},{"type":"function","name":"roundId","inputs":[],"outputs":[{"name":"","type":"uint256","internalType":"uint256"}],"stateMutability":"view"},{"type":"function","name":"setBpsLostPerLoss","inputs":[{"name":"bpsLostPerLoss_","type":"uint256","internalType":"uint256"}],"outputs":[],"stateMutability":"nonpayable"},{"type":"function","name":"setGameServerAddress","inputs":[{"name":"gameServerAddress","type":"address","internalType":"address"}],"outputs":[],"stateMutability":"nonpayable"},{"type":"function","name":"setNewRound","inputs":[],"outputs":[],"stateMutability":"nonpayable"},{"type":"function","name":"setRankedNrnDistribution","inputs":[{"name":"newDistribution","type":"uint256","internalType":"uint256"}],"outputs":[],"stateMutability":"nonpayable"},{"type":"function","name":"setStakeAtRiskAddress","inputs":[{"name":"stakeAtRiskAddress","type":"address","internalType":"address"}],"outputs":[],"stateMutability":"nonpayable"},{"type":"function","name":"stakeNRN","inputs":[{"name":"amount","type":"uint256","internalType":"uint256"},{"name":"tokenId","type":"uint256","internalType":"uint256"}],"outputs":[],"stateMutability":"nonpayable"},{"type":"function","name":"stakingFactor","inputs":[{"name":"","type":"uint256","internalType":"uint256"}],"outputs":[{"name":"","type":"uint256","internalType":"uint256"}],"stateMutability":"view"},{"type":"function","name":"totalAccumulatedPoints","inputs":[{"name":"","type":"uint256","internalType":"uint256"}],"outputs":[{"name":"","type":"uint256","internalType":"uint256"}],"stateMutability":"view"},{"type":"function","name":"totalBattles","inputs":[],"outputs":[{"name":"","type":"uint256","internalType":"uint256"}],"stateMutability":"view"},{"type":"function","name":"transferOwnership","inputs":[{"name":"newOwnerAddress","type":"address","internalType":"address"}],"outputs":[],"stateMutability":"nonpayable"},{"type":"function","name":"unstakeNRN","inputs":[{"name":"amount","type":"uint256","internalType":"uint256"},{"name":"tokenId","type":"uint256","internalType":"uint256"}],"outputs":[],"stateMutability":"nonpayable"},{"type":"function","name":"updateBattleRecord","inputs":[{"name":"tokenId","type":"uint256","internalType":"uint256"},{"name":"mergingPortion","type":"uint256","internalType":"uint256"},{"name":"battleResult","type":"uint8","internalType":"uint8"},{"name":"eloFactor","type":"uint256","internalType":"uint256"},{"name":"initiatorBool","type":"bool","internalType":"bool"}],"outputs":[],"stateMutability":"nonpayable"},{"type":"event","name":"Claimed","inputs":[{"name":"claimer","type":"address","indexed":false,"internalType":"address"},{"name":"amount","type":"uint256","indexed":false,"internalType":"uint256"}],"anonymous":false},{"type":"event","name":"PointsChanged","inputs":[{"name":"tokenId","type":"uint256","indexed":false,"internalType":"uint256"},{"name":"points","type":"uint256","indexed":false,"internalType":"uint256"},{"name":"increased","type":"bool","indexed":false,"internalType":"bool"}],"anonymous":false},{"type":"event","name":"Staked","inputs":[{"name":"from","type":"address","indexed":false,"internalType":"address"},{"name":"amount","type":"uint256","indexed":false,"internalType":"uint256"}],"anonymous":false},{"type":"event","name":"Unstaked","inputs":[{"name":"from","type":"address","indexed":false,"internalType":"address"},{"name":"amount","type":"uint256","indexed":false,"internalType":"uint256"}],"anonymous":false}],"bytecode":{"object":"0x60806040526000805560006001556000600255600a6003553480156200002457600080fd5b506040516200222038038062002220833981016040819052620000479162000109565b600580546001600160a01b03199081166001600160a01b0396871690811790925560068054821695871695909517909455600880548516938616939093179092556009805490931693169290921790556000908152600c602090815260408220805460ff191660011790559080526013905269010f0cf064dd592000007f8fa6efc3be94b5b348b21fea823fe8d100408cee9b7f90524494500445d8ff6c5562000166565b80516001600160a01b03811681146200010457600080fd5b919050565b600080600080608085870312156200012057600080fd5b6200012b85620000ec565b93506200013b60208601620000ec565b92506200014b60408601620000ec565b91506200015b60608601620000ec565b905092959194509250565b6120aa80620001766000396000f3fe608060405234801561001057600080fd5b50600436106101fb5760003560e01c806398584b651161011a578063c5b3f255116100ad578063de41faf61161007c578063de41faf614610565578063f1d023f414610585578063f2fde38b14610598578063f8b013a5146105ab578063ff7f2944146105be57600080fd5b8063c5b3f255146104a9578063d365be0e146104d4578063d7e1ea171461050f578063d95fb9bb1461052f57600080fd5b8063bb90cec2116100e9578063bb90cec21461046b578063bf1dfb8a14610473578063bfedc6ca1461047c578063c0f06a001461048f57600080fd5b806398584b65146104125780639894e3a1146104255780639d3ba61514610445578063a25716191461045857600080fd5b806338ad5831116101925780637b02651a116101615780637b02651a146103a35780638cd221c9146103e05780638dfbbf46146103e957806390d9f75e146103f257600080fd5b806338ad5831146102ea5780633a17c5a71461031857806353a653eb1461032b5780636614ffee1461039057600080fd5b806324d7806c116101ce57806324d7806c146102875780632721f387146102ba5780632bff38c5146102cf5780632de907de146102d757600080fd5b80630e8ebb7a14610200578063209190431461023e5780632189e3e91461025e578063248795651461027e575b600080fd5b61022b61020e366004611dc5565b601160209081526000928352604080842090915290825290205481565b6040519081526020015b60405180910390f35b61022b61024c366004611de7565b60166020526000908152604090205481565b61022b61026c366004611de7565b60009081526013602052604090205490565b61022b60035481565b6102aa610295366004611e18565b600c6020526000908152604090205460ff1681565b6040519015158152602001610235565b6102cd6102c8366004611de7565b6105d1565b005b6102cd610614565b6102cd6102e5366004611e18565b610839565b6102aa6102f8366004611dc5565b601460209081526000928352604080842090915290825290205460ff1681565b6102cd610326366004611e52565b610872565b610369610339366004611de7565b6000908152600d602052604090205463ffffffff808216926401000000008304821692600160401b900490911690565b6040805163ffffffff94851681529284166020840152921691810191909152606001610235565b6102cd61039e366004611dc5565b610b40565b6103696103b1366004611de7565b600d6020526000908152604090205463ffffffff808216916401000000008104821691600160401b9091041683565b61022b60025481565b61022b60015481565b61022b610400366004611de7565b60126020526000908152604090205481565b6102cd610420366004611e18565b611007565b61022b610433366004611de7565b60136020526000908152604090205481565b6102cd610453366004611e18565b61104a565b6102cd610466366004611dc5565b611083565b6102cd611364565b61022b60005481565b6102cd61048a366004611ea8565b611451565b610497600a81565b60405160ff9091168152602001610235565b61022b6104b7366004611ee1565b601060209081526000928352604080842090915290825290205481565b6104fa6104e2366004611e18565b600f6020526000908152604090205463ffffffff1681565b60405163ffffffff9091168152602001610235565b61022b61051d366004611e18565b600e6020526000908152604090205481565b60025460008181526013602090815260408083205460128352928190205481519485529184019290925290820152606001610235565b61022b610573366004611de7565b60156020526000908152604090205481565b61022b610593366004611e18565b611493565b6102cd6105a6366004611e18565b611547565b6102cd6105b9366004611de7565b611580565b6102cd6105cc366004611e18565b6115a1565b336000908152600c602052604090205460ff166105ed57600080fd5b6105ff81670de0b6b3a7640000611f23565b60025460009081526013602052604090205550565b600254336000908152600f602052604090205463ffffffff161061068b5760405162461bcd60e51b8152602060048201526024808201527f416c726561647920636c61696d6564204e524e7320666f7220746869732070656044820152631c9a5bd960e21b60648201526084015b60405180910390fd5b336000908152600f6020526040812054819063ffffffff16805b6002548163ffffffff1610156107695763ffffffff811660008181526013602090815260408083205460128352818420543385526010845282852095855294909252909120549094506106f9908590611f23565b6107039190611f42565b61070d9085611f64565b336000908152600f60205260408120805492965060019290919061073890849063ffffffff16611f7c565b92506101000a81548163ffffffff021916908363ffffffff160217905550808061076190611fa4565b9150506106a5565b50821561083457336000908152600e60205260408120805485929061078f908490611f64565b90915550506007546040516340c10f1960e01b8152336004820152602481018590526001600160a01b03909116906340c10f1990604401600060405180830381600087803b1580156107e057600080fd5b505af11580156107f4573d6000803e3d6000fd5b505060408051338152602081018790527fd8138f8a3f377c5259ca548e70e4c2de94f129f5a11036a15b69513cba2b426a93500190505b60405180910390a15b505050565b6005546001600160a01b0316331461085057600080fd5b600680546001600160a01b0319166001600160a01b0392909216919091179055565b6006546001600160a01b0316331461088957600080fd5b606484111561089757600080fd5b6008546040516331a9108f60e11b8152600481018790526000916001600160a01b031690636352211e90602401602060405180830381865afa1580156108e1573d6000803e3d6000fd5b505050506040513d601f19601f820116820180604052508101906109059190611fc7565b9050811580610986575060095460405163e82f0c9760e01b81526001600160a01b0383811660048301524292169063e82f0c9790602401602060405180830381865afa158015610959573d6000803e3d6000fd5b505050506040513d601f19601f8201168201806040525081019061097d9190611fe4565b63ffffffff1611155b80610a0157506009546040516323e2a38d60e11b81526001600160a01b038381166004830152600a9216906347c5471a90602401602060405180830381865afa1580156109d7573d6000803e3d6000fd5b505050506040513d601f19601f820116820180604052508101906109fb919061200a565b60ff1610155b610a0a57600080fd5b610a1486856115da565b600b546040516311ced71160e31b8152600481018890526000916001600160a01b031690638e76b88890602401602060405180830381865afa158015610a5e573d6000803e3d6000fd5b505050506040513d601f19601f82011682018060405250810190610a829190612027565b60008881526015602052604081205491925090610aa0908390611f64565b1115610ab357610ab385888689866116a5565b8215610b2057600954604051630f193db960e31b81526001600160a01b038481166004830152600a6024830152909116906378c9edc890604401600060405180830381600087803b158015610b0757600080fd5b505af1158015610b1b573d6000803e3d6000fd5b505050505b6001600080828254610b329190611f64565b909155505050505050505050565b60008211610b855760405162461bcd60e51b81526020600482015260126024820152710416d6f756e742063616e6e6f7420626520360741b6044820152606401610682565b6008546040516331a9108f60e11b81526004810183905233916001600160a01b031690636352211e90602401602060405180830381865afa158015610bce573d6000803e3d6000fd5b505050506040513d601f19601f82011682018060405250810190610bf29190611fc7565b6001600160a01b031614610c485760405162461bcd60e51b815260206004820152601b60248201527f43616c6c657220646f6573206e6f74206f776e206669676874657200000000006044820152606401610682565b6007546040516370a0823160e01b815233600482015283916001600160a01b0316906370a0823190602401602060405180830381865afa158015610c90573d6000803e3d6000fd5b505050506040513d601f19601f82011682018060405250810190610cb49190612027565b1015610d025760405162461bcd60e51b815260206004820152601c60248201527f5374616b6520616d6f756e7420657863656564732062616c616e6365000000006044820152606401610682565b6000818152601460209081526040808320600254845290915290205460ff1615610d825760405162461bcd60e51b815260206004820152602b60248201527f43616e6e6f7420616464207374616b6520616674657220756e7374616b696e6760448201526a081d1a1a5cc81c9bdd5b9960aa1b6064820152608401610682565b600754604051638d9f368b60e01b8152336004820152306024820152604481018490526001600160a01b0390911690638d9f368b90606401600060405180830381600087803b158015610dd457600080fd5b505af1158015610de8573d6000803e3d6000fd5b50506007546040516323b872dd60e01b815233600482015230602482015260448101869052600093506001600160a01b0390911691506323b872dd906064016020604051808303816000875af1158015610e46573d6000803e3d6000fd5b505050506040513d601f19601f82011682018060405250810190610e6a9190612040565b90508015610834576000828152601560205260408120549003610eed576008546040516336f4104d60e01b815260048101849052600160248201526001600160a01b03909116906336f4104d90604401600060405180830381600087803b158015610ed457600080fd5b505af1158015610ee8573d6000803e3d6000fd5b505050505b60008281526015602052604081208054859290610f0b908490611f64565b925050819055508260016000828254610f249190611f64565b9091555050600b546040516311ced71160e31b815260048101849052610fa29184916001600160a01b0390911690638e76b888906024015b602060405180830381865afa158015610f79573d6000803e3d6000fd5b505050506040513d601f19601f82011682018060405250810190610f9d9190612027565b611ca3565b600083815260166020908152604080832093909355601781528282206002548352815290829020805460ff1916600117905581513381529081018590527f9e71bc8eea02a63969f509818f2dafb9254532904319f9dbda79b67bd34a5f3d910161082b565b6005546001600160a01b0316331461101e57600080fd5b600480546001600160a01b039092166001600160a01b03199283168117909155600b8054909216179055565b6005546001600160a01b0316331461106157600080fd5b600780546001600160a01b0319166001600160a01b0392909216919091179055565b6008546040516331a9108f60e11b81526004810183905233916001600160a01b031690636352211e90602401602060405180830381865afa1580156110cc573d6000803e3d6000fd5b505050506040513d601f19601f820116820180604052508101906110f09190611fc7565b6001600160a01b0316146111465760405162461bcd60e51b815260206004820152601b60248201527f43616c6c657220646f6573206e6f74206f776e206669676874657200000000006044820152606401610682565b60008181526015602052604090205482111561116e5760008181526015602052604090205491505b6000818152601560205260408120805484929061118c90849061205d565b9250508190555081600160008282546111a5919061205d565b9091555050600b546040516311ced71160e31b8152600481018390526111e19183916001600160a01b0390911690638e76b88890602401610f5c565b600082815260166020908152604080832093909355601781528282206002805484529082528383208054600160ff19918216811790925586855260148452858520925485529190925283832080549091169091179055600754915163a9059cbb60e01b81523360048201526024810185905290916001600160a01b03169063a9059cbb906044016020604051808303816000875af1158015611287573d6000803e3d6000fd5b505050506040513d601f19601f820116820180604052508101906112ab9190612040565b9050801561083457600082815260156020526040812054900361132e576008546040516336f4104d60e01b815260048101849052600060248201526001600160a01b03909116906336f4104d90604401600060405180830381600087803b15801561131557600080fd5b505af1158015611329573d6000803e3d6000fd5b505050505b60408051338152602081018590527f0f5bb82176feb1b5e747e28471aa92156a04d9f3ab9f45f28e2d704232b93f75910161082b565b336000908152600c602052604090205460ff1661138057600080fd5b60025460009081526012602052604090205461139b57600080fd5b6001600260008282546113ae9190611f64565b9091555050600b5460025460405163729b388160e01b81526001600160a01b039092169163729b3881916113e89160040190815260200190565b600060405180830381600087803b15801561140257600080fd5b505af1158015611416573d6000803e3d6000fd5b5050505060136000600160025461142d919061205d565b81526020808201929092526040908101600090812054600254825260139093522055565b6005546001600160a01b0316331461146857600080fd5b6001600160a01b03919091166000908152600c60205260409020805460ff1916911515919091179055565b6001600160a01b0381166000908152600f60205260408120548190819063ffffffff16805b6002548163ffffffff16101561153d5763ffffffff811660008181526013602090815260408083205460128352818420546001600160a01b038c168552601084528285209585529490925290912054909450611515908590611f23565b61151f9190611f42565b6115299085611f64565b93508061153581611fa4565b9150506114b8565b5091949350505050565b6005546001600160a01b0316331461155e57600080fd5b600580546001600160a01b0319166001600160a01b0392909216919091179055565b336000908152600c602052604090205460ff1661159c57600080fd5b600355565b6005546001600160a01b031633146115b857600080fd5b600a80546001600160a01b0319166001600160a01b0392909216919091179055565b8060ff1660000361162c576000828152600d6020526040812080546001929061160a90849063ffffffff16611f7c565b92506101000a81548163ffffffff021916908363ffffffff1602179055505050565b8060ff16600103611667576000828152600d6020526040902080546001919060049061160a908490640100000000900463ffffffff16611f7c565b8060ff166002036116a1576000828152600d6020526040902080546001919060089061160a908490600160401b900463ffffffff16611f7c565b5050565b600b546040516311ced71160e31b815260048101869052600091829182916001600160a01b031690638e76b88890602401602060405180830381865afa1580156116f3573d6000803e3d6000fd5b505050506040513d601f19601f820116820180604052508101906117179190612027565b6000888152601760209081526040808320600254845290915281205491945060ff9091161515900361177d5761174d8784611ca3565b600088815260166020908152604080832093909355601781528282206002548352905220805460ff191660011790555b6000878152601560205260409020546127109061179b908590611f64565b6003546117a89190611f23565b6117b29190611f42565b91508760ff166000036119f057826000036117e4576000878152601660205260409020546117e1908790611f23565b90505b600060646117f28784611f23565b6117fc9190611f42565b9050611808818361205d565b600a546040516307f2328d60e51b8152600481018b9052602481018490529193506001600160a01b03169063fe4651a090604401600060405180830381600087803b15801561185657600080fd5b505af115801561186a573d6000803e3d6000fd5b505050508383111561187a578392505b821561191357600b54604051637106855960e01b815260048101859052602481018a90526001600160a01b03878116604483015290911690637106855990606401600060405180830381600087803b1580156118d557600080fd5b505af11580156118e9573d6000803e3d6000fd5b5050506000898152601560205260408120805486935090919061190d908490611f64565b90915550505b600088815260116020908152604080832060025484529091528120805484929061193e908490611f64565b90915550506001600160a01b0385166000908152601060209081526040808320600254845290915281208054849290611978908490611f64565b90915550506002546000908152601260205260408120805484929061199e908490611f64565b909155505081156119ea57604080518981526020810184905260018183015290517f4c3a09bb8c14b5d41d8a2b20478ba13121a1a49b8dd692149d295ab34dbf187b9181900360600190a15b50611c99565b8760ff16600203611c9957600087815260156020526040902054821115611a235760008781526015602052604090205491505b6000878152601160209081526040808320600254845290915290205415611b7e57600087815260166020526040902054611a5e908790611f23565b60008881526011602090815260408083206002548452909152902054909150811115611aa25750600086815260116020908152604080832060025484529091529020545b6000878152601160209081526040808320600254845290915281208054839290611acd90849061205d565b90915550506001600160a01b0384166000908152601060209081526040808320600254845290915281208054839290611b0790849061205d565b909155505060025460009081526012602052604081208054839290611b2d90849061205d565b90915550508015611b7957604080518881526020810183905260008183015290517f4c3a09bb8c14b5d41d8a2b20478ba13121a1a49b8dd692149d295ab34dbf187b9181900360600190a15b611c99565b6007546004805460405163a9059cbb60e01b81526001600160a01b039182169281019290925260248201859052600092169063a9059cbb906044016020604051808303816000875af1158015611bd8573d6000803e3d6000fd5b505050506040513d601f19601f82011682018060405250810190611bfc9190612040565b90508015611c9757600b54604051639a6bf96560e01b815260048101859052602481018a90526001600160a01b03878116604483015290911690639a6bf96590606401600060405180830381600087803b158015611c5957600080fd5b505af1158015611c6d573d6000803e3d6000fd5b50505060008981526015602052604081208054869350909190611c9190849061205d565b90915550505b505b5050505050505050565b6000828152601560205260408120548190611cdc90670de0b6b3a764000090611ccd908690611f64565b611cd79190611f42565b611cf1565b905080600003611cea575060015b9392505050565b600181600160801b8110611d0a5760409190911b9060801c5b600160401b8110611d205760209190911b9060401c5b6401000000008110611d375760109190911b9060201c5b620100008110611d4c5760089190911b9060101c5b6101008110611d605760049190911b9060081c5b60108110611d735760029190911b9060041c5b60088110611d82578160011b91505b5080820401600190811c80830401811c80830401811c80830401811c80830401811c80830401811c80830401901c80820481811015611dbf578091505b50919050565b60008060408385031215611dd857600080fd5b50508035926020909101359150565b600060208284031215611df957600080fd5b5035919050565b6001600160a01b0381168114611e1557600080fd5b50565b600060208284031215611e2a57600080fd5b8135611cea81611e00565b60ff81168114611e1557600080fd5b8015158114611e1557600080fd5b600080600080600060a08688031215611e6a57600080fd5b85359450602086013593506040860135611e8381611e35565b9250606086013591506080860135611e9a81611e44565b809150509295509295909350565b60008060408385031215611ebb57600080fd5b8235611ec681611e00565b91506020830135611ed681611e44565b809150509250929050565b60008060408385031215611ef457600080fd5b8235611eff81611e00565b946020939093013593505050565b634e487b7160e01b600052601160045260246000fd5b6000816000190483118215151615611f3d57611f3d611f0d565b500290565b600082611f5f57634e487b7160e01b600052601260045260246000fd5b500490565b60008219821115611f7757611f77611f0d565b500190565b600063ffffffff808316818516808303821115611f9b57611f9b611f0d565b01949350505050565b600063ffffffff808316818103611fbd57611fbd611f0d565b6001019392505050565b600060208284031215611fd957600080fd5b8151611cea81611e00565b600060208284031215611ff657600080fd5b815163ffffffff81168114611cea57600080fd5b60006020828403121561201c57600080fd5b8151611cea81611e35565b60006020828403121561203957600080fd5b5051919050565b60006020828403121561205257600080fd5b8151611cea81611e44565b60008282101561206f5761206f611f0d565b50039056fea264697066735822122050cbadc78d15b0f4e9f9dfb694a9946b61d7ba39a724ad06f2e5ffd88bbec3d664736f6c634300080d0033","linkReferences":{}},"methodIdentifiers":{"VOLTAGE_COST()":"c0f06a00","accumulatedPointsPerAddress(address,uint256)":"c5b3f255","accumulatedPointsPerFighter(uint256,uint256)":"0e8ebb7a","adjustAdminAccess(address,bool)":"bfedc6ca","amountClaimed(address)":"d7e1ea17","amountStaked(uint256)":"de41faf6","bpsLostPerLoss()":"24879565","claimNRN()":"2bff38c5","fighterBattleRecord(uint256)":"7b02651a","getBattleRecord(uint256)":"53a653eb","getCurrentStakingData()":"d95fb9bb","getNrnDistribution(uint256)":"2189e3e9","getUnclaimedNRN(address)":"f1d023f4","globalStakedAmount()":"8dfbbf46","hasUnstaked(uint256,uint256)":"38ad5831","instantiateMergingPoolContract(address)":"ff7f2944","instantiateNeuronContract(address)":"9d3ba615","isAdmin(address)":"24d7806c","numRoundsClaimed(address)":"d365be0e","rankedNrnDistribution(uint256)":"9894e3a1","roundId()":"8cd221c9","setBpsLostPerLoss(uint256)":"f8b013a5","setGameServerAddress(address)":"2de907de","setNewRound()":"bb90cec2","setRankedNrnDistribution(uint256)":"2721f387","setStakeAtRiskAddress(address)":"98584b65","stakeNRN(uint256,uint256)":"6614ffee","stakingFactor(uint256)":"20919043","totalAccumulatedPoints(uint256)":"90d9f75e","totalBattles()":"bf1dfb8a","transferOwnership(address)":"f2fde38b","unstakeNRN(uint256,uint256)":"a2571619","updateBattleRecord(uint256,uint256,uint8,uint256,bool)":"3a17c5a7"},"id":29}