{"abi":[{"type":"constructor","inputs":[{"name":"_treasuryAddress","type":"address","internalType":"address"},{"name":"nrnAddress","type":"address","internalType":"address"},{"name":"rankedBattleAddress","type":"address","internalType":"address"}],"stateMutability":"nonpayable"},{"type":"function","name":"amountLost","inputs":[{"name":"","type":"address","internalType":"address"}],"outputs":[{"name":"","type":"uint256","internalType":"uint256"}],"stateMutability":"view"},{"type":"function","name":"getStakeAtRisk","inputs":[{"name":"fighterId","type":"uint256","internalType":"uint256"}],"outputs":[{"name":"","type":"uint256","internalType":"uint256"}],"stateMutability":"view"},{"type":"function","name":"reclaimNRN","inputs":[{"name":"nrnToReclaim","type":"uint256","internalType":"uint256"},{"name":"fighterId","type":"uint256","internalType":"uint256"},{"name":"fighterOwner","type":"address","internalType":"address"}],"outputs":[],"stateMutability":"nonpayable"},{"type":"function","name":"roundId","inputs":[],"outputs":[{"name":"","type":"uint256","internalType":"uint256"}],"stateMutability":"view"},{"type":"function","name":"setNewRound","inputs":[{"name":"roundId_","type":"uint256","internalType":"uint256"}],"outputs":[],"stateMutability":"nonpayable"},{"type":"function","name":"stakeAtRisk","inputs":[{"name":"","type":"uint256","internalType":"uint256"},{"name":"","type":"uint256","internalType":"uint256"}],"outputs":[{"name":"","type":"uint256","internalType":"uint256"}],"stateMutability":"view"},{"type":"function","name":"totalStakeAtRisk","inputs":[{"name":"","type":"uint256","internalType":"uint256"}],"outputs":[{"name":"","type":"uint256","internalType":"uint256"}],"stateMutability":"view"},{"type":"function","name":"treasuryAddress","inputs":[],"outputs":[{"name":"","type":"address","internalType":"address"}],"stateMutability":"view"},{"type":"function","name":"updateAtRiskRecords","inputs":[{"name":"nrnToPlaceAtRisk","type":"uint256","internalType":"uint256"},{"name":"fighterId","type":"uint256","internalType":"uint256"},{"name":"fighterOwner","type":"address","internalType":"address"}],"outputs":[],"stateMutability":"nonpayable"},{"type":"event","name":"IncreasedStakeAtRisk","inputs":[{"name":"fighterId","type":"uint256","indexed":false,"internalType":"uint256"},{"name":"atRiskAmount","type":"uint256","indexed":false,"internalType":"uint256"}],"anonymous":false},{"type":"event","name":"ReclaimedStake","inputs":[{"name":"fighterId","type":"uint256","indexed":false,"internalType":"uint256"},{"name":"reclaimAmount","type":"uint256","indexed":false,"internalType":"uint256"}],"anonymous":false}],"bytecode":{"object":"0x60806040526000805534801561001457600080fd5b5060405161080d38038061080d83398101604081905261003391610091565b600180546001600160a01b039485166001600160a01b0319918216179091556002805492851692821692909217909155600380549290931691161790556100d4565b80516001600160a01b038116811461008c57600080fd5b919050565b6000806000606084860312156100a657600080fd5b6100af84610075565b92506100bd60208501610075565b91506100cb60408501610075565b90509250925092565b61072a806100e36000396000f3fe608060405234801561001057600080fd5b50600436106100935760003560e01c80638cd221c9116100665780638cd221c91461011e5780638e76b888146101275780639a6bf965146101525780639ec3a0e514610165578063c5f956af1461018557600080fd5b80631a80a0761461009857806329ffeec3146100cb57806371068559146100f6578063729b38811461010b575b600080fd5b6100b86100a63660046105b4565b60066020526000908152604090205481565b6040519081526020015b60405180910390f35b6100b86100d93660046105d6565b600560209081526000928352604080842090915290825290205481565b6101096101043660046105f8565b6101b0565b005b61010961011936600461062d565b6103a6565b6100b860005481565b6100b861013536600461062d565b600080548152600560209081526040808320938352929052205490565b6101096101603660046105f8565b61041c565b6100b861017336600461062d565b60046020526000908152604090205481565b600154610198906001600160a01b031681565b6040516001600160a01b0390911681526020016100c2565b6002546001600160a01b031633146101e35760405162461bcd60e51b81526004016101da90610646565b60405180910390fd5b6000805481526005602090815260408083208584529091529020548311156102605760405162461bcd60e51b815260206004820152602a60248201527f4669676874657220646f6573206e6f74206861766520656e6f756768207374616044820152696b65206174207269736b60b01b60648201526084016101da565b60035460025460405163a9059cbb60e01b81526001600160a01b03918216600482015260248101869052600092919091169063a9059cbb906044016020604051808303816000875af11580156102ba573d6000803e3d6000fd5b505050506040513d601f19601f820116820180604052508101906102de919061068d565b905080156103a057600080548152600560209081526040808320868452909152812080548692906103109084906106c5565b909155505060008054815260046020526040812080548692906103349084906106c5565b90915550506001600160a01b038216600090815260066020526040812080548692906103619084906106c5565b909155505060408051848152602081018690527fa73d03ce49714131e181f44e5b21f908f7913aeb36240c48e60994c315c41daa910160405180910390a15b50505050565b6002546001600160a01b031633146104005760405162461bcd60e51b815260206004820152601f60248201527f4e6f7420617574686f72697a656420746f20736574206e657720726f756e640060448201526064016101da565b600061040a610504565b905080156104185760008290555b5050565b6002546001600160a01b031633146104465760405162461bcd60e51b81526004016101da90610646565b600080548152600560209081526040808320858452909152812080548592906104709084906106dc565b909155505060008054815260046020526040812080548592906104949084906106dc565b90915550506001600160a01b038116600090815260066020526040812080548592906104c19084906106dc565b909155505060408051838152602081018590527f581494833fd14ebbe503c8309daf2b8cb07272845bee083eee841a313fc8a5a0910160405180910390a1505050565b60035460015460008054815260046020819052604080832054905163a9059cbb60e01b81526001600160a01b039485169281019290925260248201529092919091169063a9059cbb906044016020604051808303816000875af115801561056f573d6000803e3d6000fd5b505050506040513d601f19601f82011682018060405250810190610593919061068d565b905090565b80356001600160a01b03811681146105af57600080fd5b919050565b6000602082840312156105c657600080fd5b6105cf82610598565b9392505050565b600080604083850312156105e957600080fd5b50508035926020909101359150565b60008060006060848603121561060d57600080fd5b833592506020840135915061062460408501610598565b90509250925092565b60006020828403121561063f57600080fd5b5035919050565b60208082526027908201527f43616c6c206d7573742062652066726f6d2052616e6b6564426174746c6520636040820152661bdb9d1c9858dd60ca1b606082015260800190565b60006020828403121561069f57600080fd5b815180151581146105cf57600080fd5b634e487b7160e01b600052601160045260246000fd5b6000828210156106d7576106d76106af565b500390565b600082198211156106ef576106ef6106af565b50019056fea2646970667358221220bbe34cc18c22d628cc2859f7baeab2413690d681f2de2930b465b6c0cb85ac1864736f6c634300080d0033","linkReferences":{}},"methodIdentifiers":{"amountLost(address)":"1a80a076","getStakeAtRisk(uint256)":"8e76b888","reclaimNRN(uint256,uint256,address)":"71068559","roundId()":"8cd221c9","setNewRound(uint256)":"729b3881","stakeAtRisk(uint256,uint256)":"29ffeec3","totalStakeAtRisk(uint256)":"9ec3a0e5","treasuryAddress()":"c5f956af","updateAtRiskRecords(uint256,uint256,address)":"9a6bf965"},"id":30}