{"abi":[{"type":"constructor","inputs":[{"name":"ownerAddress","type":"address","internalType":"address"},{"name":"rankedBattleAddress","type":"address","internalType":"address"},{"name":"fighterFarmAddress","type":"address","internalType":"address"}],"stateMutability":"nonpayable"},{"type":"function","name":"addPoints","inputs":[{"name":"tokenId","type":"uint256","internalType":"uint256"},{"name":"points","type":"uint256","internalType":"uint256"}],"outputs":[],"stateMutability":"nonpayable"},{"type":"function","name":"adjustAdminAccess","inputs":[{"name":"adminAddress","type":"address","internalType":"address"},{"name":"access","type":"bool","internalType":"bool"}],"outputs":[],"stateMutability":"nonpayable"},{"type":"function","name":"claimRewards","inputs":[{"name":"modelURIs","type":"string[]","internalType":"string[]"},{"name":"modelTypes","type":"string[]","internalType":"string[]"},{"name":"customAttributes","type":"uint256[2][]","internalType":"uint256[2][]"}],"outputs":[],"stateMutability":"nonpayable"},{"type":"function","name":"fighterPoints","inputs":[{"name":"","type":"uint256","internalType":"uint256"}],"outputs":[{"name":"","type":"uint256","internalType":"uint256"}],"stateMutability":"view"},{"type":"function","name":"getFighterPoints","inputs":[{"name":"maxId","type":"uint256","internalType":"uint256"}],"outputs":[{"name":"","type":"uint256[]","internalType":"uint256[]"}],"stateMutability":"view"},{"type":"function","name":"getUnclaimedRewards","inputs":[{"name":"claimer","type":"address","internalType":"address"}],"outputs":[{"name":"","type":"uint256","internalType":"uint256"}],"stateMutability":"view"},{"type":"function","name":"isAdmin","inputs":[{"name":"","type":"address","internalType":"address"}],"outputs":[{"name":"","type":"bool","internalType":"bool"}],"stateMutability":"view"},{"type":"function","name":"isSelectionComplete","inputs":[{"name":"","type":"uint256","internalType":"uint256"}],"outputs":[{"name":"","type":"bool","internalType":"bool"}],"stateMutability":"view"},{"type":"function","name":"numRoundsClaimed","inputs":[{"name":"","type":"address","internalType":"address"}],"outputs":[{"name":"","type":"uint32","internalType":"uint32"}],"stateMutability":"view"},{"type":"function","name":"pickWinner","inputs":[{"name":"winners","type":"uint256[]","internalType":"uint256[]"}],"outputs":[],"stateMutability":"nonpayable"},{"type":"function","name":"roundId","inputs":[],"outputs":[{"name":"","type":"uint256","internalType":"uint256"}],"stateMutability":"view"},{"type":"function","name":"totalPoints","inputs":[],"outputs":[{"name":"","type":"uint256","internalType":"uint256"}],"stateMutability":"view"},{"type":"function","name":"transferOwnership","inputs":[{"name":"newOwnerAddress","type":"address","internalType":"address"}],"outputs":[],"stateMutability":"nonpayable"},{"type":"function","name":"updateWinnersPerPeriod","inputs":[{"name":"newWinnersPerPeriodAmount","type":"uint256","internalType":"uint256"}],"outputs":[],"stateMutability":"nonpayable"},{"type":"function","name":"winnerAddresses","inputs":[{"name":"","type":"uint256","internalType":"uint256"},{"name":"","type":"uint256","internalType":"uint256"}],"outputs":[{"name":"","type":"address","internalType":"address"}],"stateMutability":"view"},{"type":"function","name":"winnersPerPeriod","inputs":[],"outputs":[{"name":"","type":"uint256","internalType":"uint256"}],"stateMutability":"view"},{"type":"event","name":"Claimed","inputs":[{"name":"claimer","type":"address","indexed":false,"internalType":"address"},{"name":"amount","type":"uint256","indexed":false,"internalType":"uint256"}],"anonymous":false},{"type":"event","name":"PointsAdded","inputs":[{"name":"tokenId","type":"uint256","indexed":false,"internalType":"uint256"},{"name":"points","type":"uint256","indexed":false,"internalType":"uint256"}],"anonymous":false}],"bytecode":{"object":"0x608060405260026000556000600155600060025534801561001f57600080fd5b5060405161109438038061109483398101604081905261003e916100b7565b600380546001600160a01b03199081166001600160a01b039586169081179092556004805482169486169490941790935560058054909316919093161790556000908152600a60205260409020805460ff191660011790556100fa565b80516001600160a01b03811681146100b257600080fd5b919050565b6000806000606084860312156100cc57600080fd5b6100d58461009b565b92506100e36020850161009b565b91506100f16040850161009b565b90509250925092565b610f8b806101096000396000f3fe608060405234801561001057600080fd5b50600436106101005760003560e01c80638cd221c911610097578063d873827811610066578063d87382781461025c578063ec64438714610265578063f2fde38b14610290578063fe4651a0146102a357600080fd5b80638cd221c9146101f2578063bfedc6ca146101fb578063d1a2c7311461020e578063d365be0e1461022157600080fd5b80635827eb37116100d35780635827eb371461018c57806358b57ea51461019f57806369a69e29146101bf578063809e13c3146101d257600080fd5b80630e2638f4146101055780631e19c0961461011a57806324d7806c14610152578063567142be14610175575b600080fd5b610118610113366004610b51565b6102b6565b005b61013d610128366004610b51565b60096020526000908152604090205460ff1681565b60405190151581526020015b60405180910390f35b61013d610160366004610b82565b600a6020526000908152604090205460ff1681565b61017e60025481565b604051908152602001610149565b61011861019a366004610bf2565b6102d7565b6101b26101ad366004610b51565b61059a565b6040516101499190610c34565b61017e6101cd366004610b82565b610612565b61017e6101e0366004610b51565b60076020526000908152604090205481565b61017e60015481565b610118610209366004610c78565b6106fa565b61011861021c366004610cb6565b61073c565b61024761022f366004610b82565b60066020526000908152604090205463ffffffff1681565b60405163ffffffff9091168152602001610149565b61017e60005481565b610278610273366004610d7f565b610988565b6040516001600160a01b039091168152602001610149565b61011861029e366004610b82565b6109c0565b6101186102b1366004610d7f565b6109f9565b336000908152600a602052604090205460ff166102d257600080fd5b600055565b336000908152600a602052604090205460ff166102f357600080fd5b60005481146103495760405162461bcd60e51b815260206004820152601b60248201527f496e636f7272656374206e756d626572206f662077696e6e657273000000000060448201526064015b60405180910390fd5b60015460009081526009602052604090205460ff16156103ab5760405162461bcd60e51b815260206004820152601c60248201527f57696e6e6572732061726520616c72656164792073656c6563746564000000006044820152606401610340565b8060008167ffffffffffffffff8111156103c7576103c7610da1565b6040519080825280602002602001820160405280156103f0578160200160208202803683370190505b50905060005b8281101561053f576005546001600160a01b0316636352211e86868481811061042157610421610db7565b905060200201356040518263ffffffff1660e01b815260040161044691815260200190565b602060405180830381865afa158015610463573d6000803e3d6000fd5b505050506040513d601f19601f820116820180604052508101906104879190610dcd565b82828151811061049957610499610db7565b60200260200101906001600160a01b031690816001600160a01b031681525050600760008686848181106104cf576104cf610db7565b90506020020135815260200190815260200160002054600260008282546104f69190610e00565b909155506000905060078187878581811061051357610513610db7565b90506020020135815260200190815260200160002081905550808061053790610e17565b9150506103f6565b506001546000908152600860209081526040909120825161056292840190610ad7565b50600180546000908152600960205260408120805460ff191683179055815482919061058f908390610e30565b909155505050505050565b604080516001808252818301909252606091600091906020808301908036833701905050905060005b8381101561060b5760008181526007602052604090205482518390839081106105ee576105ee610db7565b60209081029190910101528061060381610e17565b9150506105c3565b5092915050565b6001600160a01b0381166000908152600660205260408120548190819063ffffffff16805b6001548163ffffffff1610156106f05763ffffffff811660009081526008602052604081205494505b848163ffffffff1610156106dd57600860008363ffffffff1681526020019081526020016000208163ffffffff168154811061069e5761069e610db7565b6000918252602090912001546001600160a01b03908116908816036106cb576106c8600185610e30565b93505b806106d581610e48565b915050610660565b50806106e881610e48565b915050610637565b5090949350505050565b6003546001600160a01b0316331461071157600080fd5b6001600160a01b03919091166000908152600a60205260409020805460ff1916911515919091179055565b33600090815260066020526040812054819063ffffffff16805b6001548163ffffffff1610156109315733600090815260066020526040812080546001929061078c90849063ffffffff16610e6b565b92506101000a81548163ffffffff021916908363ffffffff160217905550600860008263ffffffff16815260200190815260200160002080549050935060005b848163ffffffff16101561091e57600860008363ffffffff1681526020019081526020016000208163ffffffff168154811061080a5761080a610db7565b6000918252602090912001546001600160a01b0316330361090c576005546001600160a01b031663115822fe338d8d63ffffffff891681811061084f5761084f610db7565b90506020028101906108619190610e93565b8d8d8a63ffffffff1681811061087957610879610db7565b905060200281019061088b9190610e93565b8d8d8c63ffffffff168181106108a3576108a3610db7565b9050604002016040518763ffffffff1660e01b81526004016108ca96959493929190610f03565b600060405180830381600087803b1580156108e457600080fd5b505af11580156108f8573d6000803e3d6000fd5b505050506001846109099190610e6b565b93505b8061091681610e48565b9150506107cc565b508061092981610e48565b915050610756565b5063ffffffff82161561097d576040805133815263ffffffff841660208201527fd8138f8a3f377c5259ca548e70e4c2de94f129f5a11036a15b69513cba2b426a910160405180910390a15b505050505050505050565b600860205281600052604060002081815481106109a457600080fd5b6000918252602090912001546001600160a01b03169150829050565b6003546001600160a01b031633146109d757600080fd5b600380546001600160a01b0319166001600160a01b0392909216919091179055565b6004546001600160a01b03163314610a5e5760405162461bcd60e51b815260206004820152602260248201527f4e6f742052616e6b656420426174746c6520636f6e7472616374206164647265604482015261737360f01b6064820152608401610340565b60008281526007602052604081208054839290610a7c908490610e30565b925050819055508060026000828254610a959190610e30565b909155505060408051838152602081018390527ff54b9ab9e866899cf7486a617bf4f1e402300b8c2b16214e8f20f0d8ba03ca11910160405180910390a15050565b828054828255906000526020600020908101928215610b2c579160200282015b82811115610b2c57825182546001600160a01b0319166001600160a01b03909116178255602090920191600190910190610af7565b50610b38929150610b3c565b5090565b5b80821115610b385760008155600101610b3d565b600060208284031215610b6357600080fd5b5035919050565b6001600160a01b0381168114610b7f57600080fd5b50565b600060208284031215610b9457600080fd5b8135610b9f81610b6a565b9392505050565b60008083601f840112610bb857600080fd5b50813567ffffffffffffffff811115610bd057600080fd5b6020830191508360208260051b8501011115610beb57600080fd5b9250929050565b60008060208385031215610c0557600080fd5b823567ffffffffffffffff811115610c1c57600080fd5b610c2885828601610ba6565b90969095509350505050565b6020808252825182820181905260009190848201906040850190845b81811015610c6c57835183529284019291840191600101610c50565b50909695505050505050565b60008060408385031215610c8b57600080fd5b8235610c9681610b6a565b915060208301358015158114610cab57600080fd5b809150509250929050565b60008060008060008060608789031215610ccf57600080fd5b863567ffffffffffffffff80821115610ce757600080fd5b610cf38a838b01610ba6565b90985096506020890135915080821115610d0c57600080fd5b610d188a838b01610ba6565b90965094506040890135915080821115610d3157600080fd5b818901915089601f830112610d4557600080fd5b813581811115610d5457600080fd5b8a60208260061b8501011115610d6957600080fd5b6020830194508093505050509295509295509295565b60008060408385031215610d9257600080fd5b50508035926020909101359150565b634e487b7160e01b600052604160045260246000fd5b634e487b7160e01b600052603260045260246000fd5b600060208284031215610ddf57600080fd5b8151610b9f81610b6a565b634e487b7160e01b600052601160045260246000fd5b600082821015610e1257610e12610dea565b500390565b600060018201610e2957610e29610dea565b5060010190565b60008219821115610e4357610e43610dea565b500190565b600063ffffffff808316818103610e6157610e61610dea565b6001019392505050565b600063ffffffff808316818516808303821115610e8a57610e8a610dea565b01949350505050565b6000808335601e19843603018112610eaa57600080fd5b83018035915067ffffffffffffffff821115610ec557600080fd5b602001915036819003821315610beb57600080fd5b81835281816020850137506000828201602090810191909152601f909101601f19169091010190565b6001600160a01b038716815260a0602082018190526000908201610f2881888a610eda565b8381036040850152610f3b818789610eda565b92505060408460608501376000905297965050505050505056fea264697066735822122083c032cb2cd52c5cde27cc1a2741d2416414a84de6642da3801a48374104e93d64736f6c634300080d0033","linkReferences":{}},"methodIdentifiers":{"addPoints(uint256,uint256)":"fe4651a0","adjustAdminAccess(address,bool)":"bfedc6ca","claimRewards(string[],string[],uint256[2][])":"d1a2c731","fighterPoints(uint256)":"809e13c3","getFighterPoints(uint256)":"58b57ea5","getUnclaimedRewards(address)":"69a69e29","isAdmin(address)":"24d7806c","isSelectionComplete(uint256)":"1e19c096","numRoundsClaimed(address)":"d365be0e","pickWinner(uint256[])":"5827eb37","roundId()":"8cd221c9","totalPoints()":"567142be","transferOwnership(address)":"f2fde38b","updateWinnersPerPeriod(uint256)":"0e2638f4","winnerAddresses(uint256,uint256)":"ec644387","winnersPerPeriod()":"d8738278"},"id":27}